{
  "contractName": "Aggregator",
  "abi": [
    {
      "inputs": [],
      "stateMutability": "nonpayable",
      "type": "constructor"
    },
    {
      "inputs": [
        {
          "internalType": "string",
          "name": "_symbol",
          "type": "string"
        }
      ],
      "name": "getLatestPrice",
      "outputs": [
        {
          "internalType": "int256",
          "name": "",
          "type": "int256"
        }
      ],
      "stateMutability": "view",
      "type": "function"
    }
  ],
  "bytecode": "0x608060405234801561001057600080fd5b507348731cf7e84dc94c5f84577882c14be11a5b7456600060405161003490610229565b908152602001604051809103902060006101000a81548173ffffffffffffffffffffffffffffffffffffffff021916908373ffffffffffffffffffffffffffffffffffffffff16021790555073d4a33860578de61dbabdc8bfdb98fd742fa7028e60006040516100a39061028a565b908152602001604051809103902060006101000a81548173ffffffffffffffffffffffffffffffffffffffff021916908373ffffffffffffffffffffffffffffffffffffffff160217905550730d79df66be487753b02d015fb622ded7f0e9798d6000604051610112906102eb565b908152602001604051809103902060006101000a81548173ffffffffffffffffffffffffffffffffffffffff021916908373ffffffffffffffffffffffffffffffffffffffff16021790555073a39434a63a52e749f02807ae27335515ba4b07f760006040516101819061034c565b908152602001604051809103902060006101000a81548173ffffffffffffffffffffffffffffffffffffffff021916908373ffffffffffffffffffffffffffffffffffffffff160217905550610361565b600081905092915050565b7f4c494e4b00000000000000000000000000000000000000000000000000000000600082015250565b60006102136004836101d2565b915061021e826101dd565b600482019050919050565b600061023482610206565b9150819050919050565b7f4554480000000000000000000000000000000000000000000000000000000000600082015250565b60006102746003836101d2565b915061027f8261023e565b600382019050919050565b600061029582610267565b9150819050919050565b7f4441490000000000000000000000000000000000000000000000000000000000600082015250565b60006102d56003836101d2565b91506102e08261029f565b600382019050919050565b60006102f6826102c8565b9150819050919050565b7f4254430000000000000000000000000000000000000000000000000000000000600082015250565b60006103366003836101d2565b915061034182610300565b600382019050919050565b600061035782610329565b9150819050919050565b6104d9806103706000396000f3fe608060405234801561001057600080fd5b506004361061002b5760003560e01c8063f66a1b7114610030575b600080fd5b61004a6004803603810190610045919061027f565b610060565b60405161005791906102e1565b60405180910390f35b600080600083604051610073919061036d565b908152602001604051809103902060009054906101000a900473ffffffffffffffffffffffffffffffffffffffff16905060008173ffffffffffffffffffffffffffffffffffffffff1663feaf968c6040518163ffffffff1660e01b815260040160a060405180830381865afa1580156100f1573d6000803e3d6000fd5b505050506040513d601f19601f820116820180604052508101906101159190610428565b5050509150508092505050919050565b6000604051905090565b600080fd5b600080fd5b600080fd5b600080fd5b6000601f19601f8301169050919050565b7f4e487b7100000000000000000000000000000000000000000000000000000000600052604160045260246000fd5b61018c82610143565b810181811067ffffffffffffffff821117156101ab576101aa610154565b5b80604052505050565b60006101be610125565b90506101ca8282610183565b919050565b600067ffffffffffffffff8211156101ea576101e9610154565b5b6101f382610143565b9050602081019050919050565b82818337600083830152505050565b600061022261021d846101cf565b6101b4565b90508281526020810184848401111561023e5761023d61013e565b5b610249848285610200565b509392505050565b600082601f83011261026657610265610139565b5b813561027684826020860161020f565b91505092915050565b6000602082840312156102955761029461012f565b5b600082013567ffffffffffffffff8111156102b3576102b2610134565b5b6102bf84828501610251565b91505092915050565b6000819050919050565b6102db816102c8565b82525050565b60006020820190506102f660008301846102d2565b92915050565b600081519050919050565b600081905092915050565b60005b83811015610330578082015181840152602081019050610315565b60008484015250505050565b6000610347826102fc565b6103518185610307565b9350610361818560208601610312565b80840191505092915050565b6000610379828461033c565b915081905092915050565b600069ffffffffffffffffffff82169050919050565b6103a381610384565b81146103ae57600080fd5b50565b6000815190506103c08161039a565b92915050565b6103cf816102c8565b81146103da57600080fd5b50565b6000815190506103ec816103c6565b92915050565b6000819050919050565b610405816103f2565b811461041057600080fd5b50565b600081519050610422816103fc565b92915050565b600080600080600060a086880312156104445761044361012f565b5b6000610452888289016103b1565b9550506020610463888289016103dd565b945050604061047488828901610413565b935050606061048588828901610413565b9250506080610496888289016103b1565b915050929550929590935056fea2646970667358221220ad3c2479c57137171c9ad795c026fd3f3bf3712aac9d193d2c722951724c49a164736f6c63430008120033",
  "immutableReferences": {},
  "source": "// SPDX-License-Identifier: MIT\npragma solidity ^0.8.18;\n\nimport \"@chainlink/contracts/src/v0.8/interfaces/AggregatorV3Interface.sol\";\n\ncontract Aggregator {\n    mapping(string => address) ERC20ToUSD;\n\n    /// @notice Establishes a map of tokens to USD from Chainlink Goerli ( https://docs.chain.link/data-feeds/price-feeds/addresses/?network=ethereum#Goerli%20Testnet )\n    /// @dev Only tokens that have a conversion to USD are present.\n    constructor() {\n        ERC20ToUSD['LINK'] = 0x48731cF7e84dc94C5f84577882c14Be11a5B7456;\n        ERC20ToUSD['ETH']  = 0xD4a33860578De61DBAbDc8BFdb98FD742fA7028e;\n        ERC20ToUSD['DAI']  = 0x0d79df66BE487753B02D015Fb622DED7f0E9798d;\n        ERC20ToUSD['BTC']  = 0xA39434A63A52E749F02807ae27335515BA4b07F7;\n    }\n\n    /// @notice Retrieve the actual price of a given token.\n    /// @param _symbol The symbol of the token.\n    /// @return The price in USD for the token.\n    function getLatestPrice(string memory _symbol) public view returns (int256) {\n        AggregatorV3Interface priceFeed = AggregatorV3Interface(ERC20ToUSD[_symbol]);\n        (\n            ,\n            /*uint80 roundID*/\n            int256 price, /*uint startedAt*/ /*uint timeStamp*/ /*uint80 answeredInRound*/\n            ,\n            ,\n\n        ) = priceFeed.latestRoundData();\n\n        return price;\n    }\n}",
  "sourcePath": "/home/adm-linux/projet4/truffle/contracts/Aggregator.sol",
  "compiler": {
    "name": "solc",
    "version": "0.8.18+commit.87f61d96.Emscripten.clang"
  },
  "schemaVersion": "3.4.14",
  "updatedAt": "2023-07-22T14:55:16.689Z",
  "devdoc": {
    "kind": "dev",
    "methods": {
      "constructor": {
        "details": "Only tokens that have a conversion to USD are present."
      },
      "getLatestPrice(string)": {
        "params": {
          "_symbol": "The symbol of the token."
        },
        "returns": {
          "_0": "The price in USD for the token."
        }
      }
    },
    "version": 1
  },
  "userdoc": {
    "kind": "user",
    "methods": {
      "constructor": {
        "notice": "Establishes a map of tokens to USD from Chainlink Goerli ( https://docs.chain.link/data-feeds/price-feeds/addresses/?network=ethereum#Goerli%20Testnet )"
      },
      "getLatestPrice(string)": {
        "notice": "Retrieve the actual price of a given token."
      }
    },
    "version": 1
  }
}