{
  "contractName": "Staking",
  "abi": [
    {
      "inputs": [
        {
          "internalType": "contract IERC20",
          "name": "_rewardToken",
          "type": "address"
        },
        {
          "internalType": "address",
          "name": "_vaultAddress",
          "type": "address"
        }
      ],
      "stateMutability": "nonpayable",
      "type": "constructor"
    },
    {
      "anonymous": false,
      "inputs": [
        {
          "indexed": false,
          "internalType": "address",
          "name": "receiver",
          "type": "address"
        },
        {
          "indexed": false,
          "internalType": "address",
          "name": "tokenAddress",
          "type": "address"
        },
        {
          "indexed": false,
          "internalType": "uint256",
          "name": "rewardClaimedAmount",
          "type": "uint256"
        }
      ],
      "name": "Claimed",
      "type": "event"
    },
    {
      "anonymous": false,
      "inputs": [
        {
          "indexed": false,
          "internalType": "uint256",
          "name": "amount",
          "type": "uint256"
        },
        {
          "indexed": false,
          "internalType": "address",
          "name": "asset",
          "type": "address"
        },
        {
          "indexed": false,
          "internalType": "address",
          "name": "user",
          "type": "address"
        }
      ],
      "name": "Deposited",
      "type": "event"
    },
    {
      "anonymous": false,
      "inputs": [
        {
          "indexed": true,
          "internalType": "address",
          "name": "previousOwner",
          "type": "address"
        },
        {
          "indexed": true,
          "internalType": "address",
          "name": "newOwner",
          "type": "address"
        }
      ],
      "name": "OwnershipTransferred",
      "type": "event"
    },
    {
      "anonymous": false,
      "inputs": [
        {
          "indexed": false,
          "internalType": "address",
          "name": "tokenAddress",
          "type": "address"
        },
        {
          "indexed": false,
          "internalType": "bool",
          "name": "pausedStatus",
          "type": "bool"
        }
      ],
      "name": "PausedPoolStatus",
      "type": "event"
    },
    {
      "anonymous": false,
      "inputs": [
        {
          "indexed": false,
          "internalType": "address",
          "name": "tokenAddress",
          "type": "address"
        },
        {
          "indexed": false,
          "internalType": "uint256",
          "name": "apr",
          "type": "uint256"
        },
        {
          "indexed": false,
          "internalType": "uint256",
          "name": "fees",
          "type": "uint256"
        },
        {
          "indexed": false,
          "internalType": "uint256",
          "name": "minimumClaim",
          "type": "uint256"
        },
        {
          "indexed": false,
          "internalType": "string",
          "name": "symbol",
          "type": "string"
        }
      ],
      "name": "PoolCreated",
      "type": "event"
    },
    {
      "anonymous": false,
      "inputs": [
        {
          "indexed": false,
          "internalType": "address",
          "name": "receiver",
          "type": "address"
        },
        {
          "indexed": false,
          "internalType": "address",
          "name": "tokenAddress",
          "type": "address"
        },
        {
          "indexed": false,
          "internalType": "uint256",
          "name": "amountWithdraw",
          "type": "uint256"
        }
      ],
      "name": "Withdrawn",
      "type": "event"
    },
    {
      "inputs": [],
      "name": "owner",
      "outputs": [
        {
          "internalType": "address",
          "name": "",
          "type": "address"
        }
      ],
      "stateMutability": "view",
      "type": "function",
      "constant": true
    },
    {
      "inputs": [
        {
          "internalType": "address",
          "name": "",
          "type": "address"
        }
      ],
      "name": "poolData",
      "outputs": [
        {
          "internalType": "bool",
          "name": "isCreated",
          "type": "bool"
        },
        {
          "internalType": "uint256",
          "name": "apr",
          "type": "uint256"
        },
        {
          "internalType": "uint256",
          "name": "fees",
          "type": "uint256"
        },
        {
          "internalType": "uint256",
          "name": "minimumClaim",
          "type": "uint256"
        },
        {
          "internalType": "uint256",
          "name": "totalValueLocked",
          "type": "uint256"
        },
        {
          "internalType": "string",
          "name": "symbol",
          "type": "string"
        },
        {
          "internalType": "bool",
          "name": "paused",
          "type": "bool"
        }
      ],
      "stateMutability": "view",
      "type": "function",
      "constant": true
    },
    {
      "inputs": [],
      "name": "renounceOwnership",
      "outputs": [],
      "stateMutability": "nonpayable",
      "type": "function"
    },
    {
      "inputs": [
        {
          "internalType": "address",
          "name": "newOwner",
          "type": "address"
        }
      ],
      "name": "transferOwnership",
      "outputs": [],
      "stateMutability": "nonpayable",
      "type": "function"
    },
    {
      "inputs": [
        {
          "internalType": "address",
          "name": "",
          "type": "address"
        },
        {
          "internalType": "address",
          "name": "",
          "type": "address"
        }
      ],
      "name": "userInfo",
      "outputs": [
        {
          "internalType": "uint256",
          "name": "stakedAmount",
          "type": "uint256"
        },
        {
          "internalType": "uint256",
          "name": "lastStakedTimestamp",
          "type": "uint256"
        },
        {
          "internalType": "uint256",
          "name": "reward",
          "type": "uint256"
        }
      ],
      "stateMutability": "view",
      "type": "function",
      "constant": true
    },
    {
      "inputs": [],
      "name": "unlockVault",
      "outputs": [],
      "stateMutability": "nonpayable",
      "type": "function"
    },
    {
      "inputs": [
        {
          "internalType": "address",
          "name": "_address",
          "type": "address"
        }
      ],
      "name": "transferVaultOwner",
      "outputs": [],
      "stateMutability": "nonpayable",
      "type": "function"
    },
    {
      "inputs": [],
      "name": "lockVault",
      "outputs": [],
      "stateMutability": "nonpayable",
      "type": "function"
    },
    {
      "inputs": [
        {
          "internalType": "address",
          "name": "_tokenAddress",
          "type": "address"
        },
        {
          "internalType": "uint256",
          "name": "_amount",
          "type": "uint256"
        }
      ],
      "name": "withdrawFromVault",
      "outputs": [],
      "stateMutability": "nonpayable",
      "type": "function"
    },
    {
      "inputs": [
        {
          "internalType": "address",
          "name": "_tokenAddress",
          "type": "address"
        },
        {
          "internalType": "uint256",
          "name": "_amount",
          "type": "uint256"
        }
      ],
      "name": "sendBackToVault",
      "outputs": [],
      "stateMutability": "nonpayable",
      "type": "function"
    },
    {
      "inputs": [],
      "name": "getMyVault",
      "outputs": [
        {
          "internalType": "address",
          "name": "",
          "type": "address"
        }
      ],
      "stateMutability": "view",
      "type": "function",
      "constant": true
    },
    {
      "inputs": [
        {
          "internalType": "address",
          "name": "_tokenAddress",
          "type": "address"
        },
        {
          "internalType": "uint256",
          "name": "_apr",
          "type": "uint256"
        },
        {
          "internalType": "uint256",
          "name": "_fees",
          "type": "uint256"
        },
        {
          "internalType": "uint256",
          "name": "_minimumClaim",
          "type": "uint256"
        },
        {
          "internalType": "string",
          "name": "_symbol",
          "type": "string"
        }
      ],
      "name": "createLiquidityPool",
      "outputs": [],
      "stateMutability": "nonpayable",
      "type": "function"
    },
    {
      "inputs": [
        {
          "internalType": "address",
          "name": "_tokenAddress",
          "type": "address"
        },
        {
          "internalType": "uint256",
          "name": "_amount",
          "type": "uint256"
        }
      ],
      "name": "approveEVCT",
      "outputs": [],
      "stateMutability": "nonpayable",
      "type": "function"
    },
    {
      "inputs": [
        {
          "internalType": "address",
          "name": "_tokenAddress",
          "type": "address"
        },
        {
          "internalType": "bool",
          "name": "_value",
          "type": "bool"
        }
      ],
      "name": "setPoolPaused",
      "outputs": [],
      "stateMutability": "nonpayable",
      "type": "function"
    },
    {
      "inputs": [
        {
          "internalType": "uint256",
          "name": "_amount",
          "type": "uint256"
        },
        {
          "internalType": "address",
          "name": "_tokenAddress",
          "type": "address"
        }
      ],
      "name": "deposit",
      "outputs": [],
      "stateMutability": "nonpayable",
      "type": "function"
    },
    {
      "inputs": [
        {
          "internalType": "address",
          "name": "_tokenAddress",
          "type": "address"
        },
        {
          "internalType": "uint256",
          "name": "_amount",
          "type": "uint256"
        }
      ],
      "name": "withdraw",
      "outputs": [],
      "stateMutability": "nonpayable",
      "type": "function"
    },
    {
      "inputs": [
        {
          "internalType": "address",
          "name": "_tokenAddress",
          "type": "address"
        },
        {
          "internalType": "address",
          "name": "_user",
          "type": "address"
        }
      ],
      "name": "calculateReward",
      "outputs": [
        {
          "internalType": "uint256",
          "name": "",
          "type": "uint256"
        }
      ],
      "stateMutability": "view",
      "type": "function",
      "constant": true
    },
    {
      "inputs": [
        {
          "internalType": "address",
          "name": "_tokenAddress",
          "type": "address"
        }
      ],
      "name": "claimReward",
      "outputs": [],
      "stateMutability": "nonpayable",
      "type": "function"
    },
    {
      "inputs": [
        {
          "internalType": "address",
          "name": "_tokenAddress",
          "type": "address"
        },
        {
          "internalType": "address",
          "name": "_userAddress",
          "type": "address"
        }
      ],
      "name": "getUserInfo",
      "outputs": [
        {
          "components": [
            {
              "internalType": "uint256",
              "name": "stakedAmount",
              "type": "uint256"
            },
            {
              "internalType": "uint256",
              "name": "lastStakedTimestamp",
              "type": "uint256"
            },
            {
              "internalType": "uint256",
              "name": "reward",
              "type": "uint256"
            }
          ],
          "internalType": "struct Staking.UserInfo",
          "name": "",
          "type": "tuple"
        }
      ],
      "stateMutability": "view",
      "type": "function",
      "constant": true
    },
    {
      "inputs": [
        {
          "internalType": "address",
          "name": "_tokenAddress",
          "type": "address"
        }
      ],
      "name": "getPoolData",
      "outputs": [
        {
          "components": [
            {
              "internalType": "bool",
              "name": "isCreated",
              "type": "bool"
            },
            {
              "internalType": "uint256",
              "name": "apr",
              "type": "uint256"
            },
            {
              "internalType": "uint256",
              "name": "fees",
              "type": "uint256"
            },
            {
              "internalType": "uint256",
              "name": "minimumClaim",
              "type": "uint256"
            },
            {
              "internalType": "uint256",
              "name": "totalValueLocked",
              "type": "uint256"
            },
            {
              "internalType": "string",
              "name": "symbol",
              "type": "string"
            },
            {
              "internalType": "bool",
              "name": "paused",
              "type": "bool"
            }
          ],
          "internalType": "struct Staking.PoolData",
          "name": "",
          "type": "tuple"
        }
      ],
      "stateMutability": "view",
      "type": "function",
      "constant": true
    }
  ],
  "bytecode": "0x60a0604052670de0b6b3a76400006003553480156200001d57600080fd5b5060405162002f1538038062002f1583398181016040528101906200004391906200029c565b62000063620000576200012160201b60201c565b6200012960201b60201c565b81600160006101000a81548173ffffffffffffffffffffffffffffffffffffffff021916908373ffffffffffffffffffffffffffffffffffffffff16021790555080600260006101000a81548173ffffffffffffffffffffffffffffffffffffffff021916908373ffffffffffffffffffffffffffffffffffffffff1602179055508073ffffffffffffffffffffffffffffffffffffffff1660808173ffffffffffffffffffffffffffffffffffffffff16815250505050620002e3565b600033905090565b60008060009054906101000a900473ffffffffffffffffffffffffffffffffffffffff169050816000806101000a81548173ffffffffffffffffffffffffffffffffffffffff021916908373ffffffffffffffffffffffffffffffffffffffff1602179055508173ffffffffffffffffffffffffffffffffffffffff168173ffffffffffffffffffffffffffffffffffffffff167f8be0079c531659141344cd1fd0a4f28419497f9722a3daafe3b4186f6b6457e060405160405180910390a35050565b600080fd5b600073ffffffffffffffffffffffffffffffffffffffff82169050919050565b60006200021f82620001f2565b9050919050565b6000620002338262000212565b9050919050565b620002458162000226565b81146200025157600080fd5b50565b60008151905062000265816200023a565b92915050565b620002768162000212565b81146200028257600080fd5b50565b60008151905062000296816200026b565b92915050565b60008060408385031215620002b657620002b5620001ed565b5b6000620002c68582860162000254565b9250506020620002d98582860162000285565b9150509250929050565b608051612c0f6200030660003960008181610f2b01526114db0152612c0f6000f3fe608060405234801561001057600080fd5b506004361061012c5760003560e01c80636f8206ba116100ad578063d279c19111610071578063d279c191146102fb578063ee49a41b14610317578063f2801fe714610333578063f2fde38b14610363578063f3fef3a31461037f5761012c565b80636f8206ba14610269578063715018a6146102875780637ca44fcf146102915780638da5cb5b146102c1578063b900de11146102df5761012c565b806329ef057e116100f457806329ef057e1461020157806348bdd1981461021d57806362f69039146102275780636e553f65146102315780636e783b981461024d5761012c565b80630f208beb14610131578063136efb7a1461016357806313d21cdf146101995780631ce37e55146101c957806321116f4e146101e5575b600080fd5b61014b60048036038101906101469190611bf5565b61039b565b60405161015a93929190611c4e565b60405180910390f35b61017d60048036038101906101789190611c85565b6103d2565b6040516101909796959493929190611d5d565b60405180910390f35b6101b360048036038101906101ae9190611c85565b6104b6565b6040516101c09190611ed7565b60405180910390f35b6101e360048036038101906101de9190611f25565b6105ff565b005b6101ff60048036038101906101fa9190611f25565b6106c5565b005b61021b60048036038101906102169190611fca565b610760565b005b610225610a1e565b005b61022f610aaa565b005b61024b60048036038101906102469190612064565b610b36565b005b61026760048036038101906102629190611c85565b610e87565b005b610271610f1f565b60405161027e91906120b3565b60405180910390f35b61028f610f4f565b005b6102ab60048036038101906102a69190611bf5565b610f63565b6040516102b891906120ce565b60405180910390f35b6102c96110cb565b6040516102d691906120b3565b60405180910390f35b6102f960048036038101906102f49190612115565b6110f4565b005b61031560048036038101906103109190611c85565b611222565b005b610331600480360381019061032c9190611f25565b6114b5565b005b61034d60048036038101906103489190611bf5565b611560565b60405161035a9190612197565b60405180910390f35b61037d60048036038101906103789190611c85565b611615565b005b61039960048036038101906103949190611f25565b611698565b005b6005602052816000526040600020602052806000526040600020600091509150508060000154908060010154908060020154905083565b60046020528060005260406000206000915090508060000160009054906101000a900460ff1690806001015490806002015490806003015490806004015490806005018054610420906121e1565b80601f016020809104026020016040519081016040528092919081815260200182805461044c906121e1565b80156104995780601f1061046e57610100808354040283529160200191610499565b820191906000526020600020905b81548152906001019060200180831161047c57829003601f168201915b5050505050908060060160009054906101000a900460ff16905087565b6104be611b2b565b600460008373ffffffffffffffffffffffffffffffffffffffff1673ffffffffffffffffffffffffffffffffffffffff1681526020019081526020016000206040518060e00160405290816000820160009054906101000a900460ff161515151581526020016001820154815260200160028201548152602001600382015481526020016004820154815260200160058201805461055b906121e1565b80601f0160208091040260200160405190810160405280929190818152602001828054610587906121e1565b80156105d45780601f106105a9576101008083540402835291602001916105d4565b820191906000526020600020905b8154815290600101906020018083116105b757829003601f168201915b505050505081526020016006820160009054906101000a900460ff1615151515815250509050919050565b60008111610642576040517f08c379a00000000000000000000000000000000000000000000000000000000081526004016106399061225e565b60405180910390fd5b8173ffffffffffffffffffffffffffffffffffffffff1663095ea7b330836040518363ffffffff1660e01b815260040161067d92919061227e565b6020604051808303816000875af115801561069c573d6000803e3d6000fd5b505050506040513d601f19601f820116820180604052508101906106c091906122bc565b505050565b6106cd6119e1565b600260009054906101000a900473ffffffffffffffffffffffffffffffffffffffff1673ffffffffffffffffffffffffffffffffffffffff16639e281a9883836040518363ffffffff1660e01b815260040161072a92919061227e565b600060405180830381600087803b15801561074457600080fd5b505af1158015610758573d6000803e3d6000fd5b505050505050565b6107686119e1565b600460008773ffffffffffffffffffffffffffffffffffffffff1673ffffffffffffffffffffffffffffffffffffffff16815260200190815260200160002060000160009054906101000a900460ff16156107f8576040517f08c379a00000000000000000000000000000000000000000000000000000000081526004016107ef90612335565b60405180910390fd5b84600460008873ffffffffffffffffffffffffffffffffffffffff1673ffffffffffffffffffffffffffffffffffffffff1681526020019081526020016000206001018190555083600460008873ffffffffffffffffffffffffffffffffffffffff1673ffffffffffffffffffffffffffffffffffffffff1681526020019081526020016000206002018190555082600460008873ffffffffffffffffffffffffffffffffffffffff1673ffffffffffffffffffffffffffffffffffffffff168152602001908152602001600020600301819055506001600460008873ffffffffffffffffffffffffffffffffffffffff1673ffffffffffffffffffffffffffffffffffffffff16815260200190815260200160002060000160006101000a81548160ff0219169083151502179055508181600460008973ffffffffffffffffffffffffffffffffffffffff1673ffffffffffffffffffffffffffffffffffffffff168152602001908152602001600020600501918261097992919061253b565b506001600460008873ffffffffffffffffffffffffffffffffffffffff1673ffffffffffffffffffffffffffffffffffffffff16815260200190815260200160002060060160006101000a81548160ff0219169083151502179055507f62f0fa5319f02e8e89cdeab38db26e37da05500b9983908431721bb06942fad5868686868686604051610a0e96959493929190612647565b60405180910390a1505050505050565b610a266119e1565b600260009054906101000a900473ffffffffffffffffffffffffffffffffffffffff1673ffffffffffffffffffffffffffffffffffffffff1663f83d08ba6040518163ffffffff1660e01b8152600401600060405180830381600087803b158015610a9057600080fd5b505af1158015610aa4573d6000803e3d6000fd5b50505050565b610ab26119e1565b600260009054906101000a900473ffffffffffffffffffffffffffffffffffffffff1673ffffffffffffffffffffffffffffffffffffffff1663a69df4b56040518163ffffffff1660e01b8152600401600060405180830381600087803b158015610b1c57600080fd5b505af1158015610b30573d6000803e3d6000fd5b50505050565b60008211610b79576040517f08c379a0000000000000000000000000000000000000000000000000000000008152600401610b709061225e565b60405180910390fd5b8073ffffffffffffffffffffffffffffffffffffffff166323b872dd3330856040518463ffffffff1660e01b8152600401610bb6939291906126a3565b6020604051808303816000875af1158015610bd5573d6000803e3d6000fd5b505050506040513d601f19601f82011682018060405250810190610bf991906122bc565b506000600460008373ffffffffffffffffffffffffffffffffffffffff1673ffffffffffffffffffffffffffffffffffffffff16815260200190815260200160002090506000600560008473ffffffffffffffffffffffffffffffffffffffff1673ffffffffffffffffffffffffffffffffffffffff16815260200190815260200160002060003373ffffffffffffffffffffffffffffffffffffffff1673ffffffffffffffffffffffffffffffffffffffff1681526020019081526020016000209050600015158260060160009054906101000a900460ff16151514610d15576040517f08c379a0000000000000000000000000000000000000000000000000000000008152600401610d0c90612726565b60405180910390fd5b600081600001541115610e03576000600354610d318533610f63565b610d3b91906127a4565b90506000811115610e01578373ffffffffffffffffffffffffffffffffffffffff1663a9059cbb33836040518363ffffffff1660e01b8152600401610d8192919061227e565b6020604051808303816000875af1158015610da0573d6000803e3d6000fd5b505050506040513d601f19601f82011682018060405250810190610dc491906122bc565b507ff7a40077ff7a04c7e61f6f26fb13774259ddf1b6bce9ecf26a8276cdd3992683338583604051610df8939291906126a3565b60405180910390a15b505b838160000154610e1391906127d5565b816000018190555042816001018190555060008160020181905550838260040154610e3e91906127d5565b82600401819055507f7896c404bfb9173f4c61824c5e10e743eb885c3fe1c1727ed55ac3a51a350874848433604051610e7993929190612809565b60405180910390a150505050565b610e8f6119e1565b600260009054906101000a900473ffffffffffffffffffffffffffffffffffffffff1673ffffffffffffffffffffffffffffffffffffffff1663f2fde38b826040518263ffffffff1660e01b8152600401610eea91906120b3565b600060405180830381600087803b158015610f0457600080fd5b505af1158015610f18573d6000803e3d6000fd5b5050505050565b6000610f296119e1565b7f0000000000000000000000000000000000000000000000000000000000000000905090565b610f576119e1565b610f616000611a5f565b565b600080600460008573ffffffffffffffffffffffffffffffffffffffff1673ffffffffffffffffffffffffffffffffffffffff16815260200190815260200160002090506000600560008673ffffffffffffffffffffffffffffffffffffffff1673ffffffffffffffffffffffffffffffffffffffff16815260200190815260200160002060008573ffffffffffffffffffffffffffffffffffffffff1673ffffffffffffffffffffffffffffffffffffffff168152602001908152602001600020905060008160010154426110399190612840565b90506000816301e1338060648660010154670de0b6b3a764000087600001546110629190612874565b61106c9190612874565b61107691906127a4565b61108091906127a4565b61108a9190612874565b9050600060648560020154836110a09190612874565b6110aa91906127a4565b9050600081836110ba9190612840565b905080965050505050505092915050565b60008060009054906101000a900473ffffffffffffffffffffffffffffffffffffffff16905090565b6110fc6119e1565b600460008373ffffffffffffffffffffffffffffffffffffffff1673ffffffffffffffffffffffffffffffffffffffff16815260200190815260200160002060000160009054906101000a900460ff1661118b576040517f08c379a000000000000000000000000000000000000000000000000000000000815260040161118290612902565b60405180910390fd5b80600460008473ffffffffffffffffffffffffffffffffffffffff1673ffffffffffffffffffffffffffffffffffffffff16815260200190815260200160002060060160006101000a81548160ff0219169083151502179055507f03cacf29ad584516fd75540da918ba0888befbfe14651c0c8b2f05840ae236cf8282604051611216929190612922565b60405180910390a15050565b6000600460008373ffffffffffffffffffffffffffffffffffffffff1673ffffffffffffffffffffffffffffffffffffffff16815260200190815260200160002090506000600560008473ffffffffffffffffffffffffffffffffffffffff1673ffffffffffffffffffffffffffffffffffffffff16815260200190815260200160002060003373ffffffffffffffffffffffffffffffffffffffff1673ffffffffffffffffffffffffffffffffffffffff1681526020019081526020016000209050600015158260060160009054906101000a900460ff1615151461133d576040517f08c379a000000000000000000000000000000000000000000000000000000000815260040161133490612726565b60405180910390fd5b600060035461134c8533610f63565b61135691906127a4565b90506000811161139b576040517f08c379a000000000000000000000000000000000000000000000000000000000815260040161139290612997565b60405180910390fd5b82600301548110156113e2576040517f08c379a00000000000000000000000000000000000000000000000000000000081526004016113d990612a29565b60405180910390fd5b428260010181905550600082600201819055508373ffffffffffffffffffffffffffffffffffffffff1663a9059cbb33836040518363ffffffff1660e01b815260040161143092919061227e565b6020604051808303816000875af115801561144f573d6000803e3d6000fd5b505050506040513d601f19601f8201168201806040525081019061147391906122bc565b507ff7a40077ff7a04c7e61f6f26fb13774259ddf1b6bce9ecf26a8276cdd39926833385836040516114a7939291906126a3565b60405180910390a150505050565b6114bd6119e1565b8173ffffffffffffffffffffffffffffffffffffffff1663a9059cbb7f0000000000000000000000000000000000000000000000000000000000000000836040518363ffffffff1660e01b815260040161151892919061227e565b6020604051808303816000875af1158015611537573d6000803e3d6000fd5b505050506040513d601f19601f8201168201806040525081019061155b91906122bc565b505050565b611568611b6c565b600560008473ffffffffffffffffffffffffffffffffffffffff1673ffffffffffffffffffffffffffffffffffffffff16815260200190815260200160002060008373ffffffffffffffffffffffffffffffffffffffff1673ffffffffffffffffffffffffffffffffffffffff1681526020019081526020016000206040518060600160405290816000820154815260200160018201548152602001600282015481525050905092915050565b61161d6119e1565b600073ffffffffffffffffffffffffffffffffffffffff168173ffffffffffffffffffffffffffffffffffffffff160361168c576040517f08c379a000000000000000000000000000000000000000000000000000000000815260040161168390612abb565b60405180910390fd5b61169581611a5f565b50565b6000600460008473ffffffffffffffffffffffffffffffffffffffff1673ffffffffffffffffffffffffffffffffffffffff16815260200190815260200160002090506000600560008573ffffffffffffffffffffffffffffffffffffffff1673ffffffffffffffffffffffffffffffffffffffff16815260200190815260200160002060003373ffffffffffffffffffffffffffffffffffffffff1673ffffffffffffffffffffffffffffffffffffffff1681526020019081526020016000209050600015158260060160009054906101000a900460ff161515146117b3576040517f08c379a00000000000000000000000000000000000000000000000000000000081526004016117aa90612726565b60405180910390fd5b80600001548311156117fa576040517f08c379a00000000000000000000000000000000000000000000000000000000081526004016117f190612b4d565b60405180910390fd5b6000816000015411156118e85760006003546118168633610f63565b61182091906127a4565b905060008111156118e6578473ffffffffffffffffffffffffffffffffffffffff1663a9059cbb33836040518363ffffffff1660e01b815260040161186692919061227e565b6020604051808303816000875af1158015611885573d6000803e3d6000fd5b505050506040513d601f19601f820116820180604052508101906118a991906122bc565b507ff7a40077ff7a04c7e61f6f26fb13774259ddf1b6bce9ecf26a8276cdd39926833386836040516118dd939291906126a3565b60405180910390a15b505b8281600001546118f89190612840565b81600001819055504281600101819055508282600401546119199190612840565b82600401819055508373ffffffffffffffffffffffffffffffffffffffff1663a9059cbb33856040518363ffffffff1660e01b815260040161195c92919061227e565b6020604051808303816000875af115801561197b573d6000803e3d6000fd5b505050506040513d601f19601f8201168201806040525081019061199f91906122bc565b507fd1c19fbcd4551a5edfb66d43d2e337c04837afda3482b42bdf569a8fccdae5fb3385856040516119d3939291906126a3565b60405180910390a150505050565b6119e9611b23565b73ffffffffffffffffffffffffffffffffffffffff16611a076110cb565b73ffffffffffffffffffffffffffffffffffffffff1614611a5d576040517f08c379a0000000000000000000000000000000000000000000000000000000008152600401611a5490612bb9565b60405180910390fd5b565b60008060009054906101000a900473ffffffffffffffffffffffffffffffffffffffff169050816000806101000a81548173ffffffffffffffffffffffffffffffffffffffff021916908373ffffffffffffffffffffffffffffffffffffffff1602179055508173ffffffffffffffffffffffffffffffffffffffff168173ffffffffffffffffffffffffffffffffffffffff167f8be0079c531659141344cd1fd0a4f28419497f9722a3daafe3b4186f6b6457e060405160405180910390a35050565b600033905090565b6040518060e0016040528060001515815260200160008152602001600081526020016000815260200160008152602001606081526020016000151581525090565b60405180606001604052806000815260200160008152602001600081525090565b600080fd5b600080fd5b600073ffffffffffffffffffffffffffffffffffffffff82169050919050565b6000611bc282611b97565b9050919050565b611bd281611bb7565b8114611bdd57600080fd5b50565b600081359050611bef81611bc9565b92915050565b60008060408385031215611c0c57611c0b611b8d565b5b6000611c1a85828601611be0565b9250506020611c2b85828601611be0565b9150509250929050565b6000819050919050565b611c4881611c35565b82525050565b6000606082019050611c636000830186611c3f565b611c706020830185611c3f565b611c7d6040830184611c3f565b949350505050565b600060208284031215611c9b57611c9a611b8d565b5b6000611ca984828501611be0565b91505092915050565b60008115159050919050565b611cc781611cb2565b82525050565b600081519050919050565b600082825260208201905092915050565b60005b83811015611d07578082015181840152602081019050611cec565b60008484015250505050565b6000601f19601f8301169050919050565b6000611d2f82611ccd565b611d398185611cd8565b9350611d49818560208601611ce9565b611d5281611d13565b840191505092915050565b600060e082019050611d72600083018a611cbe565b611d7f6020830189611c3f565b611d8c6040830188611c3f565b611d996060830187611c3f565b611da66080830186611c3f565b81810360a0830152611db88185611d24565b9050611dc760c0830184611cbe565b98975050505050505050565b611ddc81611cb2565b82525050565b611deb81611c35565b82525050565b600082825260208201905092915050565b6000611e0d82611ccd565b611e178185611df1565b9350611e27818560208601611ce9565b611e3081611d13565b840191505092915050565b600060e083016000830151611e536000860182611dd3565b506020830151611e666020860182611de2565b506040830151611e796040860182611de2565b506060830151611e8c6060860182611de2565b506080830151611e9f6080860182611de2565b5060a083015184820360a0860152611eb78282611e02565b91505060c0830151611ecc60c0860182611dd3565b508091505092915050565b60006020820190508181036000830152611ef18184611e3b565b905092915050565b611f0281611c35565b8114611f0d57600080fd5b50565b600081359050611f1f81611ef9565b92915050565b60008060408385031215611f3c57611f3b611b8d565b5b6000611f4a85828601611be0565b9250506020611f5b85828601611f10565b9150509250929050565b600080fd5b600080fd5b600080fd5b60008083601f840112611f8a57611f89611f65565b5b8235905067ffffffffffffffff811115611fa757611fa6611f6a565b5b602083019150836001820283011115611fc357611fc2611f6f565b5b9250929050565b60008060008060008060a08789031215611fe757611fe6611b8d565b5b6000611ff589828a01611be0565b965050602061200689828a01611f10565b955050604061201789828a01611f10565b945050606061202889828a01611f10565b935050608087013567ffffffffffffffff81111561204957612048611b92565b5b61205589828a01611f74565b92509250509295509295509295565b6000806040838503121561207b5761207a611b8d565b5b600061208985828601611f10565b925050602061209a85828601611be0565b9150509250929050565b6120ad81611bb7565b82525050565b60006020820190506120c860008301846120a4565b92915050565b60006020820190506120e36000830184611c3f565b92915050565b6120f281611cb2565b81146120fd57600080fd5b50565b60008135905061210f816120e9565b92915050565b6000806040838503121561212c5761212b611b8d565b5b600061213a85828601611be0565b925050602061214b85828601612100565b9150509250929050565b60608201600082015161216b6000850182611de2565b50602082015161217e6020850182611de2565b5060408201516121916040850182611de2565b50505050565b60006060820190506121ac6000830184612155565b92915050565b7f4e487b7100000000000000000000000000000000000000000000000000000000600052602260045260246000fd5b600060028204905060018216806121f957607f821691505b60208210810361220c5761220b6121b2565b5b50919050565b7f416d6f756e74206d757374206265206f766572207a65726f0000000000000000600082015250565b6000612248601883611cd8565b915061225382612212565b602082019050919050565b600060208201905081810360008301526122778161223b565b9050919050565b600060408201905061229360008301856120a4565b6122a06020830184611c3f565b9392505050565b6000815190506122b6816120e9565b92915050565b6000602082840312156122d2576122d1611b8d565b5b60006122e0848285016122a7565b91505092915050565b7f5468697320706f6f6c20697320616c7265616479206372656174656400000000600082015250565b600061231f601c83611cd8565b915061232a826122e9565b602082019050919050565b6000602082019050818103600083015261234e81612312565b9050919050565b600082905092915050565b7f4e487b7100000000000000000000000000000000000000000000000000000000600052604160045260246000fd5b60008190508160005260206000209050919050565b60006020601f8301049050919050565b600082821b905092915050565b6000600883026123f17fffffffffffffffffffffffffffffffffffffffffffffffffffffffffffffffff826123b4565b6123fb86836123b4565b95508019841693508086168417925050509392505050565b6000819050919050565b600061243861243361242e84611c35565b612413565b611c35565b9050919050565b6000819050919050565b6124528361241d565b61246661245e8261243f565b8484546123c1565b825550505050565b600090565b61247b61246e565b612486818484612449565b505050565b5b818110156124aa5761249f600082612473565b60018101905061248c565b5050565b601f8211156124ef576124c08161238f565b6124c9846123a4565b810160208510156124d8578190505b6124ec6124e4856123a4565b83018261248b565b50505b505050565b600082821c905092915050565b6000612512600019846008026124f4565b1980831691505092915050565b600061252b8383612501565b9150826002028217905092915050565b6125458383612355565b67ffffffffffffffff81111561255e5761255d612360565b5b61256882546121e1565b6125738282856124ae565b6000601f8311600181146125a25760008415612590578287013590505b61259a858261251f565b865550612602565b601f1984166125b08661238f565b60005b828110156125d8578489013582556001820191506020850194506020810190506125b3565b868310156125f557848901356125f1601f891682612501565b8355505b6001600288020188555050505b50505050505050565b82818337600083830152505050565b60006126268385611cd8565b935061263383858461260b565b61263c83611d13565b840190509392505050565b600060a08201905061265c60008301896120a4565b6126696020830188611c3f565b6126766040830187611c3f565b6126836060830186611c3f565b818103608083015261269681848661261a565b9050979650505050505050565b60006060820190506126b860008301866120a4565b6126c560208301856120a4565b6126d26040830184611c3f565b949350505050565b7f506f6f6c206d75737420626520756e7061757365640000000000000000000000600082015250565b6000612710601583611cd8565b915061271b826126da565b602082019050919050565b6000602082019050818103600083015261273f81612703565b9050919050565b7f4e487b7100000000000000000000000000000000000000000000000000000000600052601260045260246000fd5b7f4e487b7100000000000000000000000000000000000000000000000000000000600052601160045260246000fd5b60006127af82611c35565b91506127ba83611c35565b9250826127ca576127c9612746565b5b828204905092915050565b60006127e082611c35565b91506127eb83611c35565b925082820190508082111561280357612802612775565b5b92915050565b600060608201905061281e6000830186611c3f565b61282b60208301856120a4565b61283860408301846120a4565b949350505050565b600061284b82611c35565b915061285683611c35565b925082820390508181111561286e5761286d612775565b5b92915050565b600061287f82611c35565b915061288a83611c35565b925082820261289881611c35565b915082820484148315176128af576128ae612775565b5b5092915050565b7f5468697320706f6f6c206973206e6f7420637265617465640000000000000000600082015250565b60006128ec601883611cd8565b91506128f7826128b6565b602082019050919050565b6000602082019050818103600083015261291b816128df565b9050919050565b600060408201905061293760008301856120a4565b6129446020830184611cbe565b9392505050565b7f4e6f2072657761726420746f20636c61696d0000000000000000000000000000600082015250565b6000612981601283611cd8565b915061298c8261294b565b602082019050919050565b600060208201905081810360008301526129b081612974565b9050919050565b7f4e6f7420656e6f756768206d696e696d756d207265776172647320746f20636c60008201527f61696d0000000000000000000000000000000000000000000000000000000000602082015250565b6000612a13602383611cd8565b9150612a1e826129b7565b604082019050919050565b60006020820190508181036000830152612a4281612a06565b9050919050565b7f4f776e61626c653a206e6577206f776e657220697320746865207a65726f206160008201527f6464726573730000000000000000000000000000000000000000000000000000602082015250565b6000612aa5602683611cd8565b9150612ab082612a49565b604082019050919050565b60006020820190508181036000830152612ad481612a98565b9050919050565b7f54686520616d6f756e74206973206f76657220796f75722062616c616e63652060008201527f696e207468697320706f6f6c0000000000000000000000000000000000000000602082015250565b6000612b37602c83611cd8565b9150612b4282612adb565b604082019050919050565b60006020820190508181036000830152612b6681612b2a565b9050919050565b7f4f776e61626c653a2063616c6c6572206973206e6f7420746865206f776e6572600082015250565b6000612ba3602083611cd8565b9150612bae82612b6d565b602082019050919050565b60006020820190508181036000830152612bd281612b96565b905091905056fea264697066735822122080e9ccb9fbce50bd2de63f093bdfd299e12a020e240fac0e60facc762f400c1664736f6c63430008120033",
  "immutableReferences": {
    "1056": [
      {
        "length": 32,
        "start": 3883
      },
      {
        "length": 32,
        "start": 5339
      }
    ]
  },
  "source": "// SPDX-License-Identifier: MIT\npragma solidity ^0.8.18;\n\nimport \"@openzeppelin/contracts/access/Ownable.sol\";\nimport \"@openzeppelin/contracts/token/ERC20/IERC20.sol\";\nimport \"@openzeppelin/contracts/token/ERC20/utils/SafeERC20.sol\";\nimport \"@chainlink/contracts/src/v0.8/interfaces/AggregatorV3Interface.sol\";\n\nimport \"./IVaultStaking.sol\";\n\ncontract Staking is Ownable {\n\n    //using SafeERC20 for IERC20; //https://docs.openzeppelin.com/contracts/4.x/api/token/erc20#SafeERC20\n\n    IERC20 private rewardToken;\n    IVaultStaking private myVault;\n    address private immutable vaultAddress;\n\n    constructor (IERC20 _rewardToken, address _vaultAddress) {\n        rewardToken = _rewardToken;\n        myVault = IVaultStaking(_vaultAddress);\n        vaultAddress = _vaultAddress;\n    }\n\n    function unlockVault() external onlyOwner {\n        myVault.unlock();\n    }\n\n    function transferVaultOwner(address _address) external onlyOwner {\n        myVault.transferOwnership(_address);\n    }\n\n   function lockVault() external onlyOwner {\n        myVault.lock();\n    }\n\n    function withdrawFromVault(address _tokenAddress, uint256 _amount) external onlyOwner {\n        myVault.withdrawToken(_tokenAddress, _amount);\n    }\n\n    function sendBackToVault(address _tokenAddress, uint256 _amount) external onlyOwner {\n        IERC20(_tokenAddress).transfer(vaultAddress, _amount);\n    }\n\n    function getMyVault() external onlyOwner view returns(address) {\n        return(vaultAddress);\n    }\n\n    // decimal defnit pour le calcul des rewards\n    uint256 rewardDecimal = 1e18; // for testing 1e15 vs production 1e18\n\n    struct UserInfo {\n        uint256 stakedAmount; \n        uint256 lastStakedTimestamp;\n        uint256 reward;\n    }\n\n    struct PoolData {\n        bool isCreated;\n        uint256 apr;\n        uint256 fees;\n        uint256 minimumClaim;\n        uint256 totalValueLocked;\n        string symbol;\n        bool paused;\n        //address oracleAggregatorAddress;\n    }\n\n    // Map token adress\n    mapping(address => PoolData) public poolData;\n    // Map token adress then user address\n    mapping (address => mapping (address => UserInfo)) public userInfo;\n    \n    event PoolCreated (address tokenAddress, uint256 apr, uint256 fees, uint256 minimumClaim, string symbol);\n    event Deposited(uint256 amount, address asset, address user);\n    event Withdrawn (address receiver, address tokenAddress, uint256 amountWithdraw);\n    event Claimed (address receiver, address tokenAddress, uint rewardClaimedAmount);\n    event PausedPoolStatus (address tokenAddress, bool pausedStatus);\n\n    function createLiquidityPool(address _tokenAddress, uint256 _apr, uint256 _fees, uint256 _minimumClaim, string calldata _symbol) external onlyOwner {\n        require(!poolData[_tokenAddress].isCreated, \"This pool is already created\");\n\n        poolData[_tokenAddress].apr = _apr;\n        poolData[_tokenAddress].fees = _fees;\n        poolData[_tokenAddress].minimumClaim = _minimumClaim;\n        poolData[_tokenAddress].isCreated = true;\n        poolData[_tokenAddress].symbol = _symbol;\n        poolData[_tokenAddress].paused = true;\n        //poolData[_tokenAddress].oracleAggregatorAddress = _oracleAggregatorAddress;\n\n        emit PoolCreated(_tokenAddress, _apr, _fees, _minimumClaim, _symbol);\n    }\n\n    function approveEVCT(address _tokenAddress, uint256 _amount) external {\n        require(_amount > 0, \"Amount must be over zero\");\n        IERC20(_tokenAddress).approve(address(this), _amount);\n    }\n\n    function setPoolPaused(address _tokenAddress, bool _value) external onlyOwner {\n        require(poolData[_tokenAddress].isCreated, \"This pool is not created\");\n        poolData[_tokenAddress].paused = _value;\n        emit PausedPoolStatus(_tokenAddress, _value);\n    }\n\n    // Dans Remix utiliser IERC20 avec le parametre \"At adress\" adresse du token de rewards\n    // puis dans l'interface \"Approve\" l'adresse du contrat de Staking et amount = 1000000000000000000 = 1 ETH\n    function deposit(uint256 _amount, address _tokenAddress) external {\n        //require(IERC20(_tokenAddress).allowance(msg.sender, address(this)) >= _amount, \"Insufficient allowance\");\n         require(_amount > 0, \"Amount must be over zero\");\n\n        //IERC20(_tokenAddress).approve(address(this), _amount);\n        IERC20(_tokenAddress).transferFrom(msg.sender, address(this), _amount);\n\n        PoolData storage poolStorage = poolData[_tokenAddress];\n        UserInfo storage userStorage = userInfo[_tokenAddress][msg.sender];\n        require(poolStorage.paused == false, \"Pool must be unpaused\");\n\n        // Set user current rewards to storage before deposit\n        // userStorage.reward = userStorage.reward + (calculateReward(_tokenAddress, msg.sender) / rewardDecimal); // for testing divide by 1e15 against 1e18\n        // Claim pending rewards before new deposit\n        if (userStorage.stakedAmount > 0) {\n            uint256 pendingReward = (calculateReward(_tokenAddress, msg.sender) / rewardDecimal);\n            if (pendingReward > 0) {\n                IERC20(_tokenAddress).transfer(msg.sender, pendingReward);\n                emit Claimed(msg.sender, _tokenAddress, pendingReward);\n            }\n        }\n\n        // Update the staked amount and the timestamp to compute new amount reward at this specific time\n        userStorage.stakedAmount = userStorage.stakedAmount + _amount;\n        userStorage.lastStakedTimestamp = block.timestamp; \n        userStorage.reward = 0;\n\n        // Update the tvl of the liquidity pool\n        poolStorage.totalValueLocked = poolStorage.totalValueLocked  + _amount;\n        emit Deposited(_amount, _tokenAddress, msg.sender);\n    }\n\n    function withdraw(address _tokenAddress, uint256 _amount) external {\n        PoolData storage poolStorage = poolData[_tokenAddress];\n        UserInfo storage userStorage = userInfo[_tokenAddress][msg.sender];\n        \n        require(poolStorage.paused == false, \"Pool must be unpaused\");\n        require(_amount <= userStorage.stakedAmount, \"The amount is over your balance in this pool\");\n\n        // save reward before withdraw to be able to claim it later\n        //userStorage.reward = userStorage.reward + (calculateReward(_tokenAddress, msg.sender) / rewardDecimal); // for testing divide by 1e15 against 1e18\n        // Claim pending rewards before new deposit\n        if (userStorage.stakedAmount > 0) {\n            uint256 pendingReward = (calculateReward(_tokenAddress, msg.sender) / rewardDecimal);\n            if (pendingReward > 0) {\n                IERC20(_tokenAddress).transfer(msg.sender, pendingReward);\n                emit Claimed(msg.sender, _tokenAddress, pendingReward);\n            }\n        }\n\n        // Update the staked amount and the timestamp to compute new amount reward at this specific time\n        userStorage.stakedAmount = userStorage.stakedAmount - _amount;\n        userStorage.lastStakedTimestamp = block.timestamp;\n\n        // Update the tvl of the liquidity pool\n        poolStorage.totalValueLocked = poolStorage.totalValueLocked  - _amount;\n\n        // Send the token back to the sender\n        //IERC20(_tokenAddress).approve(address(this), _amount);\n        IERC20(_tokenAddress).transfer(msg.sender, _amount);\n    \n        emit Withdrawn(msg.sender, _tokenAddress, _amount);\n    }\n\n    function calculateReward(address _tokenAddress, address _user) public view returns (uint256) {\n        PoolData storage poolStorage = poolData[_tokenAddress];\n        UserInfo storage userStorage = userInfo[_tokenAddress][_user];\n        uint256 stakingDuration = block.timestamp - userStorage.lastStakedTimestamp; // not ideal cause latency but it is ok\n        // calcul : amountRewards = staked amount * reward rate per second * elapsedtime\n        // BE CAREFUL : amount multiplication by 1e18 for decimal so need to divide by 1e18 in the front\n        uint256 amountRewards = ((((userStorage.stakedAmount * 1e18 * poolStorage.apr) / 100) / 31536000) * stakingDuration);\n        uint256 feesAmount = ((amountRewards * poolStorage.fees) / 100);\n        uint256 netRewards = amountRewards - feesAmount;\n        return netRewards;\n    }\n\n    function claimReward(address _tokenAddress) external {\n        PoolData storage poolStorage = poolData[_tokenAddress];\n        UserInfo storage userStorage = userInfo[_tokenAddress][msg.sender];\n        require(poolStorage.paused == false, \"Pool must be unpaused\");\n        uint256 reward = (calculateReward(_tokenAddress, msg.sender) / rewardDecimal); // for testing divide by 1e15 against 1e18\n        require(reward > 0, \"No reward to claim\");\n        require(reward >= poolStorage.minimumClaim, \"Not enough minimum rewards to claim\");\n        \n        // Update the timestamp and the reward amount\n        userStorage.lastStakedTimestamp = block.timestamp;\n        userStorage.reward = 0;\n        IERC20(_tokenAddress).transfer(msg.sender, reward);\n        emit Claimed(msg.sender, _tokenAddress, reward);\n    }\n\n    function getUserInfo(address _tokenAddress, address _userAddress) external view returns (UserInfo memory) {\n        return(userInfo[_tokenAddress][_userAddress]);\n    }\n\n    function getPoolData(address _tokenAddress) external view returns (PoolData memory) {\n        return poolData[_tokenAddress];\n    }\n\n\n// DEBUG FUNCTIONS\n\n /*   function displayStakingDuration(address _tokenAddress, address _user) public view returns (uint256) {\n        UserInfo storage userStorage = userInfo[_tokenAddress][_user];\n        uint256 stakingDuration = block.timestamp - userStorage.lastStakedTimestamp; // not ideal cause latency but it is ok\n        return stakingDuration;\n    }\n\n    function displayAmountRewardsInWei(address _tokenAddress, address _user) public view returns (uint256) {\n        PoolData storage poolStorage = poolData[_tokenAddress];\n        UserInfo storage userStorage = userInfo[_tokenAddress][_user];\n        uint256 stakingDuration = block.timestamp - userStorage.lastStakedTimestamp; // not ideal cause latency but it is ok\n        uint256 amountRewards = ((((userStorage.stakedAmount * 1e18 * poolStorage.apr) / 100) / 31536000) * stakingDuration);\n        return amountRewards;\n    }\n\n    function displayFeesAmountInWei(address _tokenAddress, address _user) public view returns (uint256) {\n        PoolData storage poolStorage = poolData[_tokenAddress];\n        UserInfo storage userStorage = userInfo[_tokenAddress][_user];\n        uint256 stakingDuration = block.timestamp - userStorage.lastStakedTimestamp; // not ideal cause latency but it is ok\n        uint256 amountRewards = ((((userStorage.stakedAmount * 1e18 * poolStorage.apr) / 100) / 31536000) * stakingDuration);\n        uint256 feesAmount = ((amountRewards * poolStorage.fees) / 100);\n        return feesAmount;\n    }\n*/\n}",
  "sourcePath": "/home/adm-linux/projet4/truffle/contracts/Staking.sol",
  "compiler": {
    "name": "solc",
    "version": "0.8.18+commit.87f61d96.Emscripten.clang"
  },
  "schemaVersion": "3.4.14",
  "updatedAt": "2023-07-23T23:35:05.283Z",
  "networkType": "ethereum",
  "devdoc": {
    "kind": "dev",
    "methods": {
      "owner()": {
        "details": "Returns the address of the current owner."
      },
      "renounceOwnership()": {
        "details": "Leaves the contract without owner. It will not be possible to call `onlyOwner` functions. Can only be called by the current owner. NOTE: Renouncing ownership will leave the contract without an owner, thereby disabling any functionality that is only available to the owner."
      },
      "transferOwnership(address)": {
        "details": "Transfers ownership of the contract to a new account (`newOwner`). Can only be called by the current owner."
      }
    },
    "version": 1
  },
  "userdoc": {
    "kind": "user",
    "methods": {},
    "version": 1
  }
}