{
  "contractName": "Staking",
  "abi": [
    {
      "inputs": [
        {
          "internalType": "contract IERC20",
          "name": "_rewardToken",
          "type": "address"
        },
        {
          "internalType": "address",
          "name": "_vaultAddress",
          "type": "address"
        }
      ],
      "stateMutability": "nonpayable",
      "type": "constructor"
    },
    {
      "anonymous": false,
      "inputs": [
        {
          "indexed": false,
          "internalType": "address",
          "name": "receiver",
          "type": "address"
        },
        {
          "indexed": false,
          "internalType": "address",
          "name": "tokenAddress",
          "type": "address"
        },
        {
          "indexed": false,
          "internalType": "uint256",
          "name": "rewardClaimedAmount",
          "type": "uint256"
        }
      ],
      "name": "Claimed",
      "type": "event"
    },
    {
      "anonymous": false,
      "inputs": [
        {
          "indexed": false,
          "internalType": "uint256",
          "name": "amount",
          "type": "uint256"
        },
        {
          "indexed": false,
          "internalType": "address",
          "name": "asset",
          "type": "address"
        },
        {
          "indexed": false,
          "internalType": "address",
          "name": "user",
          "type": "address"
        }
      ],
      "name": "Deposited",
      "type": "event"
    },
    {
      "anonymous": false,
      "inputs": [
        {
          "indexed": true,
          "internalType": "address",
          "name": "previousOwner",
          "type": "address"
        },
        {
          "indexed": true,
          "internalType": "address",
          "name": "newOwner",
          "type": "address"
        }
      ],
      "name": "OwnershipTransferred",
      "type": "event"
    },
    {
      "anonymous": false,
      "inputs": [
        {
          "indexed": false,
          "internalType": "address",
          "name": "tokenAddress",
          "type": "address"
        },
        {
          "indexed": false,
          "internalType": "bool",
          "name": "pausedStatus",
          "type": "bool"
        }
      ],
      "name": "PausedPoolStatus",
      "type": "event"
    },
    {
      "anonymous": false,
      "inputs": [
        {
          "indexed": false,
          "internalType": "address",
          "name": "tokenAddress",
          "type": "address"
        },
        {
          "indexed": false,
          "internalType": "uint256",
          "name": "apr",
          "type": "uint256"
        },
        {
          "indexed": false,
          "internalType": "uint256",
          "name": "fees",
          "type": "uint256"
        },
        {
          "indexed": false,
          "internalType": "uint256",
          "name": "minimumClaim",
          "type": "uint256"
        },
        {
          "indexed": false,
          "internalType": "string",
          "name": "symbol",
          "type": "string"
        }
      ],
      "name": "PoolCreated",
      "type": "event"
    },
    {
      "anonymous": false,
      "inputs": [
        {
          "indexed": false,
          "internalType": "address",
          "name": "receiver",
          "type": "address"
        },
        {
          "indexed": false,
          "internalType": "address",
          "name": "tokenAddress",
          "type": "address"
        },
        {
          "indexed": false,
          "internalType": "uint256",
          "name": "amountWithdraw",
          "type": "uint256"
        }
      ],
      "name": "Withdrawn",
      "type": "event"
    },
    {
      "inputs": [],
      "name": "owner",
      "outputs": [
        {
          "internalType": "address",
          "name": "",
          "type": "address"
        }
      ],
      "stateMutability": "view",
      "type": "function",
      "constant": true
    },
    {
      "inputs": [
        {
          "internalType": "address",
          "name": "",
          "type": "address"
        }
      ],
      "name": "poolData",
      "outputs": [
        {
          "internalType": "bool",
          "name": "isCreated",
          "type": "bool"
        },
        {
          "internalType": "uint256",
          "name": "apr",
          "type": "uint256"
        },
        {
          "internalType": "uint256",
          "name": "fees",
          "type": "uint256"
        },
        {
          "internalType": "uint256",
          "name": "minimumClaim",
          "type": "uint256"
        },
        {
          "internalType": "uint256",
          "name": "totalValueLocked",
          "type": "uint256"
        },
        {
          "internalType": "string",
          "name": "symbol",
          "type": "string"
        },
        {
          "internalType": "bool",
          "name": "paused",
          "type": "bool"
        }
      ],
      "stateMutability": "view",
      "type": "function",
      "constant": true
    },
    {
      "inputs": [],
      "name": "renounceOwnership",
      "outputs": [],
      "stateMutability": "nonpayable",
      "type": "function"
    },
    {
      "inputs": [
        {
          "internalType": "address",
          "name": "newOwner",
          "type": "address"
        }
      ],
      "name": "transferOwnership",
      "outputs": [],
      "stateMutability": "nonpayable",
      "type": "function"
    },
    {
      "inputs": [
        {
          "internalType": "address",
          "name": "",
          "type": "address"
        },
        {
          "internalType": "address",
          "name": "",
          "type": "address"
        }
      ],
      "name": "userInfo",
      "outputs": [
        {
          "internalType": "uint256",
          "name": "stakedAmount",
          "type": "uint256"
        },
        {
          "internalType": "uint256",
          "name": "lastStakedTimestamp",
          "type": "uint256"
        },
        {
          "internalType": "uint256",
          "name": "reward",
          "type": "uint256"
        }
      ],
      "stateMutability": "view",
      "type": "function",
      "constant": true
    },
    {
      "inputs": [],
      "name": "unlockVault",
      "outputs": [],
      "stateMutability": "nonpayable",
      "type": "function"
    },
    {
      "inputs": [
        {
          "internalType": "address",
          "name": "_address",
          "type": "address"
        }
      ],
      "name": "transferVaultOwner",
      "outputs": [],
      "stateMutability": "nonpayable",
      "type": "function"
    },
    {
      "inputs": [],
      "name": "lockVault",
      "outputs": [],
      "stateMutability": "nonpayable",
      "type": "function"
    },
    {
      "inputs": [
        {
          "internalType": "address",
          "name": "_tokenAddress",
          "type": "address"
        },
        {
          "internalType": "uint256",
          "name": "_amount",
          "type": "uint256"
        }
      ],
      "name": "withdrawFromVault",
      "outputs": [],
      "stateMutability": "nonpayable",
      "type": "function"
    },
    {
      "inputs": [
        {
          "internalType": "address",
          "name": "_tokenAddress",
          "type": "address"
        },
        {
          "internalType": "uint256",
          "name": "_amount",
          "type": "uint256"
        }
      ],
      "name": "sendBackToVault",
      "outputs": [],
      "stateMutability": "nonpayable",
      "type": "function"
    },
    {
      "inputs": [],
      "name": "getMyVault",
      "outputs": [
        {
          "internalType": "address",
          "name": "",
          "type": "address"
        }
      ],
      "stateMutability": "view",
      "type": "function",
      "constant": true
    },
    {
      "inputs": [
        {
          "internalType": "address",
          "name": "_tokenAddress",
          "type": "address"
        },
        {
          "internalType": "uint256",
          "name": "_apr",
          "type": "uint256"
        },
        {
          "internalType": "uint256",
          "name": "_fees",
          "type": "uint256"
        },
        {
          "internalType": "uint256",
          "name": "_minimumClaim",
          "type": "uint256"
        },
        {
          "internalType": "string",
          "name": "_symbol",
          "type": "string"
        }
      ],
      "name": "createLiquidityPool",
      "outputs": [],
      "stateMutability": "nonpayable",
      "type": "function"
    },
    {
      "inputs": [
        {
          "internalType": "address",
          "name": "_tokenAddress",
          "type": "address"
        },
        {
          "internalType": "bool",
          "name": "_value",
          "type": "bool"
        }
      ],
      "name": "setPoolPaused",
      "outputs": [],
      "stateMutability": "nonpayable",
      "type": "function"
    },
    {
      "inputs": [
        {
          "internalType": "uint256",
          "name": "_amount",
          "type": "uint256"
        },
        {
          "internalType": "address",
          "name": "_tokenAddress",
          "type": "address"
        }
      ],
      "name": "deposit",
      "outputs": [],
      "stateMutability": "nonpayable",
      "type": "function"
    },
    {
      "inputs": [
        {
          "internalType": "address",
          "name": "_tokenAddress",
          "type": "address"
        },
        {
          "internalType": "uint256",
          "name": "_amount",
          "type": "uint256"
        }
      ],
      "name": "withdraw",
      "outputs": [],
      "stateMutability": "nonpayable",
      "type": "function"
    },
    {
      "inputs": [
        {
          "internalType": "address",
          "name": "_tokenAddress",
          "type": "address"
        },
        {
          "internalType": "address",
          "name": "_user",
          "type": "address"
        }
      ],
      "name": "calculateReward",
      "outputs": [
        {
          "internalType": "uint256",
          "name": "",
          "type": "uint256"
        }
      ],
      "stateMutability": "view",
      "type": "function",
      "constant": true
    },
    {
      "inputs": [
        {
          "internalType": "address",
          "name": "_tokenAddress",
          "type": "address"
        }
      ],
      "name": "claimReward",
      "outputs": [],
      "stateMutability": "nonpayable",
      "type": "function"
    },
    {
      "inputs": [
        {
          "internalType": "address",
          "name": "_tokenAddress",
          "type": "address"
        },
        {
          "internalType": "address",
          "name": "_userAddress",
          "type": "address"
        }
      ],
      "name": "getUserInfo",
      "outputs": [
        {
          "components": [
            {
              "internalType": "uint256",
              "name": "stakedAmount",
              "type": "uint256"
            },
            {
              "internalType": "uint256",
              "name": "lastStakedTimestamp",
              "type": "uint256"
            },
            {
              "internalType": "uint256",
              "name": "reward",
              "type": "uint256"
            }
          ],
          "internalType": "struct Staking.UserInfo",
          "name": "",
          "type": "tuple"
        }
      ],
      "stateMutability": "view",
      "type": "function",
      "constant": true
    },
    {
      "inputs": [
        {
          "internalType": "address",
          "name": "_tokenAddress",
          "type": "address"
        }
      ],
      "name": "getPoolData",
      "outputs": [
        {
          "components": [
            {
              "internalType": "bool",
              "name": "isCreated",
              "type": "bool"
            },
            {
              "internalType": "uint256",
              "name": "apr",
              "type": "uint256"
            },
            {
              "internalType": "uint256",
              "name": "fees",
              "type": "uint256"
            },
            {
              "internalType": "uint256",
              "name": "minimumClaim",
              "type": "uint256"
            },
            {
              "internalType": "uint256",
              "name": "totalValueLocked",
              "type": "uint256"
            },
            {
              "internalType": "string",
              "name": "symbol",
              "type": "string"
            },
            {
              "internalType": "bool",
              "name": "paused",
              "type": "bool"
            }
          ],
          "internalType": "struct Staking.PoolData",
          "name": "",
          "type": "tuple"
        }
      ],
      "stateMutability": "view",
      "type": "function",
      "constant": true
    }
  ],
  "bytecode": "0x60a0604052670de0b6b3a76400006003553480156200001d57600080fd5b5060405162002e2038038062002e2083398181016040528101906200004391906200029c565b62000063620000576200012160201b60201c565b6200012960201b60201c565b81600160006101000a81548173ffffffffffffffffffffffffffffffffffffffff021916908373ffffffffffffffffffffffffffffffffffffffff16021790555080600260006101000a81548173ffffffffffffffffffffffffffffffffffffffff021916908373ffffffffffffffffffffffffffffffffffffffff1602179055508073ffffffffffffffffffffffffffffffffffffffff1660808173ffffffffffffffffffffffffffffffffffffffff16815250505050620002e3565b600033905090565b60008060009054906101000a900473ffffffffffffffffffffffffffffffffffffffff169050816000806101000a81548173ffffffffffffffffffffffffffffffffffffffff021916908373ffffffffffffffffffffffffffffffffffffffff1602179055508173ffffffffffffffffffffffffffffffffffffffff168173ffffffffffffffffffffffffffffffffffffffff167f8be0079c531659141344cd1fd0a4f28419497f9722a3daafe3b4186f6b6457e060405160405180910390a35050565b600080fd5b600073ffffffffffffffffffffffffffffffffffffffff82169050919050565b60006200021f82620001f2565b9050919050565b6000620002338262000212565b9050919050565b620002458162000226565b81146200025157600080fd5b50565b60008151905062000265816200023a565b92915050565b620002768162000212565b81146200028257600080fd5b50565b60008151905062000296816200026b565b92915050565b60008060408385031215620002b657620002b5620001ed565b5b6000620002c68582860162000254565b9250506020620002d98582860162000285565b9150509250929050565b608051612b1a6200030660003960008181610e3601526113e60152612b1a6000f3fe608060405234801561001057600080fd5b50600436106101215760003560e01c80636f8206ba116100ad578063d279c19111610071578063d279c191146102d4578063ee49a41b146102f0578063f2801fe71461030c578063f2fde38b1461033c578063f3fef3a31461035857610121565b80636f8206ba14610242578063715018a6146102605780637ca44fcf1461026a5780638da5cb5b1461029a578063b900de11146102b857610121565b806329ef057e116100f457806329ef057e146101da57806348bdd198146101f657806362f69039146102005780636e553f651461020a5780636e783b981461022657610121565b80630f208beb14610126578063136efb7a1461015857806313d21cdf1461018e57806321116f4e146101be575b600080fd5b610140600480360381019061013b9190611b00565b610374565b60405161014f93929190611b59565b60405180910390f35b610172600480360381019061016d9190611b90565b6103ab565b6040516101859796959493929190611c68565b60405180910390f35b6101a860048036038101906101a39190611b90565b61048f565b6040516101b59190611de2565b60405180910390f35b6101d860048036038101906101d39190611e30565b6105d8565b005b6101f460048036038101906101ef9190611ed5565b610673565b005b6101fe610931565b005b6102086109bd565b005b610224600480360381019061021f9190611f6f565b610a49565b005b610240600480360381019061023b9190611b90565b610d9a565b005b61024a610e32565b6040516102579190611fbe565b60405180910390f35b610268610e5a565b005b610284600480360381019061027f9190611b00565b610e6e565b6040516102919190611fd9565b60405180910390f35b6102a2610fd6565b6040516102af9190611fbe565b60405180910390f35b6102d260048036038101906102cd9190612020565b610fff565b005b6102ee60048036038101906102e99190611b90565b61112d565b005b61030a60048036038101906103059190611e30565b6113c0565b005b61032660048036038101906103219190611b00565b61146b565b60405161033391906120a2565b60405180910390f35b61035660048036038101906103519190611b90565b611520565b005b610372600480360381019061036d9190611e30565b6115a3565b005b6005602052816000526040600020602052806000526040600020600091509150508060000154908060010154908060020154905083565b60046020528060005260406000206000915090508060000160009054906101000a900460ff16908060010154908060020154908060030154908060040154908060050180546103f9906120ec565b80601f0160208091040260200160405190810160405280929190818152602001828054610425906120ec565b80156104725780601f1061044757610100808354040283529160200191610472565b820191906000526020600020905b81548152906001019060200180831161045557829003601f168201915b5050505050908060060160009054906101000a900460ff16905087565b610497611a36565b600460008373ffffffffffffffffffffffffffffffffffffffff1673ffffffffffffffffffffffffffffffffffffffff1681526020019081526020016000206040518060e00160405290816000820160009054906101000a900460ff1615151515815260200160018201548152602001600282015481526020016003820154815260200160048201548152602001600582018054610534906120ec565b80601f0160208091040260200160405190810160405280929190818152602001828054610560906120ec565b80156105ad5780601f10610582576101008083540402835291602001916105ad565b820191906000526020600020905b81548152906001019060200180831161059057829003601f168201915b505050505081526020016006820160009054906101000a900460ff1615151515815250509050919050565b6105e06118ec565b600260009054906101000a900473ffffffffffffffffffffffffffffffffffffffff1673ffffffffffffffffffffffffffffffffffffffff16639e281a9883836040518363ffffffff1660e01b815260040161063d92919061211d565b600060405180830381600087803b15801561065757600080fd5b505af115801561066b573d6000803e3d6000fd5b505050505050565b61067b6118ec565b600460008773ffffffffffffffffffffffffffffffffffffffff1673ffffffffffffffffffffffffffffffffffffffff16815260200190815260200160002060000160009054906101000a900460ff161561070b576040517f08c379a000000000000000000000000000000000000000000000000000000000815260040161070290612192565b60405180910390fd5b84600460008873ffffffffffffffffffffffffffffffffffffffff1673ffffffffffffffffffffffffffffffffffffffff1681526020019081526020016000206001018190555083600460008873ffffffffffffffffffffffffffffffffffffffff1673ffffffffffffffffffffffffffffffffffffffff1681526020019081526020016000206002018190555082600460008873ffffffffffffffffffffffffffffffffffffffff1673ffffffffffffffffffffffffffffffffffffffff168152602001908152602001600020600301819055506001600460008873ffffffffffffffffffffffffffffffffffffffff1673ffffffffffffffffffffffffffffffffffffffff16815260200190815260200160002060000160006101000a81548160ff0219169083151502179055508181600460008973ffffffffffffffffffffffffffffffffffffffff1673ffffffffffffffffffffffffffffffffffffffff168152602001908152602001600020600501918261088c929190612398565b506001600460008873ffffffffffffffffffffffffffffffffffffffff1673ffffffffffffffffffffffffffffffffffffffff16815260200190815260200160002060060160006101000a81548160ff0219169083151502179055507f62f0fa5319f02e8e89cdeab38db26e37da05500b9983908431721bb06942fad5868686868686604051610921969594939291906124a4565b60405180910390a1505050505050565b6109396118ec565b600260009054906101000a900473ffffffffffffffffffffffffffffffffffffffff1673ffffffffffffffffffffffffffffffffffffffff1663f83d08ba6040518163ffffffff1660e01b8152600401600060405180830381600087803b1580156109a357600080fd5b505af11580156109b7573d6000803e3d6000fd5b50505050565b6109c56118ec565b600260009054906101000a900473ffffffffffffffffffffffffffffffffffffffff1673ffffffffffffffffffffffffffffffffffffffff1663a69df4b56040518163ffffffff1660e01b8152600401600060405180830381600087803b158015610a2f57600080fd5b505af1158015610a43573d6000803e3d6000fd5b50505050565b60008211610a8c576040517f08c379a0000000000000000000000000000000000000000000000000000000008152600401610a839061254c565b60405180910390fd5b8073ffffffffffffffffffffffffffffffffffffffff166323b872dd3330856040518463ffffffff1660e01b8152600401610ac99392919061256c565b6020604051808303816000875af1158015610ae8573d6000803e3d6000fd5b505050506040513d601f19601f82011682018060405250810190610b0c91906125b8565b506000600460008373ffffffffffffffffffffffffffffffffffffffff1673ffffffffffffffffffffffffffffffffffffffff16815260200190815260200160002090506000600560008473ffffffffffffffffffffffffffffffffffffffff1673ffffffffffffffffffffffffffffffffffffffff16815260200190815260200160002060003373ffffffffffffffffffffffffffffffffffffffff1673ffffffffffffffffffffffffffffffffffffffff1681526020019081526020016000209050600015158260060160009054906101000a900460ff16151514610c28576040517f08c379a0000000000000000000000000000000000000000000000000000000008152600401610c1f90612631565b60405180910390fd5b600081600001541115610d16576000600354610c448533610e6e565b610c4e91906126af565b90506000811115610d14578373ffffffffffffffffffffffffffffffffffffffff1663a9059cbb33836040518363ffffffff1660e01b8152600401610c9492919061211d565b6020604051808303816000875af1158015610cb3573d6000803e3d6000fd5b505050506040513d601f19601f82011682018060405250810190610cd791906125b8565b507ff7a40077ff7a04c7e61f6f26fb13774259ddf1b6bce9ecf26a8276cdd3992683338583604051610d0b9392919061256c565b60405180910390a15b505b838160000154610d2691906126e0565b816000018190555042816001018190555060008160020181905550838260040154610d5191906126e0565b82600401819055507f7896c404bfb9173f4c61824c5e10e743eb885c3fe1c1727ed55ac3a51a350874848433604051610d8c93929190612714565b60405180910390a150505050565b610da26118ec565b600260009054906101000a900473ffffffffffffffffffffffffffffffffffffffff1673ffffffffffffffffffffffffffffffffffffffff1663f2fde38b826040518263ffffffff1660e01b8152600401610dfd9190611fbe565b600060405180830381600087803b158015610e1757600080fd5b505af1158015610e2b573d6000803e3d6000fd5b5050505050565b60007f0000000000000000000000000000000000000000000000000000000000000000905090565b610e626118ec565b610e6c600061196a565b565b600080600460008573ffffffffffffffffffffffffffffffffffffffff1673ffffffffffffffffffffffffffffffffffffffff16815260200190815260200160002090506000600560008673ffffffffffffffffffffffffffffffffffffffff1673ffffffffffffffffffffffffffffffffffffffff16815260200190815260200160002060008573ffffffffffffffffffffffffffffffffffffffff1673ffffffffffffffffffffffffffffffffffffffff16815260200190815260200160002090506000816001015442610f44919061274b565b90506000816301e1338060648660010154670de0b6b3a76400008760000154610f6d919061277f565b610f77919061277f565b610f8191906126af565b610f8b91906126af565b610f95919061277f565b905060006064856002015483610fab919061277f565b610fb591906126af565b905060008183610fc5919061274b565b905080965050505050505092915050565b60008060009054906101000a900473ffffffffffffffffffffffffffffffffffffffff16905090565b6110076118ec565b600460008373ffffffffffffffffffffffffffffffffffffffff1673ffffffffffffffffffffffffffffffffffffffff16815260200190815260200160002060000160009054906101000a900460ff16611096576040517f08c379a000000000000000000000000000000000000000000000000000000000815260040161108d9061280d565b60405180910390fd5b80600460008473ffffffffffffffffffffffffffffffffffffffff1673ffffffffffffffffffffffffffffffffffffffff16815260200190815260200160002060060160006101000a81548160ff0219169083151502179055507f03cacf29ad584516fd75540da918ba0888befbfe14651c0c8b2f05840ae236cf828260405161112192919061282d565b60405180910390a15050565b6000600460008373ffffffffffffffffffffffffffffffffffffffff1673ffffffffffffffffffffffffffffffffffffffff16815260200190815260200160002090506000600560008473ffffffffffffffffffffffffffffffffffffffff1673ffffffffffffffffffffffffffffffffffffffff16815260200190815260200160002060003373ffffffffffffffffffffffffffffffffffffffff1673ffffffffffffffffffffffffffffffffffffffff1681526020019081526020016000209050600015158260060160009054906101000a900460ff16151514611248576040517f08c379a000000000000000000000000000000000000000000000000000000000815260040161123f90612631565b60405180910390fd5b60006003546112578533610e6e565b61126191906126af565b9050600081116112a6576040517f08c379a000000000000000000000000000000000000000000000000000000000815260040161129d906128a2565b60405180910390fd5b82600301548110156112ed576040517f08c379a00000000000000000000000000000000000000000000000000000000081526004016112e490612934565b60405180910390fd5b428260010181905550600082600201819055508373ffffffffffffffffffffffffffffffffffffffff1663a9059cbb33836040518363ffffffff1660e01b815260040161133b92919061211d565b6020604051808303816000875af115801561135a573d6000803e3d6000fd5b505050506040513d601f19601f8201168201806040525081019061137e91906125b8565b507ff7a40077ff7a04c7e61f6f26fb13774259ddf1b6bce9ecf26a8276cdd39926833385836040516113b29392919061256c565b60405180910390a150505050565b6113c86118ec565b8173ffffffffffffffffffffffffffffffffffffffff1663a9059cbb7f0000000000000000000000000000000000000000000000000000000000000000836040518363ffffffff1660e01b815260040161142392919061211d565b6020604051808303816000875af1158015611442573d6000803e3d6000fd5b505050506040513d601f19601f8201168201806040525081019061146691906125b8565b505050565b611473611a77565b600560008473ffffffffffffffffffffffffffffffffffffffff1673ffffffffffffffffffffffffffffffffffffffff16815260200190815260200160002060008373ffffffffffffffffffffffffffffffffffffffff1673ffffffffffffffffffffffffffffffffffffffff1681526020019081526020016000206040518060600160405290816000820154815260200160018201548152602001600282015481525050905092915050565b6115286118ec565b600073ffffffffffffffffffffffffffffffffffffffff168173ffffffffffffffffffffffffffffffffffffffff1603611597576040517f08c379a000000000000000000000000000000000000000000000000000000000815260040161158e906129c6565b60405180910390fd5b6115a08161196a565b50565b6000600460008473ffffffffffffffffffffffffffffffffffffffff1673ffffffffffffffffffffffffffffffffffffffff16815260200190815260200160002090506000600560008573ffffffffffffffffffffffffffffffffffffffff1673ffffffffffffffffffffffffffffffffffffffff16815260200190815260200160002060003373ffffffffffffffffffffffffffffffffffffffff1673ffffffffffffffffffffffffffffffffffffffff1681526020019081526020016000209050600015158260060160009054906101000a900460ff161515146116be576040517f08c379a00000000000000000000000000000000000000000000000000000000081526004016116b590612631565b60405180910390fd5b8060000154831115611705576040517f08c379a00000000000000000000000000000000000000000000000000000000081526004016116fc90612a58565b60405180910390fd5b6000816000015411156117f35760006003546117218633610e6e565b61172b91906126af565b905060008111156117f1578473ffffffffffffffffffffffffffffffffffffffff1663a9059cbb33836040518363ffffffff1660e01b815260040161177192919061211d565b6020604051808303816000875af1158015611790573d6000803e3d6000fd5b505050506040513d601f19601f820116820180604052508101906117b491906125b8565b507ff7a40077ff7a04c7e61f6f26fb13774259ddf1b6bce9ecf26a8276cdd39926833386836040516117e89392919061256c565b60405180910390a15b505b828160000154611803919061274b565b8160000181905550428160010181905550828260040154611824919061274b565b82600401819055508373ffffffffffffffffffffffffffffffffffffffff1663a9059cbb33856040518363ffffffff1660e01b815260040161186792919061211d565b6020604051808303816000875af1158015611886573d6000803e3d6000fd5b505050506040513d601f19601f820116820180604052508101906118aa91906125b8565b507fd1c19fbcd4551a5edfb66d43d2e337c04837afda3482b42bdf569a8fccdae5fb3385856040516118de9392919061256c565b60405180910390a150505050565b6118f4611a2e565b73ffffffffffffffffffffffffffffffffffffffff16611912610fd6565b73ffffffffffffffffffffffffffffffffffffffff1614611968576040517f08c379a000000000000000000000000000000000000000000000000000000000815260040161195f90612ac4565b60405180910390fd5b565b60008060009054906101000a900473ffffffffffffffffffffffffffffffffffffffff169050816000806101000a81548173ffffffffffffffffffffffffffffffffffffffff021916908373ffffffffffffffffffffffffffffffffffffffff1602179055508173ffffffffffffffffffffffffffffffffffffffff168173ffffffffffffffffffffffffffffffffffffffff167f8be0079c531659141344cd1fd0a4f28419497f9722a3daafe3b4186f6b6457e060405160405180910390a35050565b600033905090565b6040518060e0016040528060001515815260200160008152602001600081526020016000815260200160008152602001606081526020016000151581525090565b60405180606001604052806000815260200160008152602001600081525090565b600080fd5b600080fd5b600073ffffffffffffffffffffffffffffffffffffffff82169050919050565b6000611acd82611aa2565b9050919050565b611add81611ac2565b8114611ae857600080fd5b50565b600081359050611afa81611ad4565b92915050565b60008060408385031215611b1757611b16611a98565b5b6000611b2585828601611aeb565b9250506020611b3685828601611aeb565b9150509250929050565b6000819050919050565b611b5381611b40565b82525050565b6000606082019050611b6e6000830186611b4a565b611b7b6020830185611b4a565b611b886040830184611b4a565b949350505050565b600060208284031215611ba657611ba5611a98565b5b6000611bb484828501611aeb565b91505092915050565b60008115159050919050565b611bd281611bbd565b82525050565b600081519050919050565b600082825260208201905092915050565b60005b83811015611c12578082015181840152602081019050611bf7565b60008484015250505050565b6000601f19601f8301169050919050565b6000611c3a82611bd8565b611c448185611be3565b9350611c54818560208601611bf4565b611c5d81611c1e565b840191505092915050565b600060e082019050611c7d600083018a611bc9565b611c8a6020830189611b4a565b611c976040830188611b4a565b611ca46060830187611b4a565b611cb16080830186611b4a565b81810360a0830152611cc38185611c2f565b9050611cd260c0830184611bc9565b98975050505050505050565b611ce781611bbd565b82525050565b611cf681611b40565b82525050565b600082825260208201905092915050565b6000611d1882611bd8565b611d228185611cfc565b9350611d32818560208601611bf4565b611d3b81611c1e565b840191505092915050565b600060e083016000830151611d5e6000860182611cde565b506020830151611d716020860182611ced565b506040830151611d846040860182611ced565b506060830151611d976060860182611ced565b506080830151611daa6080860182611ced565b5060a083015184820360a0860152611dc28282611d0d565b91505060c0830151611dd760c0860182611cde565b508091505092915050565b60006020820190508181036000830152611dfc8184611d46565b905092915050565b611e0d81611b40565b8114611e1857600080fd5b50565b600081359050611e2a81611e04565b92915050565b60008060408385031215611e4757611e46611a98565b5b6000611e5585828601611aeb565b9250506020611e6685828601611e1b565b9150509250929050565b600080fd5b600080fd5b600080fd5b60008083601f840112611e9557611e94611e70565b5b8235905067ffffffffffffffff811115611eb257611eb1611e75565b5b602083019150836001820283011115611ece57611ecd611e7a565b5b9250929050565b60008060008060008060a08789031215611ef257611ef1611a98565b5b6000611f0089828a01611aeb565b9650506020611f1189828a01611e1b565b9550506040611f2289828a01611e1b565b9450506060611f3389828a01611e1b565b935050608087013567ffffffffffffffff811115611f5457611f53611a9d565b5b611f6089828a01611e7f565b92509250509295509295509295565b60008060408385031215611f8657611f85611a98565b5b6000611f9485828601611e1b565b9250506020611fa585828601611aeb565b9150509250929050565b611fb881611ac2565b82525050565b6000602082019050611fd36000830184611faf565b92915050565b6000602082019050611fee6000830184611b4a565b92915050565b611ffd81611bbd565b811461200857600080fd5b50565b60008135905061201a81611ff4565b92915050565b6000806040838503121561203757612036611a98565b5b600061204585828601611aeb565b92505060206120568582860161200b565b9150509250929050565b6060820160008201516120766000850182611ced565b5060208201516120896020850182611ced565b50604082015161209c6040850182611ced565b50505050565b60006060820190506120b76000830184612060565b92915050565b7f4e487b7100000000000000000000000000000000000000000000000000000000600052602260045260246000fd5b6000600282049050600182168061210457607f821691505b602082108103612117576121166120bd565b5b50919050565b60006040820190506121326000830185611faf565b61213f6020830184611b4a565b9392505050565b7f5468697320706f6f6c20697320616c7265616479206372656174656400000000600082015250565b600061217c601c83611be3565b915061218782612146565b602082019050919050565b600060208201905081810360008301526121ab8161216f565b9050919050565b600082905092915050565b7f4e487b7100000000000000000000000000000000000000000000000000000000600052604160045260246000fd5b60008190508160005260206000209050919050565b60006020601f8301049050919050565b600082821b905092915050565b60006008830261224e7fffffffffffffffffffffffffffffffffffffffffffffffffffffffffffffffff82612211565b6122588683612211565b95508019841693508086168417925050509392505050565b6000819050919050565b600061229561229061228b84611b40565b612270565b611b40565b9050919050565b6000819050919050565b6122af8361227a565b6122c36122bb8261229c565b84845461221e565b825550505050565b600090565b6122d86122cb565b6122e38184846122a6565b505050565b5b81811015612307576122fc6000826122d0565b6001810190506122e9565b5050565b601f82111561234c5761231d816121ec565b61232684612201565b81016020851015612335578190505b61234961234185612201565b8301826122e8565b50505b505050565b600082821c905092915050565b600061236f60001984600802612351565b1980831691505092915050565b6000612388838361235e565b9150826002028217905092915050565b6123a283836121b2565b67ffffffffffffffff8111156123bb576123ba6121bd565b5b6123c582546120ec565b6123d082828561230b565b6000601f8311600181146123ff57600084156123ed578287013590505b6123f7858261237c565b86555061245f565b601f19841661240d866121ec565b60005b8281101561243557848901358255600182019150602085019450602081019050612410565b86831015612452578489013561244e601f89168261235e565b8355505b6001600288020188555050505b50505050505050565b82818337600083830152505050565b60006124838385611be3565b9350612490838584612468565b61249983611c1e565b840190509392505050565b600060a0820190506124b96000830189611faf565b6124c66020830188611b4a565b6124d36040830187611b4a565b6124e06060830186611b4a565b81810360808301526124f3818486612477565b9050979650505050505050565b7f416d6f756e74206d757374206265206f766572207a65726f0000000000000000600082015250565b6000612536601883611be3565b915061254182612500565b602082019050919050565b6000602082019050818103600083015261256581612529565b9050919050565b60006060820190506125816000830186611faf565b61258e6020830185611faf565b61259b6040830184611b4a565b949350505050565b6000815190506125b281611ff4565b92915050565b6000602082840312156125ce576125cd611a98565b5b60006125dc848285016125a3565b91505092915050565b7f506f6f6c206d75737420626520756e7061757365640000000000000000000000600082015250565b600061261b601583611be3565b9150612626826125e5565b602082019050919050565b6000602082019050818103600083015261264a8161260e565b9050919050565b7f4e487b7100000000000000000000000000000000000000000000000000000000600052601260045260246000fd5b7f4e487b7100000000000000000000000000000000000000000000000000000000600052601160045260246000fd5b60006126ba82611b40565b91506126c583611b40565b9250826126d5576126d4612651565b5b828204905092915050565b60006126eb82611b40565b91506126f683611b40565b925082820190508082111561270e5761270d612680565b5b92915050565b60006060820190506127296000830186611b4a565b6127366020830185611faf565b6127436040830184611faf565b949350505050565b600061275682611b40565b915061276183611b40565b925082820390508181111561277957612778612680565b5b92915050565b600061278a82611b40565b915061279583611b40565b92508282026127a381611b40565b915082820484148315176127ba576127b9612680565b5b5092915050565b7f5468697320706f6f6c206973206e6f7420637265617465640000000000000000600082015250565b60006127f7601883611be3565b9150612802826127c1565b602082019050919050565b60006020820190508181036000830152612826816127ea565b9050919050565b60006040820190506128426000830185611faf565b61284f6020830184611bc9565b9392505050565b7f4e6f2072657761726420746f20636c61696d0000000000000000000000000000600082015250565b600061288c601283611be3565b915061289782612856565b602082019050919050565b600060208201905081810360008301526128bb8161287f565b9050919050565b7f4e6f7420656e6f756768206d696e696d756d207265776172647320746f20636c60008201527f61696d0000000000000000000000000000000000000000000000000000000000602082015250565b600061291e602383611be3565b9150612929826128c2565b604082019050919050565b6000602082019050818103600083015261294d81612911565b9050919050565b7f4f776e61626c653a206e6577206f776e657220697320746865207a65726f206160008201527f6464726573730000000000000000000000000000000000000000000000000000602082015250565b60006129b0602683611be3565b91506129bb82612954565b604082019050919050565b600060208201905081810360008301526129df816129a3565b9050919050565b7f54686520616d6f756e74206973206f76657220796f75722062616c616e63652060008201527f696e207468697320706f6f6c0000000000000000000000000000000000000000602082015250565b6000612a42602c83611be3565b9150612a4d826129e6565b604082019050919050565b60006020820190508181036000830152612a7181612a35565b9050919050565b7f4f776e61626c653a2063616c6c6572206973206e6f7420746865206f776e6572600082015250565b6000612aae602083611be3565b9150612ab982612a78565b602082019050919050565b60006020820190508181036000830152612add81612aa1565b905091905056fea2646970667358221220d19e81f1df33e7b569151962e02cc173248c42ed450dbbc2e4106900c8b887d364736f6c63430008120033",
  "immutableReferences": {
    "1863": [
      {
        "length": 32,
        "start": 3638
      },
      {
        "length": 32,
        "start": 5094
      }
    ]
  },
  "source": "// SPDX-License-Identifier: MIT\npragma solidity ^0.8.18;\n\nimport \"@openzeppelin/contracts/access/Ownable.sol\";\nimport \"@openzeppelin/contracts/token/ERC20/IERC20.sol\";\nimport \"@openzeppelin/contracts/token/ERC20/utils/SafeERC20.sol\";\nimport \"@chainlink/contracts/src/v0.8/interfaces/AggregatorV3Interface.sol\";\n\nimport \"./IVaultStaking.sol\";\n\ncontract Staking is Ownable {\n\n    //using SafeERC20 for IERC20; //https://docs.openzeppelin.com/contracts/4.x/api/token/erc20#SafeERC20\n\n    IERC20 private rewardToken;\n    IVaultStaking private myVault;\n    address private immutable vaultAddress;\n\n    constructor (IERC20 _rewardToken, address _vaultAddress) {\n        rewardToken = _rewardToken;\n        myVault = IVaultStaking(_vaultAddress);\n        vaultAddress = _vaultAddress;\n    }\n\n    function unlockVault() external onlyOwner {\n        myVault.unlock();\n    }\n\n    function transferVaultOwner(address _address) external onlyOwner {\n        myVault.transferOwnership(_address);\n    }\n\n   function lockVault() external onlyOwner {\n        myVault.lock();\n    }\n\n    function withdrawFromVault(address _tokenAddress, uint256 _amount) external onlyOwner {\n        myVault.withdrawToken(_tokenAddress, _amount);\n    }\n\n    function sendBackToVault(address _tokenAddress, uint256 _amount) external onlyOwner {\n        IERC20(_tokenAddress).transfer(vaultAddress, _amount);\n    }\n\n    function getMyVault() external view returns(address) {\n        return(vaultAddress);\n    }\n\n    // decimal defnit pour le calcul des rewards\n    uint256 rewardDecimal = 1e18; // for testing 1e15 vs production 1e18\n\n    struct UserInfo {\n        uint256 stakedAmount; \n        uint256 lastStakedTimestamp;\n        uint256 reward;\n    }\n\n    struct PoolData {\n        bool isCreated;\n        uint256 apr;\n        uint256 fees;\n        uint256 minimumClaim;\n        uint256 totalValueLocked;\n        string symbol;\n        bool paused;\n        //address oracleAggregatorAddress;\n    }\n\n    // Map token adress\n    mapping(address => PoolData) public poolData;\n    // Map token adress then user address\n    mapping (address => mapping (address => UserInfo)) public userInfo;\n    \n    event PoolCreated (address tokenAddress, uint256 apr, uint256 fees, uint256 minimumClaim, string symbol);\n    event Deposited(uint256 amount, address asset, address user);\n    event Withdrawn (address receiver, address tokenAddress, uint256 amountWithdraw);\n    event Claimed (address receiver, address tokenAddress, uint rewardClaimedAmount);\n    event PausedPoolStatus (address tokenAddress, bool pausedStatus);\n\n    function createLiquidityPool(address _tokenAddress, uint256 _apr, uint256 _fees, uint256 _minimumClaim, string calldata _symbol) external onlyOwner {\n        require(!poolData[_tokenAddress].isCreated, \"This pool is already created\");\n\n        poolData[_tokenAddress].apr = _apr;\n        poolData[_tokenAddress].fees = _fees;\n        poolData[_tokenAddress].minimumClaim = _minimumClaim;\n        poolData[_tokenAddress].isCreated = true;\n        poolData[_tokenAddress].symbol = _symbol;\n        poolData[_tokenAddress].paused = true;\n        //poolData[_tokenAddress].oracleAggregatorAddress = _oracleAggregatorAddress;\n\n        emit PoolCreated(_tokenAddress, _apr, _fees, _minimumClaim, _symbol);\n    }\n\n    function setPoolPaused(address _tokenAddress, bool _value) external onlyOwner {\n        require(poolData[_tokenAddress].isCreated, \"This pool is not created\");\n        poolData[_tokenAddress].paused = _value;\n        emit PausedPoolStatus(_tokenAddress, _value);\n    }\n\n    // Dans Remix utiliser IERC20 avec le parametre \"At adress\" adresse du token de rewards\n    // puis dans l'interface \"Approve\" l'adresse du contrat de Staking et amount = 1000000000000000000 = 1 ETH\n    function deposit(uint256 _amount, address _tokenAddress) external {\n        //require(IERC20(_tokenAddress).allowance(msg.sender, address(this)) >= _amount, \"Insufficient allowance\");\n         require(_amount > 0, \"Amount must be over zero\");\n\n        //IERC20(_tokenAddress).approve(address(this), _amount);\n        IERC20(_tokenAddress).transferFrom(msg.sender, address(this), _amount);\n\n        PoolData storage poolStorage = poolData[_tokenAddress];\n        UserInfo storage userStorage = userInfo[_tokenAddress][msg.sender];\n        require(poolStorage.paused == false, \"Pool must be unpaused\");\n\n        // Set user current rewards to storage before deposit\n        // userStorage.reward = userStorage.reward + (calculateReward(_tokenAddress, msg.sender) / rewardDecimal); // for testing divide by 1e15 against 1e18\n        // Claim pending rewards before new deposit\n        if (userStorage.stakedAmount > 0) {\n            uint256 pendingReward = (calculateReward(_tokenAddress, msg.sender) / rewardDecimal);\n            if (pendingReward > 0) {\n                IERC20(_tokenAddress).transfer(msg.sender, pendingReward);\n                emit Claimed(msg.sender, _tokenAddress, pendingReward);\n            }\n        }\n\n        // Update the staked amount and the timestamp to compute new amount reward at this specific time\n        userStorage.stakedAmount = userStorage.stakedAmount + _amount;\n        userStorage.lastStakedTimestamp = block.timestamp; \n        userStorage.reward = 0;\n\n        // Update the tvl of the liquidity pool\n        poolStorage.totalValueLocked = poolStorage.totalValueLocked  + _amount;\n        emit Deposited(_amount, _tokenAddress, msg.sender);\n    }\n\n    function withdraw(address _tokenAddress, uint256 _amount) external {\n        PoolData storage poolStorage = poolData[_tokenAddress];\n        UserInfo storage userStorage = userInfo[_tokenAddress][msg.sender];\n        \n        require(poolStorage.paused == false, \"Pool must be unpaused\");\n        require(_amount <= userStorage.stakedAmount, \"The amount is over your balance in this pool\");\n\n        // save reward before withdraw to be able to claim it later\n        //userStorage.reward = userStorage.reward + (calculateReward(_tokenAddress, msg.sender) / rewardDecimal); // for testing divide by 1e15 against 1e18\n        // Claim pending rewards before new deposit\n        if (userStorage.stakedAmount > 0) {\n            uint256 pendingReward = (calculateReward(_tokenAddress, msg.sender) / rewardDecimal);\n            if (pendingReward > 0) {\n                IERC20(_tokenAddress).transfer(msg.sender, pendingReward);\n                emit Claimed(msg.sender, _tokenAddress, pendingReward);\n            }\n        }\n\n        // Update the staked amount and the timestamp to compute new amount reward at this specific time\n        userStorage.stakedAmount = userStorage.stakedAmount - _amount;\n        userStorage.lastStakedTimestamp = block.timestamp;\n\n        // Update the tvl of the liquidity pool\n        poolStorage.totalValueLocked = poolStorage.totalValueLocked  - _amount;\n\n        // Send the token back to the sender\n        //IERC20(_tokenAddress).approve(address(this), _amount);\n        IERC20(_tokenAddress).transfer(msg.sender, _amount);\n    \n        emit Withdrawn(msg.sender, _tokenAddress, _amount);\n    }\n\n    function calculateReward(address _tokenAddress, address _user) public view returns (uint256) {\n        PoolData storage poolStorage = poolData[_tokenAddress];\n        UserInfo storage userStorage = userInfo[_tokenAddress][_user];\n        uint256 stakingDuration = block.timestamp - userStorage.lastStakedTimestamp; // not ideal cause latency but it is ok\n        // calcul : amountRewards = staked amount * reward rate per second * elapsedtime\n        // BE CAREFUL : amount multiplication by 1e18 for decimal so need to divide by 1e18 in the front\n        uint256 amountRewards = ((((userStorage.stakedAmount * 1e18 * poolStorage.apr) / 100) / 31536000) * stakingDuration);\n        uint256 feesAmount = ((amountRewards * poolStorage.fees) / 100);\n        uint256 netRewards = amountRewards - feesAmount;\n        return netRewards;\n    }\n\n    function claimReward(address _tokenAddress) external {\n        PoolData storage poolStorage = poolData[_tokenAddress];\n        UserInfo storage userStorage = userInfo[_tokenAddress][msg.sender];\n        require(poolStorage.paused == false, \"Pool must be unpaused\");\n        uint256 reward = (calculateReward(_tokenAddress, msg.sender) / rewardDecimal); // for testing divide by 1e15 against 1e18\n        require(reward > 0, \"No reward to claim\");\n        require(reward >= poolStorage.minimumClaim, \"Not enough minimum rewards to claim\");\n        \n        // Update the timestamp and the reward amount\n        userStorage.lastStakedTimestamp = block.timestamp;\n        userStorage.reward = 0;\n        IERC20(_tokenAddress).transfer(msg.sender, reward);\n        emit Claimed(msg.sender, _tokenAddress, reward);\n    }\n\n    function getUserInfo(address _tokenAddress, address _userAddress) external view returns (UserInfo memory) {\n        return(userInfo[_tokenAddress][_userAddress]);\n    }\n\n    function getPoolData(address _tokenAddress) external view returns (PoolData memory) {\n        return poolData[_tokenAddress];\n    }\n\n\n// DEBUG FUNCTIONS\n\n /*   function displayStakingDuration(address _tokenAddress, address _user) public view returns (uint256) {\n        UserInfo storage userStorage = userInfo[_tokenAddress][_user];\n        uint256 stakingDuration = block.timestamp - userStorage.lastStakedTimestamp; // not ideal cause latency but it is ok\n        return stakingDuration;\n    }\n\n    function displayAmountRewardsInWei(address _tokenAddress, address _user) public view returns (uint256) {\n        PoolData storage poolStorage = poolData[_tokenAddress];\n        UserInfo storage userStorage = userInfo[_tokenAddress][_user];\n        uint256 stakingDuration = block.timestamp - userStorage.lastStakedTimestamp; // not ideal cause latency but it is ok\n        uint256 amountRewards = ((((userStorage.stakedAmount * 1e18 * poolStorage.apr) / 100) / 31536000) * stakingDuration);\n        return amountRewards;\n    }\n\n    function displayFeesAmountInWei(address _tokenAddress, address _user) public view returns (uint256) {\n        PoolData storage poolStorage = poolData[_tokenAddress];\n        UserInfo storage userStorage = userInfo[_tokenAddress][_user];\n        uint256 stakingDuration = block.timestamp - userStorage.lastStakedTimestamp; // not ideal cause latency but it is ok\n        uint256 amountRewards = ((((userStorage.stakedAmount * 1e18 * poolStorage.apr) / 100) / 31536000) * stakingDuration);\n        uint256 feesAmount = ((amountRewards * poolStorage.fees) / 100);\n        return feesAmount;\n    }\n*/\n}",
  "sourcePath": "/home/adm-linux/projet4/truffle/contracts/Staking.sol",
  "compiler": {
    "name": "solc",
    "version": "0.8.18+commit.87f61d96.Emscripten.clang"
  },
  "schemaVersion": "3.4.14",
  "updatedAt": "2023-07-22T15:49:34.824Z",
  "networkType": "ethereum",
  "devdoc": {
    "kind": "dev",
    "methods": {
      "owner()": {
        "details": "Returns the address of the current owner."
      },
      "renounceOwnership()": {
        "details": "Leaves the contract without owner. It will not be possible to call `onlyOwner` functions. Can only be called by the current owner. NOTE: Renouncing ownership will leave the contract without an owner, thereby disabling any functionality that is only available to the owner."
      },
      "transferOwnership(address)": {
        "details": "Transfers ownership of the contract to a new account (`newOwner`). Can only be called by the current owner."
      }
    },
    "version": 1
  },
  "userdoc": {
    "kind": "user",
    "methods": {},
    "version": 1
  }
}