{
  "contractName": "Staking",
  "abi": [
    {
      "inputs": [
        {
          "internalType": "contract IERC20",
          "name": "_rewardToken",
          "type": "address"
        },
        {
          "internalType": "address",
          "name": "_vaultAddress",
          "type": "address"
        }
      ],
      "stateMutability": "nonpayable",
      "type": "constructor"
    },
    {
      "anonymous": false,
      "inputs": [
        {
          "indexed": false,
          "internalType": "address",
          "name": "receiver",
          "type": "address"
        },
        {
          "indexed": false,
          "internalType": "address",
          "name": "tokenAddress",
          "type": "address"
        },
        {
          "indexed": false,
          "internalType": "uint256",
          "name": "rewardClaimedAmount",
          "type": "uint256"
        }
      ],
      "name": "Claimed",
      "type": "event"
    },
    {
      "anonymous": false,
      "inputs": [
        {
          "indexed": false,
          "internalType": "uint256",
          "name": "amount",
          "type": "uint256"
        },
        {
          "indexed": false,
          "internalType": "address",
          "name": "asset",
          "type": "address"
        },
        {
          "indexed": false,
          "internalType": "address",
          "name": "user",
          "type": "address"
        }
      ],
      "name": "Deposited",
      "type": "event"
    },
    {
      "anonymous": false,
      "inputs": [
        {
          "indexed": true,
          "internalType": "address",
          "name": "previousOwner",
          "type": "address"
        },
        {
          "indexed": true,
          "internalType": "address",
          "name": "newOwner",
          "type": "address"
        }
      ],
      "name": "OwnershipTransferred",
      "type": "event"
    },
    {
      "anonymous": false,
      "inputs": [
        {
          "indexed": false,
          "internalType": "address",
          "name": "tokenAddress",
          "type": "address"
        },
        {
          "indexed": false,
          "internalType": "bool",
          "name": "pausedStatus",
          "type": "bool"
        }
      ],
      "name": "PausedPoolStatus",
      "type": "event"
    },
    {
      "anonymous": false,
      "inputs": [
        {
          "indexed": false,
          "internalType": "address",
          "name": "tokenAddress",
          "type": "address"
        },
        {
          "indexed": false,
          "internalType": "uint256",
          "name": "apr",
          "type": "uint256"
        },
        {
          "indexed": false,
          "internalType": "uint256",
          "name": "fees",
          "type": "uint256"
        },
        {
          "indexed": false,
          "internalType": "uint256",
          "name": "minimumClaim",
          "type": "uint256"
        },
        {
          "indexed": false,
          "internalType": "string",
          "name": "symbol",
          "type": "string"
        }
      ],
      "name": "PoolCreated",
      "type": "event"
    },
    {
      "anonymous": false,
      "inputs": [
        {
          "indexed": false,
          "internalType": "address",
          "name": "receiver",
          "type": "address"
        },
        {
          "indexed": false,
          "internalType": "address",
          "name": "tokenAddress",
          "type": "address"
        },
        {
          "indexed": false,
          "internalType": "uint256",
          "name": "amountWithdraw",
          "type": "uint256"
        }
      ],
      "name": "Withdrawn",
      "type": "event"
    },
    {
      "inputs": [],
      "name": "owner",
      "outputs": [
        {
          "internalType": "address",
          "name": "",
          "type": "address"
        }
      ],
      "stateMutability": "view",
      "type": "function",
      "constant": true
    },
    {
      "inputs": [
        {
          "internalType": "address",
          "name": "",
          "type": "address"
        }
      ],
      "name": "poolData",
      "outputs": [
        {
          "internalType": "bool",
          "name": "isCreated",
          "type": "bool"
        },
        {
          "internalType": "uint256",
          "name": "apr",
          "type": "uint256"
        },
        {
          "internalType": "uint256",
          "name": "fees",
          "type": "uint256"
        },
        {
          "internalType": "uint256",
          "name": "minimumClaim",
          "type": "uint256"
        },
        {
          "internalType": "uint256",
          "name": "totalValueLocked",
          "type": "uint256"
        },
        {
          "internalType": "string",
          "name": "symbol",
          "type": "string"
        },
        {
          "internalType": "bool",
          "name": "paused",
          "type": "bool"
        }
      ],
      "stateMutability": "view",
      "type": "function",
      "constant": true
    },
    {
      "inputs": [],
      "name": "renounceOwnership",
      "outputs": [],
      "stateMutability": "nonpayable",
      "type": "function"
    },
    {
      "inputs": [
        {
          "internalType": "address",
          "name": "newOwner",
          "type": "address"
        }
      ],
      "name": "transferOwnership",
      "outputs": [],
      "stateMutability": "nonpayable",
      "type": "function"
    },
    {
      "inputs": [
        {
          "internalType": "address",
          "name": "",
          "type": "address"
        },
        {
          "internalType": "address",
          "name": "",
          "type": "address"
        }
      ],
      "name": "userInfo",
      "outputs": [
        {
          "internalType": "uint256",
          "name": "stakedAmount",
          "type": "uint256"
        },
        {
          "internalType": "uint256",
          "name": "lastStakedTimestamp",
          "type": "uint256"
        },
        {
          "internalType": "uint256",
          "name": "reward",
          "type": "uint256"
        }
      ],
      "stateMutability": "view",
      "type": "function",
      "constant": true
    },
    {
      "inputs": [],
      "name": "unlockVault",
      "outputs": [],
      "stateMutability": "nonpayable",
      "type": "function"
    },
    {
      "inputs": [
        {
          "internalType": "address",
          "name": "_address",
          "type": "address"
        }
      ],
      "name": "transferVaultOwner",
      "outputs": [],
      "stateMutability": "nonpayable",
      "type": "function"
    },
    {
      "inputs": [],
      "name": "lockVault",
      "outputs": [],
      "stateMutability": "nonpayable",
      "type": "function"
    },
    {
      "inputs": [
        {
          "internalType": "address",
          "name": "_tokenAddress",
          "type": "address"
        },
        {
          "internalType": "uint256",
          "name": "_amount",
          "type": "uint256"
        }
      ],
      "name": "withdrawFromVault",
      "outputs": [],
      "stateMutability": "nonpayable",
      "type": "function"
    },
    {
      "inputs": [
        {
          "internalType": "address",
          "name": "_tokenAddress",
          "type": "address"
        },
        {
          "internalType": "uint256",
          "name": "_amount",
          "type": "uint256"
        }
      ],
      "name": "sendBackToVault",
      "outputs": [],
      "stateMutability": "nonpayable",
      "type": "function"
    },
    {
      "inputs": [],
      "name": "getMyVault",
      "outputs": [
        {
          "internalType": "address",
          "name": "",
          "type": "address"
        }
      ],
      "stateMutability": "view",
      "type": "function",
      "constant": true
    },
    {
      "inputs": [
        {
          "internalType": "address",
          "name": "_tokenAddress",
          "type": "address"
        },
        {
          "internalType": "uint256",
          "name": "_apr",
          "type": "uint256"
        },
        {
          "internalType": "uint256",
          "name": "_fees",
          "type": "uint256"
        },
        {
          "internalType": "uint256",
          "name": "_minimumClaim",
          "type": "uint256"
        },
        {
          "internalType": "string",
          "name": "_symbol",
          "type": "string"
        }
      ],
      "name": "createLiquidityPool",
      "outputs": [],
      "stateMutability": "nonpayable",
      "type": "function"
    },
    {
      "inputs": [
        {
          "internalType": "address",
          "name": "_tokenAddress",
          "type": "address"
        },
        {
          "internalType": "bool",
          "name": "_value",
          "type": "bool"
        }
      ],
      "name": "setPoolPaused",
      "outputs": [],
      "stateMutability": "nonpayable",
      "type": "function"
    },
    {
      "inputs": [
        {
          "internalType": "uint256",
          "name": "_amount",
          "type": "uint256"
        },
        {
          "internalType": "address",
          "name": "_tokenAddress",
          "type": "address"
        }
      ],
      "name": "deposit",
      "outputs": [],
      "stateMutability": "nonpayable",
      "type": "function"
    },
    {
      "inputs": [
        {
          "internalType": "address",
          "name": "_tokenAddress",
          "type": "address"
        },
        {
          "internalType": "uint256",
          "name": "_amount",
          "type": "uint256"
        }
      ],
      "name": "withdraw",
      "outputs": [],
      "stateMutability": "nonpayable",
      "type": "function"
    },
    {
      "inputs": [
        {
          "internalType": "address",
          "name": "_tokenAddress",
          "type": "address"
        },
        {
          "internalType": "address",
          "name": "_user",
          "type": "address"
        }
      ],
      "name": "calculateReward",
      "outputs": [
        {
          "internalType": "uint256",
          "name": "",
          "type": "uint256"
        }
      ],
      "stateMutability": "view",
      "type": "function",
      "constant": true
    },
    {
      "inputs": [
        {
          "internalType": "address",
          "name": "_tokenAddress",
          "type": "address"
        }
      ],
      "name": "claimReward",
      "outputs": [],
      "stateMutability": "nonpayable",
      "type": "function"
    },
    {
      "inputs": [
        {
          "internalType": "address",
          "name": "_tokenAddress",
          "type": "address"
        },
        {
          "internalType": "address",
          "name": "_userAddress",
          "type": "address"
        }
      ],
      "name": "getUserInfo",
      "outputs": [
        {
          "components": [
            {
              "internalType": "uint256",
              "name": "stakedAmount",
              "type": "uint256"
            },
            {
              "internalType": "uint256",
              "name": "lastStakedTimestamp",
              "type": "uint256"
            },
            {
              "internalType": "uint256",
              "name": "reward",
              "type": "uint256"
            }
          ],
          "internalType": "struct Staking.UserInfo",
          "name": "",
          "type": "tuple"
        }
      ],
      "stateMutability": "view",
      "type": "function",
      "constant": true
    },
    {
      "inputs": [
        {
          "internalType": "address",
          "name": "_tokenAddress",
          "type": "address"
        }
      ],
      "name": "getPoolData",
      "outputs": [
        {
          "components": [
            {
              "internalType": "bool",
              "name": "isCreated",
              "type": "bool"
            },
            {
              "internalType": "uint256",
              "name": "apr",
              "type": "uint256"
            },
            {
              "internalType": "uint256",
              "name": "fees",
              "type": "uint256"
            },
            {
              "internalType": "uint256",
              "name": "minimumClaim",
              "type": "uint256"
            },
            {
              "internalType": "uint256",
              "name": "totalValueLocked",
              "type": "uint256"
            },
            {
              "internalType": "string",
              "name": "symbol",
              "type": "string"
            },
            {
              "internalType": "bool",
              "name": "paused",
              "type": "bool"
            }
          ],
          "internalType": "struct Staking.PoolData",
          "name": "",
          "type": "tuple"
        }
      ],
      "stateMutability": "view",
      "type": "function",
      "constant": true
    }
  ],
  "bytecode": "0x60a0604052670de0b6b3a76400006003553480156200001d57600080fd5b5060405162002e2838038062002e2883398181016040528101906200004391906200029c565b62000063620000576200012160201b60201c565b6200012960201b60201c565b81600160006101000a81548173ffffffffffffffffffffffffffffffffffffffff021916908373ffffffffffffffffffffffffffffffffffffffff16021790555080600260006101000a81548173ffffffffffffffffffffffffffffffffffffffff021916908373ffffffffffffffffffffffffffffffffffffffff1602179055508073ffffffffffffffffffffffffffffffffffffffff1660808173ffffffffffffffffffffffffffffffffffffffff16815250505050620002e3565b600033905090565b60008060009054906101000a900473ffffffffffffffffffffffffffffffffffffffff169050816000806101000a81548173ffffffffffffffffffffffffffffffffffffffff021916908373ffffffffffffffffffffffffffffffffffffffff1602179055508173ffffffffffffffffffffffffffffffffffffffff168173ffffffffffffffffffffffffffffffffffffffff167f8be0079c531659141344cd1fd0a4f28419497f9722a3daafe3b4186f6b6457e060405160405180910390a35050565b600080fd5b600073ffffffffffffffffffffffffffffffffffffffff82169050919050565b60006200021f82620001f2565b9050919050565b6000620002338262000212565b9050919050565b620002458162000226565b81146200025157600080fd5b50565b60008151905062000265816200023a565b92915050565b620002768162000212565b81146200028257600080fd5b50565b60008151905062000296816200026b565b92915050565b60008060408385031215620002b657620002b5620001ed565b5b6000620002c68582860162000254565b9250506020620002d98582860162000285565b9150509250929050565b608051612b226200030660003960008181610e3e01526113ee0152612b226000f3fe608060405234801561001057600080fd5b50600436106101215760003560e01c80636f8206ba116100ad578063d279c19111610071578063d279c191146102d4578063ee49a41b146102f0578063f2801fe71461030c578063f2fde38b1461033c578063f3fef3a31461035857610121565b80636f8206ba14610242578063715018a6146102605780637ca44fcf1461026a5780638da5cb5b1461029a578063b900de11146102b857610121565b806329ef057e116100f457806329ef057e146101da57806348bdd198146101f657806362f69039146102005780636e553f651461020a5780636e783b981461022657610121565b80630f208beb14610126578063136efb7a1461015857806313d21cdf1461018e57806321116f4e146101be575b600080fd5b610140600480360381019061013b9190611b08565b610374565b60405161014f93929190611b61565b60405180910390f35b610172600480360381019061016d9190611b98565b6103ab565b6040516101859796959493929190611c70565b60405180910390f35b6101a860048036038101906101a39190611b98565b61048f565b6040516101b59190611dea565b60405180910390f35b6101d860048036038101906101d39190611e38565b6105d8565b005b6101f460048036038101906101ef9190611edd565b610673565b005b6101fe610931565b005b6102086109bd565b005b610224600480360381019061021f9190611f77565b610a49565b005b610240600480360381019061023b9190611b98565b610d9a565b005b61024a610e32565b6040516102579190611fc6565b60405180910390f35b610268610e62565b005b610284600480360381019061027f9190611b08565b610e76565b6040516102919190611fe1565b60405180910390f35b6102a2610fde565b6040516102af9190611fc6565b60405180910390f35b6102d260048036038101906102cd9190612028565b611007565b005b6102ee60048036038101906102e99190611b98565b611135565b005b61030a60048036038101906103059190611e38565b6113c8565b005b61032660048036038101906103219190611b08565b611473565b60405161033391906120aa565b60405180910390f35b61035660048036038101906103519190611b98565b611528565b005b610372600480360381019061036d9190611e38565b6115ab565b005b6005602052816000526040600020602052806000526040600020600091509150508060000154908060010154908060020154905083565b60046020528060005260406000206000915090508060000160009054906101000a900460ff16908060010154908060020154908060030154908060040154908060050180546103f9906120f4565b80601f0160208091040260200160405190810160405280929190818152602001828054610425906120f4565b80156104725780601f1061044757610100808354040283529160200191610472565b820191906000526020600020905b81548152906001019060200180831161045557829003601f168201915b5050505050908060060160009054906101000a900460ff16905087565b610497611a3e565b600460008373ffffffffffffffffffffffffffffffffffffffff1673ffffffffffffffffffffffffffffffffffffffff1681526020019081526020016000206040518060e00160405290816000820160009054906101000a900460ff1615151515815260200160018201548152602001600282015481526020016003820154815260200160048201548152602001600582018054610534906120f4565b80601f0160208091040260200160405190810160405280929190818152602001828054610560906120f4565b80156105ad5780601f10610582576101008083540402835291602001916105ad565b820191906000526020600020905b81548152906001019060200180831161059057829003601f168201915b505050505081526020016006820160009054906101000a900460ff1615151515815250509050919050565b6105e06118f4565b600260009054906101000a900473ffffffffffffffffffffffffffffffffffffffff1673ffffffffffffffffffffffffffffffffffffffff16639e281a9883836040518363ffffffff1660e01b815260040161063d929190612125565b600060405180830381600087803b15801561065757600080fd5b505af115801561066b573d6000803e3d6000fd5b505050505050565b61067b6118f4565b600460008773ffffffffffffffffffffffffffffffffffffffff1673ffffffffffffffffffffffffffffffffffffffff16815260200190815260200160002060000160009054906101000a900460ff161561070b576040517f08c379a00000000000000000000000000000000000000000000000000000000081526004016107029061219a565b60405180910390fd5b84600460008873ffffffffffffffffffffffffffffffffffffffff1673ffffffffffffffffffffffffffffffffffffffff1681526020019081526020016000206001018190555083600460008873ffffffffffffffffffffffffffffffffffffffff1673ffffffffffffffffffffffffffffffffffffffff1681526020019081526020016000206002018190555082600460008873ffffffffffffffffffffffffffffffffffffffff1673ffffffffffffffffffffffffffffffffffffffff168152602001908152602001600020600301819055506001600460008873ffffffffffffffffffffffffffffffffffffffff1673ffffffffffffffffffffffffffffffffffffffff16815260200190815260200160002060000160006101000a81548160ff0219169083151502179055508181600460008973ffffffffffffffffffffffffffffffffffffffff1673ffffffffffffffffffffffffffffffffffffffff168152602001908152602001600020600501918261088c9291906123a0565b506001600460008873ffffffffffffffffffffffffffffffffffffffff1673ffffffffffffffffffffffffffffffffffffffff16815260200190815260200160002060060160006101000a81548160ff0219169083151502179055507f62f0fa5319f02e8e89cdeab38db26e37da05500b9983908431721bb06942fad5868686868686604051610921969594939291906124ac565b60405180910390a1505050505050565b6109396118f4565b600260009054906101000a900473ffffffffffffffffffffffffffffffffffffffff1673ffffffffffffffffffffffffffffffffffffffff1663f83d08ba6040518163ffffffff1660e01b8152600401600060405180830381600087803b1580156109a357600080fd5b505af11580156109b7573d6000803e3d6000fd5b50505050565b6109c56118f4565b600260009054906101000a900473ffffffffffffffffffffffffffffffffffffffff1673ffffffffffffffffffffffffffffffffffffffff1663a69df4b56040518163ffffffff1660e01b8152600401600060405180830381600087803b158015610a2f57600080fd5b505af1158015610a43573d6000803e3d6000fd5b50505050565b60008211610a8c576040517f08c379a0000000000000000000000000000000000000000000000000000000008152600401610a8390612554565b60405180910390fd5b8073ffffffffffffffffffffffffffffffffffffffff166323b872dd3330856040518463ffffffff1660e01b8152600401610ac993929190612574565b6020604051808303816000875af1158015610ae8573d6000803e3d6000fd5b505050506040513d601f19601f82011682018060405250810190610b0c91906125c0565b506000600460008373ffffffffffffffffffffffffffffffffffffffff1673ffffffffffffffffffffffffffffffffffffffff16815260200190815260200160002090506000600560008473ffffffffffffffffffffffffffffffffffffffff1673ffffffffffffffffffffffffffffffffffffffff16815260200190815260200160002060003373ffffffffffffffffffffffffffffffffffffffff1673ffffffffffffffffffffffffffffffffffffffff1681526020019081526020016000209050600015158260060160009054906101000a900460ff16151514610c28576040517f08c379a0000000000000000000000000000000000000000000000000000000008152600401610c1f90612639565b60405180910390fd5b600081600001541115610d16576000600354610c448533610e76565b610c4e91906126b7565b90506000811115610d14578373ffffffffffffffffffffffffffffffffffffffff1663a9059cbb33836040518363ffffffff1660e01b8152600401610c94929190612125565b6020604051808303816000875af1158015610cb3573d6000803e3d6000fd5b505050506040513d601f19601f82011682018060405250810190610cd791906125c0565b507ff7a40077ff7a04c7e61f6f26fb13774259ddf1b6bce9ecf26a8276cdd3992683338583604051610d0b93929190612574565b60405180910390a15b505b838160000154610d2691906126e8565b816000018190555042816001018190555060008160020181905550838260040154610d5191906126e8565b82600401819055507f7896c404bfb9173f4c61824c5e10e743eb885c3fe1c1727ed55ac3a51a350874848433604051610d8c9392919061271c565b60405180910390a150505050565b610da26118f4565b600260009054906101000a900473ffffffffffffffffffffffffffffffffffffffff1673ffffffffffffffffffffffffffffffffffffffff1663f2fde38b826040518263ffffffff1660e01b8152600401610dfd9190611fc6565b600060405180830381600087803b158015610e1757600080fd5b505af1158015610e2b573d6000803e3d6000fd5b5050505050565b6000610e3c6118f4565b7f0000000000000000000000000000000000000000000000000000000000000000905090565b610e6a6118f4565b610e746000611972565b565b600080600460008573ffffffffffffffffffffffffffffffffffffffff1673ffffffffffffffffffffffffffffffffffffffff16815260200190815260200160002090506000600560008673ffffffffffffffffffffffffffffffffffffffff1673ffffffffffffffffffffffffffffffffffffffff16815260200190815260200160002060008573ffffffffffffffffffffffffffffffffffffffff1673ffffffffffffffffffffffffffffffffffffffff16815260200190815260200160002090506000816001015442610f4c9190612753565b90506000816301e1338060648660010154670de0b6b3a76400008760000154610f759190612787565b610f7f9190612787565b610f8991906126b7565b610f9391906126b7565b610f9d9190612787565b905060006064856002015483610fb39190612787565b610fbd91906126b7565b905060008183610fcd9190612753565b905080965050505050505092915050565b60008060009054906101000a900473ffffffffffffffffffffffffffffffffffffffff16905090565b61100f6118f4565b600460008373ffffffffffffffffffffffffffffffffffffffff1673ffffffffffffffffffffffffffffffffffffffff16815260200190815260200160002060000160009054906101000a900460ff1661109e576040517f08c379a000000000000000000000000000000000000000000000000000000000815260040161109590612815565b60405180910390fd5b80600460008473ffffffffffffffffffffffffffffffffffffffff1673ffffffffffffffffffffffffffffffffffffffff16815260200190815260200160002060060160006101000a81548160ff0219169083151502179055507f03cacf29ad584516fd75540da918ba0888befbfe14651c0c8b2f05840ae236cf8282604051611129929190612835565b60405180910390a15050565b6000600460008373ffffffffffffffffffffffffffffffffffffffff1673ffffffffffffffffffffffffffffffffffffffff16815260200190815260200160002090506000600560008473ffffffffffffffffffffffffffffffffffffffff1673ffffffffffffffffffffffffffffffffffffffff16815260200190815260200160002060003373ffffffffffffffffffffffffffffffffffffffff1673ffffffffffffffffffffffffffffffffffffffff1681526020019081526020016000209050600015158260060160009054906101000a900460ff16151514611250576040517f08c379a000000000000000000000000000000000000000000000000000000000815260040161124790612639565b60405180910390fd5b600060035461125f8533610e76565b61126991906126b7565b9050600081116112ae576040517f08c379a00000000000000000000000000000000000000000000000000000000081526004016112a5906128aa565b60405180910390fd5b82600301548110156112f5576040517f08c379a00000000000000000000000000000000000000000000000000000000081526004016112ec9061293c565b60405180910390fd5b428260010181905550600082600201819055508373ffffffffffffffffffffffffffffffffffffffff1663a9059cbb33836040518363ffffffff1660e01b8152600401611343929190612125565b6020604051808303816000875af1158015611362573d6000803e3d6000fd5b505050506040513d601f19601f8201168201806040525081019061138691906125c0565b507ff7a40077ff7a04c7e61f6f26fb13774259ddf1b6bce9ecf26a8276cdd39926833385836040516113ba93929190612574565b60405180910390a150505050565b6113d06118f4565b8173ffffffffffffffffffffffffffffffffffffffff1663a9059cbb7f0000000000000000000000000000000000000000000000000000000000000000836040518363ffffffff1660e01b815260040161142b929190612125565b6020604051808303816000875af115801561144a573d6000803e3d6000fd5b505050506040513d601f19601f8201168201806040525081019061146e91906125c0565b505050565b61147b611a7f565b600560008473ffffffffffffffffffffffffffffffffffffffff1673ffffffffffffffffffffffffffffffffffffffff16815260200190815260200160002060008373ffffffffffffffffffffffffffffffffffffffff1673ffffffffffffffffffffffffffffffffffffffff1681526020019081526020016000206040518060600160405290816000820154815260200160018201548152602001600282015481525050905092915050565b6115306118f4565b600073ffffffffffffffffffffffffffffffffffffffff168173ffffffffffffffffffffffffffffffffffffffff160361159f576040517f08c379a0000000000000000000000000000000000000000000000000000000008152600401611596906129ce565b60405180910390fd5b6115a881611972565b50565b6000600460008473ffffffffffffffffffffffffffffffffffffffff1673ffffffffffffffffffffffffffffffffffffffff16815260200190815260200160002090506000600560008573ffffffffffffffffffffffffffffffffffffffff1673ffffffffffffffffffffffffffffffffffffffff16815260200190815260200160002060003373ffffffffffffffffffffffffffffffffffffffff1673ffffffffffffffffffffffffffffffffffffffff1681526020019081526020016000209050600015158260060160009054906101000a900460ff161515146116c6576040517f08c379a00000000000000000000000000000000000000000000000000000000081526004016116bd90612639565b60405180910390fd5b806000015483111561170d576040517f08c379a000000000000000000000000000000000000000000000000000000000815260040161170490612a60565b60405180910390fd5b6000816000015411156117fb5760006003546117298633610e76565b61173391906126b7565b905060008111156117f9578473ffffffffffffffffffffffffffffffffffffffff1663a9059cbb33836040518363ffffffff1660e01b8152600401611779929190612125565b6020604051808303816000875af1158015611798573d6000803e3d6000fd5b505050506040513d601f19601f820116820180604052508101906117bc91906125c0565b507ff7a40077ff7a04c7e61f6f26fb13774259ddf1b6bce9ecf26a8276cdd39926833386836040516117f093929190612574565b60405180910390a15b505b82816000015461180b9190612753565b816000018190555042816001018190555082826004015461182c9190612753565b82600401819055508373ffffffffffffffffffffffffffffffffffffffff1663a9059cbb33856040518363ffffffff1660e01b815260040161186f929190612125565b6020604051808303816000875af115801561188e573d6000803e3d6000fd5b505050506040513d601f19601f820116820180604052508101906118b291906125c0565b507fd1c19fbcd4551a5edfb66d43d2e337c04837afda3482b42bdf569a8fccdae5fb3385856040516118e693929190612574565b60405180910390a150505050565b6118fc611a36565b73ffffffffffffffffffffffffffffffffffffffff1661191a610fde565b73ffffffffffffffffffffffffffffffffffffffff1614611970576040517f08c379a000000000000000000000000000000000000000000000000000000000815260040161196790612acc565b60405180910390fd5b565b60008060009054906101000a900473ffffffffffffffffffffffffffffffffffffffff169050816000806101000a81548173ffffffffffffffffffffffffffffffffffffffff021916908373ffffffffffffffffffffffffffffffffffffffff1602179055508173ffffffffffffffffffffffffffffffffffffffff168173ffffffffffffffffffffffffffffffffffffffff167f8be0079c531659141344cd1fd0a4f28419497f9722a3daafe3b4186f6b6457e060405160405180910390a35050565b600033905090565b6040518060e0016040528060001515815260200160008152602001600081526020016000815260200160008152602001606081526020016000151581525090565b60405180606001604052806000815260200160008152602001600081525090565b600080fd5b600080fd5b600073ffffffffffffffffffffffffffffffffffffffff82169050919050565b6000611ad582611aaa565b9050919050565b611ae581611aca565b8114611af057600080fd5b50565b600081359050611b0281611adc565b92915050565b60008060408385031215611b1f57611b1e611aa0565b5b6000611b2d85828601611af3565b9250506020611b3e85828601611af3565b9150509250929050565b6000819050919050565b611b5b81611b48565b82525050565b6000606082019050611b766000830186611b52565b611b836020830185611b52565b611b906040830184611b52565b949350505050565b600060208284031215611bae57611bad611aa0565b5b6000611bbc84828501611af3565b91505092915050565b60008115159050919050565b611bda81611bc5565b82525050565b600081519050919050565b600082825260208201905092915050565b60005b83811015611c1a578082015181840152602081019050611bff565b60008484015250505050565b6000601f19601f8301169050919050565b6000611c4282611be0565b611c4c8185611beb565b9350611c5c818560208601611bfc565b611c6581611c26565b840191505092915050565b600060e082019050611c85600083018a611bd1565b611c926020830189611b52565b611c9f6040830188611b52565b611cac6060830187611b52565b611cb96080830186611b52565b81810360a0830152611ccb8185611c37565b9050611cda60c0830184611bd1565b98975050505050505050565b611cef81611bc5565b82525050565b611cfe81611b48565b82525050565b600082825260208201905092915050565b6000611d2082611be0565b611d2a8185611d04565b9350611d3a818560208601611bfc565b611d4381611c26565b840191505092915050565b600060e083016000830151611d666000860182611ce6565b506020830151611d796020860182611cf5565b506040830151611d8c6040860182611cf5565b506060830151611d9f6060860182611cf5565b506080830151611db26080860182611cf5565b5060a083015184820360a0860152611dca8282611d15565b91505060c0830151611ddf60c0860182611ce6565b508091505092915050565b60006020820190508181036000830152611e048184611d4e565b905092915050565b611e1581611b48565b8114611e2057600080fd5b50565b600081359050611e3281611e0c565b92915050565b60008060408385031215611e4f57611e4e611aa0565b5b6000611e5d85828601611af3565b9250506020611e6e85828601611e23565b9150509250929050565b600080fd5b600080fd5b600080fd5b60008083601f840112611e9d57611e9c611e78565b5b8235905067ffffffffffffffff811115611eba57611eb9611e7d565b5b602083019150836001820283011115611ed657611ed5611e82565b5b9250929050565b60008060008060008060a08789031215611efa57611ef9611aa0565b5b6000611f0889828a01611af3565b9650506020611f1989828a01611e23565b9550506040611f2a89828a01611e23565b9450506060611f3b89828a01611e23565b935050608087013567ffffffffffffffff811115611f5c57611f5b611aa5565b5b611f6889828a01611e87565b92509250509295509295509295565b60008060408385031215611f8e57611f8d611aa0565b5b6000611f9c85828601611e23565b9250506020611fad85828601611af3565b9150509250929050565b611fc081611aca565b82525050565b6000602082019050611fdb6000830184611fb7565b92915050565b6000602082019050611ff66000830184611b52565b92915050565b61200581611bc5565b811461201057600080fd5b50565b60008135905061202281611ffc565b92915050565b6000806040838503121561203f5761203e611aa0565b5b600061204d85828601611af3565b925050602061205e85828601612013565b9150509250929050565b60608201600082015161207e6000850182611cf5565b5060208201516120916020850182611cf5565b5060408201516120a46040850182611cf5565b50505050565b60006060820190506120bf6000830184612068565b92915050565b7f4e487b7100000000000000000000000000000000000000000000000000000000600052602260045260246000fd5b6000600282049050600182168061210c57607f821691505b60208210810361211f5761211e6120c5565b5b50919050565b600060408201905061213a6000830185611fb7565b6121476020830184611b52565b9392505050565b7f5468697320706f6f6c20697320616c7265616479206372656174656400000000600082015250565b6000612184601c83611beb565b915061218f8261214e565b602082019050919050565b600060208201905081810360008301526121b381612177565b9050919050565b600082905092915050565b7f4e487b7100000000000000000000000000000000000000000000000000000000600052604160045260246000fd5b60008190508160005260206000209050919050565b60006020601f8301049050919050565b600082821b905092915050565b6000600883026122567fffffffffffffffffffffffffffffffffffffffffffffffffffffffffffffffff82612219565b6122608683612219565b95508019841693508086168417925050509392505050565b6000819050919050565b600061229d61229861229384611b48565b612278565b611b48565b9050919050565b6000819050919050565b6122b783612282565b6122cb6122c3826122a4565b848454612226565b825550505050565b600090565b6122e06122d3565b6122eb8184846122ae565b505050565b5b8181101561230f576123046000826122d8565b6001810190506122f1565b5050565b601f82111561235457612325816121f4565b61232e84612209565b8101602085101561233d578190505b61235161234985612209565b8301826122f0565b50505b505050565b600082821c905092915050565b600061237760001984600802612359565b1980831691505092915050565b60006123908383612366565b9150826002028217905092915050565b6123aa83836121ba565b67ffffffffffffffff8111156123c3576123c26121c5565b5b6123cd82546120f4565b6123d8828285612313565b6000601f83116001811461240757600084156123f5578287013590505b6123ff8582612384565b865550612467565b601f198416612415866121f4565b60005b8281101561243d57848901358255600182019150602085019450602081019050612418565b8683101561245a5784890135612456601f891682612366565b8355505b6001600288020188555050505b50505050505050565b82818337600083830152505050565b600061248b8385611beb565b9350612498838584612470565b6124a183611c26565b840190509392505050565b600060a0820190506124c16000830189611fb7565b6124ce6020830188611b52565b6124db6040830187611b52565b6124e86060830186611b52565b81810360808301526124fb81848661247f565b9050979650505050505050565b7f416d6f756e74206d757374206265206f766572207a65726f0000000000000000600082015250565b600061253e601883611beb565b915061254982612508565b602082019050919050565b6000602082019050818103600083015261256d81612531565b9050919050565b60006060820190506125896000830186611fb7565b6125966020830185611fb7565b6125a36040830184611b52565b949350505050565b6000815190506125ba81611ffc565b92915050565b6000602082840312156125d6576125d5611aa0565b5b60006125e4848285016125ab565b91505092915050565b7f506f6f6c206d75737420626520756e7061757365640000000000000000000000600082015250565b6000612623601583611beb565b915061262e826125ed565b602082019050919050565b6000602082019050818103600083015261265281612616565b9050919050565b7f4e487b7100000000000000000000000000000000000000000000000000000000600052601260045260246000fd5b7f4e487b7100000000000000000000000000000000000000000000000000000000600052601160045260246000fd5b60006126c282611b48565b91506126cd83611b48565b9250826126dd576126dc612659565b5b828204905092915050565b60006126f382611b48565b91506126fe83611b48565b925082820190508082111561271657612715612688565b5b92915050565b60006060820190506127316000830186611b52565b61273e6020830185611fb7565b61274b6040830184611fb7565b949350505050565b600061275e82611b48565b915061276983611b48565b925082820390508181111561278157612780612688565b5b92915050565b600061279282611b48565b915061279d83611b48565b92508282026127ab81611b48565b915082820484148315176127c2576127c1612688565b5b5092915050565b7f5468697320706f6f6c206973206e6f7420637265617465640000000000000000600082015250565b60006127ff601883611beb565b915061280a826127c9565b602082019050919050565b6000602082019050818103600083015261282e816127f2565b9050919050565b600060408201905061284a6000830185611fb7565b6128576020830184611bd1565b9392505050565b7f4e6f2072657761726420746f20636c61696d0000000000000000000000000000600082015250565b6000612894601283611beb565b915061289f8261285e565b602082019050919050565b600060208201905081810360008301526128c381612887565b9050919050565b7f4e6f7420656e6f756768206d696e696d756d207265776172647320746f20636c60008201527f61696d0000000000000000000000000000000000000000000000000000000000602082015250565b6000612926602383611beb565b9150612931826128ca565b604082019050919050565b6000602082019050818103600083015261295581612919565b9050919050565b7f4f776e61626c653a206e6577206f776e657220697320746865207a65726f206160008201527f6464726573730000000000000000000000000000000000000000000000000000602082015250565b60006129b8602683611beb565b91506129c38261295c565b604082019050919050565b600060208201905081810360008301526129e7816129ab565b9050919050565b7f54686520616d6f756e74206973206f76657220796f75722062616c616e63652060008201527f696e207468697320706f6f6c0000000000000000000000000000000000000000602082015250565b6000612a4a602c83611beb565b9150612a55826129ee565b604082019050919050565b60006020820190508181036000830152612a7981612a3d565b9050919050565b7f4f776e61626c653a2063616c6c6572206973206e6f7420746865206f776e6572600082015250565b6000612ab6602083611beb565b9150612ac182612a80565b602082019050919050565b60006020820190508181036000830152612ae581612aa9565b905091905056fea264697066735822122085580b2d25870eb3cf6fe2b665364b969bd30c7a46ae8a72b426fa17bb339c1764736f6c63430008120033",
  "immutableReferences": {
    "1056": [
      {
        "length": 32,
        "start": 3646
      },
      {
        "length": 32,
        "start": 5102
      }
    ]
  },
  "source": "// SPDX-License-Identifier: MIT\npragma solidity ^0.8.18;\n\nimport \"@openzeppelin/contracts/access/Ownable.sol\";\nimport \"@openzeppelin/contracts/token/ERC20/IERC20.sol\";\nimport \"@openzeppelin/contracts/token/ERC20/utils/SafeERC20.sol\";\nimport \"@chainlink/contracts/src/v0.8/interfaces/AggregatorV3Interface.sol\";\n\nimport \"./IVaultStaking.sol\";\n\ncontract Staking is Ownable {\n\n    //using SafeERC20 for IERC20; //https://docs.openzeppelin.com/contracts/4.x/api/token/erc20#SafeERC20\n\n    IERC20 private rewardToken;\n    IVaultStaking private myVault;\n    address private immutable vaultAddress;\n\n    constructor (IERC20 _rewardToken, address _vaultAddress) {\n        rewardToken = _rewardToken;\n        myVault = IVaultStaking(_vaultAddress);\n        vaultAddress = _vaultAddress;\n    }\n\n    function unlockVault() external onlyOwner {\n        myVault.unlock();\n    }\n\n    function transferVaultOwner(address _address) external onlyOwner {\n        myVault.transferOwnership(_address);\n    }\n\n   function lockVault() external onlyOwner {\n        myVault.lock();\n    }\n\n    function withdrawFromVault(address _tokenAddress, uint256 _amount) external onlyOwner {\n        myVault.withdrawToken(_tokenAddress, _amount);\n    }\n\n    function sendBackToVault(address _tokenAddress, uint256 _amount) external onlyOwner {\n        IERC20(_tokenAddress).transfer(vaultAddress, _amount);\n    }\n\n    function getMyVault() external onlyOwner view returns(address) {\n        return(vaultAddress);\n    }\n\n    // decimal defnit pour le calcul des rewards\n    uint256 rewardDecimal = 1e18; // for testing 1e15 vs production 1e18\n\n    struct UserInfo {\n        uint256 stakedAmount; \n        uint256 lastStakedTimestamp;\n        uint256 reward;\n    }\n\n    struct PoolData {\n        bool isCreated;\n        uint256 apr;\n        uint256 fees;\n        uint256 minimumClaim;\n        uint256 totalValueLocked;\n        string symbol;\n        bool paused;\n        //address oracleAggregatorAddress;\n    }\n\n    // Map token adress\n    mapping(address => PoolData) public poolData;\n    // Map token adress then user address\n    mapping (address => mapping (address => UserInfo)) public userInfo;\n    \n    event PoolCreated (address tokenAddress, uint256 apr, uint256 fees, uint256 minimumClaim, string symbol);\n    event Deposited(uint256 amount, address asset, address user);\n    event Withdrawn (address receiver, address tokenAddress, uint256 amountWithdraw);\n    event Claimed (address receiver, address tokenAddress, uint rewardClaimedAmount);\n    event PausedPoolStatus (address tokenAddress, bool pausedStatus);\n\n    function createLiquidityPool(address _tokenAddress, uint256 _apr, uint256 _fees, uint256 _minimumClaim, string calldata _symbol) external onlyOwner {\n        require(!poolData[_tokenAddress].isCreated, \"This pool is already created\");\n\n        poolData[_tokenAddress].apr = _apr;\n        poolData[_tokenAddress].fees = _fees;\n        poolData[_tokenAddress].minimumClaim = _minimumClaim;\n        poolData[_tokenAddress].isCreated = true;\n        poolData[_tokenAddress].symbol = _symbol;\n        poolData[_tokenAddress].paused = true;\n        //poolData[_tokenAddress].oracleAggregatorAddress = _oracleAggregatorAddress;\n\n        emit PoolCreated(_tokenAddress, _apr, _fees, _minimumClaim, _symbol);\n    }\n\n    function setPoolPaused(address _tokenAddress, bool _value) external onlyOwner {\n        require(poolData[_tokenAddress].isCreated, \"This pool is not created\");\n        poolData[_tokenAddress].paused = _value;\n        emit PausedPoolStatus(_tokenAddress, _value);\n    }\n\n    // Dans Remix utiliser IERC20 avec le parametre \"At adress\" adresse du token de rewards\n    // puis dans l'interface \"Approve\" l'adresse du contrat de Staking et amount = 1000000000000000000 = 1 ETH\n    function deposit(uint256 _amount, address _tokenAddress) external {\n        //require(IERC20(_tokenAddress).allowance(msg.sender, address(this)) >= _amount, \"Insufficient allowance\");\n         require(_amount > 0, \"Amount must be over zero\");\n\n        //IERC20(_tokenAddress).approve(address(this), _amount);\n        IERC20(_tokenAddress).transferFrom(msg.sender, address(this), _amount);\n\n        PoolData storage poolStorage = poolData[_tokenAddress];\n        UserInfo storage userStorage = userInfo[_tokenAddress][msg.sender];\n        require(poolStorage.paused == false, \"Pool must be unpaused\");\n\n        // Set user current rewards to storage before deposit\n        // userStorage.reward = userStorage.reward + (calculateReward(_tokenAddress, msg.sender) / rewardDecimal); // for testing divide by 1e15 against 1e18\n        // Claim pending rewards before new deposit\n        if (userStorage.stakedAmount > 0) {\n            uint256 pendingReward = (calculateReward(_tokenAddress, msg.sender) / rewardDecimal);\n            if (pendingReward > 0) {\n                IERC20(_tokenAddress).transfer(msg.sender, pendingReward);\n                emit Claimed(msg.sender, _tokenAddress, pendingReward);\n            }\n        }\n\n        // Update the staked amount and the timestamp to compute new amount reward at this specific time\n        userStorage.stakedAmount = userStorage.stakedAmount + _amount;\n        userStorage.lastStakedTimestamp = block.timestamp; \n        userStorage.reward = 0;\n\n        // Update the tvl of the liquidity pool\n        poolStorage.totalValueLocked = poolStorage.totalValueLocked  + _amount;\n        emit Deposited(_amount, _tokenAddress, msg.sender);\n    }\n\n    function withdraw(address _tokenAddress, uint256 _amount) external {\n        PoolData storage poolStorage = poolData[_tokenAddress];\n        UserInfo storage userStorage = userInfo[_tokenAddress][msg.sender];\n        \n        require(poolStorage.paused == false, \"Pool must be unpaused\");\n        require(_amount <= userStorage.stakedAmount, \"The amount is over your balance in this pool\");\n\n        // save reward before withdraw to be able to claim it later\n        //userStorage.reward = userStorage.reward + (calculateReward(_tokenAddress, msg.sender) / rewardDecimal); // for testing divide by 1e15 against 1e18\n        // Claim pending rewards before new deposit\n        if (userStorage.stakedAmount > 0) {\n            uint256 pendingReward = (calculateReward(_tokenAddress, msg.sender) / rewardDecimal);\n            if (pendingReward > 0) {\n                IERC20(_tokenAddress).transfer(msg.sender, pendingReward);\n                emit Claimed(msg.sender, _tokenAddress, pendingReward);\n            }\n        }\n\n        // Update the staked amount and the timestamp to compute new amount reward at this specific time\n        userStorage.stakedAmount = userStorage.stakedAmount - _amount;\n        userStorage.lastStakedTimestamp = block.timestamp;\n\n        // Update the tvl of the liquidity pool\n        poolStorage.totalValueLocked = poolStorage.totalValueLocked  - _amount;\n\n        // Send the token back to the sender\n        //IERC20(_tokenAddress).approve(address(this), _amount);\n        IERC20(_tokenAddress).transfer(msg.sender, _amount);\n    \n        emit Withdrawn(msg.sender, _tokenAddress, _amount);\n    }\n\n    function calculateReward(address _tokenAddress, address _user) public view returns (uint256) {\n        PoolData storage poolStorage = poolData[_tokenAddress];\n        UserInfo storage userStorage = userInfo[_tokenAddress][_user];\n        uint256 stakingDuration = block.timestamp - userStorage.lastStakedTimestamp; // not ideal cause latency but it is ok\n        // calcul : amountRewards = staked amount * reward rate per second * elapsedtime\n        // BE CAREFUL : amount multiplication by 1e18 for decimal so need to divide by 1e18 in the front\n        uint256 amountRewards = ((((userStorage.stakedAmount * 1e18 * poolStorage.apr) / 100) / 31536000) * stakingDuration);\n        uint256 feesAmount = ((amountRewards * poolStorage.fees) / 100);\n        uint256 netRewards = amountRewards - feesAmount;\n        return netRewards;\n    }\n\n    function claimReward(address _tokenAddress) external {\n        PoolData storage poolStorage = poolData[_tokenAddress];\n        UserInfo storage userStorage = userInfo[_tokenAddress][msg.sender];\n        require(poolStorage.paused == false, \"Pool must be unpaused\");\n        uint256 reward = (calculateReward(_tokenAddress, msg.sender) / rewardDecimal); // for testing divide by 1e15 against 1e18\n        require(reward > 0, \"No reward to claim\");\n        require(reward >= poolStorage.minimumClaim, \"Not enough minimum rewards to claim\");\n        \n        // Update the timestamp and the reward amount\n        userStorage.lastStakedTimestamp = block.timestamp;\n        userStorage.reward = 0;\n        IERC20(_tokenAddress).transfer(msg.sender, reward);\n        emit Claimed(msg.sender, _tokenAddress, reward);\n    }\n\n    function getUserInfo(address _tokenAddress, address _userAddress) external view returns (UserInfo memory) {\n        return(userInfo[_tokenAddress][_userAddress]);\n    }\n\n    function getPoolData(address _tokenAddress) external view returns (PoolData memory) {\n        return poolData[_tokenAddress];\n    }\n\n\n// DEBUG FUNCTIONS\n\n /*   function displayStakingDuration(address _tokenAddress, address _user) public view returns (uint256) {\n        UserInfo storage userStorage = userInfo[_tokenAddress][_user];\n        uint256 stakingDuration = block.timestamp - userStorage.lastStakedTimestamp; // not ideal cause latency but it is ok\n        return stakingDuration;\n    }\n\n    function displayAmountRewardsInWei(address _tokenAddress, address _user) public view returns (uint256) {\n        PoolData storage poolStorage = poolData[_tokenAddress];\n        UserInfo storage userStorage = userInfo[_tokenAddress][_user];\n        uint256 stakingDuration = block.timestamp - userStorage.lastStakedTimestamp; // not ideal cause latency but it is ok\n        uint256 amountRewards = ((((userStorage.stakedAmount * 1e18 * poolStorage.apr) / 100) / 31536000) * stakingDuration);\n        return amountRewards;\n    }\n\n    function displayFeesAmountInWei(address _tokenAddress, address _user) public view returns (uint256) {\n        PoolData storage poolStorage = poolData[_tokenAddress];\n        UserInfo storage userStorage = userInfo[_tokenAddress][_user];\n        uint256 stakingDuration = block.timestamp - userStorage.lastStakedTimestamp; // not ideal cause latency but it is ok\n        uint256 amountRewards = ((((userStorage.stakedAmount * 1e18 * poolStorage.apr) / 100) / 31536000) * stakingDuration);\n        uint256 feesAmount = ((amountRewards * poolStorage.fees) / 100);\n        return feesAmount;\n    }\n*/\n}",
  "sourcePath": "/home/adm-linux/projet4/truffle/contracts/Staking.sol",
  "compiler": {
    "name": "solc",
    "version": "0.8.18+commit.87f61d96.Emscripten.clang"
  },
  "schemaVersion": "3.4.14",
  "updatedAt": "2023-07-23T21:11:35.202Z",
  "networkType": "ethereum",
  "devdoc": {
    "kind": "dev",
    "methods": {
      "owner()": {
        "details": "Returns the address of the current owner."
      },
      "renounceOwnership()": {
        "details": "Leaves the contract without owner. It will not be possible to call `onlyOwner` functions. Can only be called by the current owner. NOTE: Renouncing ownership will leave the contract without an owner, thereby disabling any functionality that is only available to the owner."
      },
      "transferOwnership(address)": {
        "details": "Transfers ownership of the contract to a new account (`newOwner`). Can only be called by the current owner."
      }
    },
    "version": 1
  },
  "userdoc": {
    "kind": "user",
    "methods": {},
    "version": 1
  }
}