{
  "contractName": "Staking",
  "abi": [
    {
      "inputs": [
        {
          "internalType": "contract IERC20",
          "name": "_rewardToken",
          "type": "address"
        },
        {
          "internalType": "address",
          "name": "_vaultAddress",
          "type": "address"
        }
      ],
      "stateMutability": "nonpayable",
      "type": "constructor"
    },
    {
      "anonymous": false,
      "inputs": [
        {
          "indexed": false,
          "internalType": "address",
          "name": "receiver",
          "type": "address"
        },
        {
          "indexed": false,
          "internalType": "address",
          "name": "tokenAddress",
          "type": "address"
        },
        {
          "indexed": false,
          "internalType": "uint256",
          "name": "rewardClaimedAmount",
          "type": "uint256"
        }
      ],
      "name": "Claimed",
      "type": "event"
    },
    {
      "anonymous": false,
      "inputs": [
        {
          "indexed": false,
          "internalType": "uint256",
          "name": "amount",
          "type": "uint256"
        },
        {
          "indexed": false,
          "internalType": "address",
          "name": "asset",
          "type": "address"
        },
        {
          "indexed": false,
          "internalType": "address",
          "name": "user",
          "type": "address"
        }
      ],
      "name": "Deposited",
      "type": "event"
    },
    {
      "anonymous": false,
      "inputs": [
        {
          "indexed": true,
          "internalType": "address",
          "name": "previousOwner",
          "type": "address"
        },
        {
          "indexed": true,
          "internalType": "address",
          "name": "newOwner",
          "type": "address"
        }
      ],
      "name": "OwnershipTransferred",
      "type": "event"
    },
    {
      "anonymous": false,
      "inputs": [
        {
          "indexed": false,
          "internalType": "address",
          "name": "tokenAddress",
          "type": "address"
        },
        {
          "indexed": false,
          "internalType": "bool",
          "name": "pausedStatus",
          "type": "bool"
        }
      ],
      "name": "PausedPoolStatus",
      "type": "event"
    },
    {
      "anonymous": false,
      "inputs": [
        {
          "indexed": false,
          "internalType": "address",
          "name": "tokenAddress",
          "type": "address"
        },
        {
          "indexed": false,
          "internalType": "uint256",
          "name": "apr",
          "type": "uint256"
        },
        {
          "indexed": false,
          "internalType": "uint256",
          "name": "fees",
          "type": "uint256"
        },
        {
          "indexed": false,
          "internalType": "uint256",
          "name": "minimumClaim",
          "type": "uint256"
        },
        {
          "indexed": false,
          "internalType": "string",
          "name": "symbol",
          "type": "string"
        }
      ],
      "name": "PoolCreated",
      "type": "event"
    },
    {
      "anonymous": false,
      "inputs": [
        {
          "indexed": false,
          "internalType": "address",
          "name": "tokenAddress",
          "type": "address"
        },
        {
          "indexed": false,
          "internalType": "uint256",
          "name": "oldAmount",
          "type": "uint256"
        },
        {
          "indexed": false,
          "internalType": "uint256",
          "name": "newAmount",
          "type": "uint256"
        }
      ],
      "name": "PoolMinimumToClaimChanged",
      "type": "event"
    },
    {
      "anonymous": false,
      "inputs": [
        {
          "indexed": false,
          "internalType": "address",
          "name": "receiver",
          "type": "address"
        },
        {
          "indexed": false,
          "internalType": "address",
          "name": "tokenAddress",
          "type": "address"
        },
        {
          "indexed": false,
          "internalType": "uint256",
          "name": "amountWithdraw",
          "type": "uint256"
        }
      ],
      "name": "Withdrawn",
      "type": "event"
    },
    {
      "inputs": [],
      "name": "owner",
      "outputs": [
        {
          "internalType": "address",
          "name": "",
          "type": "address"
        }
      ],
      "stateMutability": "view",
      "type": "function",
      "constant": true
    },
    {
      "inputs": [
        {
          "internalType": "address",
          "name": "",
          "type": "address"
        }
      ],
      "name": "poolData",
      "outputs": [
        {
          "internalType": "bool",
          "name": "isCreated",
          "type": "bool"
        },
        {
          "internalType": "uint256",
          "name": "apr",
          "type": "uint256"
        },
        {
          "internalType": "uint256",
          "name": "fees",
          "type": "uint256"
        },
        {
          "internalType": "uint256",
          "name": "minimumClaim",
          "type": "uint256"
        },
        {
          "internalType": "uint256",
          "name": "totalValueLocked",
          "type": "uint256"
        },
        {
          "internalType": "string",
          "name": "symbol",
          "type": "string"
        },
        {
          "internalType": "bool",
          "name": "paused",
          "type": "bool"
        }
      ],
      "stateMutability": "view",
      "type": "function",
      "constant": true
    },
    {
      "inputs": [],
      "name": "renounceOwnership",
      "outputs": [],
      "stateMutability": "nonpayable",
      "type": "function"
    },
    {
      "inputs": [
        {
          "internalType": "address",
          "name": "newOwner",
          "type": "address"
        }
      ],
      "name": "transferOwnership",
      "outputs": [],
      "stateMutability": "nonpayable",
      "type": "function"
    },
    {
      "inputs": [
        {
          "internalType": "address",
          "name": "",
          "type": "address"
        },
        {
          "internalType": "address",
          "name": "",
          "type": "address"
        }
      ],
      "name": "userInfo",
      "outputs": [
        {
          "internalType": "uint256",
          "name": "stakedAmount",
          "type": "uint256"
        },
        {
          "internalType": "uint256",
          "name": "lastStakedTimestamp",
          "type": "uint256"
        },
        {
          "internalType": "uint256",
          "name": "reward",
          "type": "uint256"
        }
      ],
      "stateMutability": "view",
      "type": "function",
      "constant": true
    },
    {
      "inputs": [],
      "name": "unlockVault",
      "outputs": [],
      "stateMutability": "nonpayable",
      "type": "function"
    },
    {
      "inputs": [
        {
          "internalType": "address",
          "name": "_address",
          "type": "address"
        }
      ],
      "name": "transferVaultOwner",
      "outputs": [],
      "stateMutability": "nonpayable",
      "type": "function"
    },
    {
      "inputs": [],
      "name": "lockVault",
      "outputs": [],
      "stateMutability": "nonpayable",
      "type": "function"
    },
    {
      "inputs": [
        {
          "internalType": "address",
          "name": "_tokenAddress",
          "type": "address"
        },
        {
          "internalType": "uint256",
          "name": "_amount",
          "type": "uint256"
        }
      ],
      "name": "withdrawFromVault",
      "outputs": [],
      "stateMutability": "nonpayable",
      "type": "function"
    },
    {
      "inputs": [
        {
          "internalType": "address",
          "name": "_tokenAddress",
          "type": "address"
        },
        {
          "internalType": "uint256",
          "name": "_amount",
          "type": "uint256"
        }
      ],
      "name": "sendBackToVault",
      "outputs": [],
      "stateMutability": "nonpayable",
      "type": "function"
    },
    {
      "inputs": [],
      "name": "getMyVault",
      "outputs": [
        {
          "internalType": "address",
          "name": "",
          "type": "address"
        }
      ],
      "stateMutability": "view",
      "type": "function",
      "constant": true
    },
    {
      "inputs": [
        {
          "internalType": "address",
          "name": "_tokenAddress",
          "type": "address"
        },
        {
          "internalType": "uint256",
          "name": "_apr",
          "type": "uint256"
        },
        {
          "internalType": "uint256",
          "name": "_fees",
          "type": "uint256"
        },
        {
          "internalType": "uint256",
          "name": "_minimumClaim",
          "type": "uint256"
        },
        {
          "internalType": "string",
          "name": "_symbol",
          "type": "string"
        }
      ],
      "name": "createLiquidityPool",
      "outputs": [],
      "stateMutability": "nonpayable",
      "type": "function"
    },
    {
      "inputs": [
        {
          "internalType": "address",
          "name": "_tokenAddress",
          "type": "address"
        },
        {
          "internalType": "uint256",
          "name": "_amount",
          "type": "uint256"
        }
      ],
      "name": "approveEVCT",
      "outputs": [],
      "stateMutability": "nonpayable",
      "type": "function"
    },
    {
      "inputs": [
        {
          "internalType": "address",
          "name": "_tokenAddress",
          "type": "address"
        },
        {
          "internalType": "bool",
          "name": "_value",
          "type": "bool"
        }
      ],
      "name": "setPoolPaused",
      "outputs": [],
      "stateMutability": "nonpayable",
      "type": "function"
    },
    {
      "inputs": [
        {
          "internalType": "address",
          "name": "_tokenAddress",
          "type": "address"
        },
        {
          "internalType": "uint256",
          "name": "_amount",
          "type": "uint256"
        }
      ],
      "name": "setPoolMinimumToClaim",
      "outputs": [],
      "stateMutability": "nonpayable",
      "type": "function"
    },
    {
      "inputs": [
        {
          "internalType": "uint256",
          "name": "_amount",
          "type": "uint256"
        },
        {
          "internalType": "address",
          "name": "_tokenAddress",
          "type": "address"
        }
      ],
      "name": "deposit",
      "outputs": [],
      "stateMutability": "payable",
      "type": "function",
      "payable": true
    },
    {
      "inputs": [
        {
          "internalType": "address",
          "name": "_tokenAddress",
          "type": "address"
        },
        {
          "internalType": "uint256",
          "name": "_amount",
          "type": "uint256"
        }
      ],
      "name": "withdraw",
      "outputs": [],
      "stateMutability": "nonpayable",
      "type": "function"
    },
    {
      "inputs": [
        {
          "internalType": "address",
          "name": "_tokenAddress",
          "type": "address"
        },
        {
          "internalType": "address",
          "name": "_user",
          "type": "address"
        }
      ],
      "name": "calculateReward",
      "outputs": [
        {
          "internalType": "uint256",
          "name": "",
          "type": "uint256"
        }
      ],
      "stateMutability": "view",
      "type": "function",
      "constant": true
    },
    {
      "inputs": [
        {
          "internalType": "address",
          "name": "_tokenAddress",
          "type": "address"
        }
      ],
      "name": "claimReward",
      "outputs": [],
      "stateMutability": "nonpayable",
      "type": "function"
    },
    {
      "inputs": [
        {
          "internalType": "address",
          "name": "_tokenAddress",
          "type": "address"
        },
        {
          "internalType": "address",
          "name": "_userAddress",
          "type": "address"
        }
      ],
      "name": "getUserInfo",
      "outputs": [
        {
          "components": [
            {
              "internalType": "uint256",
              "name": "stakedAmount",
              "type": "uint256"
            },
            {
              "internalType": "uint256",
              "name": "lastStakedTimestamp",
              "type": "uint256"
            },
            {
              "internalType": "uint256",
              "name": "reward",
              "type": "uint256"
            }
          ],
          "internalType": "struct Staking.UserInfo",
          "name": "",
          "type": "tuple"
        }
      ],
      "stateMutability": "view",
      "type": "function",
      "constant": true
    },
    {
      "inputs": [
        {
          "internalType": "address",
          "name": "_tokenAddress",
          "type": "address"
        }
      ],
      "name": "getPoolData",
      "outputs": [
        {
          "components": [
            {
              "internalType": "bool",
              "name": "isCreated",
              "type": "bool"
            },
            {
              "internalType": "uint256",
              "name": "apr",
              "type": "uint256"
            },
            {
              "internalType": "uint256",
              "name": "fees",
              "type": "uint256"
            },
            {
              "internalType": "uint256",
              "name": "minimumClaim",
              "type": "uint256"
            },
            {
              "internalType": "uint256",
              "name": "totalValueLocked",
              "type": "uint256"
            },
            {
              "internalType": "string",
              "name": "symbol",
              "type": "string"
            },
            {
              "internalType": "bool",
              "name": "paused",
              "type": "bool"
            }
          ],
          "internalType": "struct Staking.PoolData",
          "name": "",
          "type": "tuple"
        }
      ],
      "stateMutability": "view",
      "type": "function",
      "constant": true
    }
  ],
  "bytecode": "0x60a0604052670de0b6b3a76400006003553480156200001d57600080fd5b50604051620031cf380380620031cf83398181016040528101906200004391906200029c565b62000063620000576200012160201b60201c565b6200012960201b60201c565b81600160006101000a81548173ffffffffffffffffffffffffffffffffffffffff021916908373ffffffffffffffffffffffffffffffffffffffff16021790555080600260006101000a81548173ffffffffffffffffffffffffffffffffffffffff021916908373ffffffffffffffffffffffffffffffffffffffff1602179055508073ffffffffffffffffffffffffffffffffffffffff1660808173ffffffffffffffffffffffffffffffffffffffff16815250505050620002e3565b600033905090565b60008060009054906101000a900473ffffffffffffffffffffffffffffffffffffffff169050816000806101000a81548173ffffffffffffffffffffffffffffffffffffffff021916908373ffffffffffffffffffffffffffffffffffffffff1602179055508173ffffffffffffffffffffffffffffffffffffffff168173ffffffffffffffffffffffffffffffffffffffff167f8be0079c531659141344cd1fd0a4f28419497f9722a3daafe3b4186f6b6457e060405160405180910390a35050565b600080fd5b600073ffffffffffffffffffffffffffffffffffffffff82169050919050565b60006200021f82620001f2565b9050919050565b6000620002338262000212565b9050919050565b620002458162000226565b81146200025157600080fd5b50565b60008151905062000265816200023a565b92915050565b620002768162000212565b81146200028257600080fd5b50565b60008151905062000296816200026b565b92915050565b60008060408385031215620002b657620002b5620001ed565b5b6000620002c68582860162000254565b9250506020620002d98582860162000285565b9150509250929050565b608051612ec96200030660003960008181611049015261175e0152612ec96000f3fe60806040526004361061012a5760003560e01c80636f8206ba116100ab578063b900de111161006f578063b900de11146103af578063d279c191146103d8578063ee49a41b14610401578063f2801fe71461042a578063f2fde38b14610467578063f3fef3a3146104905761012a565b80636f8206ba146102dc578063715018a6146103075780637b4dd8b11461031e5780637ca44fcf146103475780638da5cb5b146103845761012a565b806329ef057e116100f257806329ef057e1461024057806348bdd1981461026957806362f69039146102805780636e553f65146102975780636e783b98146102b35761012a565b80630f208beb1461012f578063136efb7a1461016e57806313d21cdf146101b15780631ce37e55146101ee57806321116f4e14610217575b600080fd5b34801561013b57600080fd5b5061015660048036038101906101519190611e78565b6104b9565b60405161016593929190611ed1565b60405180910390f35b34801561017a57600080fd5b5061019560048036038101906101909190611f08565b6104f0565b6040516101a89796959493929190611fe0565b60405180910390f35b3480156101bd57600080fd5b506101d860048036038101906101d39190611f08565b6105d4565b6040516101e5919061215a565b60405180910390f35b3480156101fa57600080fd5b50610215600480360381019061021091906121a8565b61071d565b005b34801561022357600080fd5b5061023e600480360381019061023991906121a8565b6107e3565b005b34801561024c57600080fd5b506102676004803603810190610262919061224d565b61087e565b005b34801561027557600080fd5b5061027e610b3c565b005b34801561028c57600080fd5b50610295610bc8565b005b6102b160048036038101906102ac91906122e7565b610c54565b005b3480156102bf57600080fd5b506102da60048036038101906102d59190611f08565b610fa5565b005b3480156102e857600080fd5b506102f161103d565b6040516102fe9190612336565b60405180910390f35b34801561031357600080fd5b5061031c61106d565b005b34801561032a57600080fd5b50610345600480360381019061034091906121a8565b611081565b005b34801561035357600080fd5b5061036e60048036038101906103699190611e78565b6111e6565b60405161037b9190612351565b60405180910390f35b34801561039057600080fd5b5061039961134e565b6040516103a69190612336565b60405180910390f35b3480156103bb57600080fd5b506103d660048036038101906103d19190612398565b611377565b005b3480156103e457600080fd5b506103ff60048036038101906103fa9190611f08565b6114a5565b005b34801561040d57600080fd5b50610428600480360381019061042391906121a8565b611738565b005b34801561043657600080fd5b50610451600480360381019061044c9190611e78565b6117e3565b60405161045e919061241a565b60405180910390f35b34801561047357600080fd5b5061048e60048036038101906104899190611f08565b611898565b005b34801561049c57600080fd5b506104b760048036038101906104b291906121a8565b61191b565b005b6005602052816000526040600020602052806000526040600020600091509150508060000154908060010154908060020154905083565b60046020528060005260406000206000915090508060000160009054906101000a900460ff169080600101549080600201549080600301549080600401549080600501805461053e90612464565b80601f016020809104026020016040519081016040528092919081815260200182805461056a90612464565b80156105b75780601f1061058c576101008083540402835291602001916105b7565b820191906000526020600020905b81548152906001019060200180831161059a57829003601f168201915b5050505050908060060160009054906101000a900460ff16905087565b6105dc611dae565b600460008373ffffffffffffffffffffffffffffffffffffffff1673ffffffffffffffffffffffffffffffffffffffff1681526020019081526020016000206040518060e00160405290816000820160009054906101000a900460ff161515151581526020016001820154815260200160028201548152602001600382015481526020016004820154815260200160058201805461067990612464565b80601f01602080910402602001604051908101604052809291908181526020018280546106a590612464565b80156106f25780601f106106c7576101008083540402835291602001916106f2565b820191906000526020600020905b8154815290600101906020018083116106d557829003601f168201915b505050505081526020016006820160009054906101000a900460ff1615151515815250509050919050565b60008111610760576040517f08c379a0000000000000000000000000000000000000000000000000000000008152600401610757906124e1565b60405180910390fd5b8173ffffffffffffffffffffffffffffffffffffffff1663095ea7b330836040518363ffffffff1660e01b815260040161079b929190612501565b6020604051808303816000875af11580156107ba573d6000803e3d6000fd5b505050506040513d601f19601f820116820180604052508101906107de919061253f565b505050565b6107eb611c64565b600260009054906101000a900473ffffffffffffffffffffffffffffffffffffffff1673ffffffffffffffffffffffffffffffffffffffff16639e281a9883836040518363ffffffff1660e01b8152600401610848929190612501565b600060405180830381600087803b15801561086257600080fd5b505af1158015610876573d6000803e3d6000fd5b505050505050565b610886611c64565b600460008773ffffffffffffffffffffffffffffffffffffffff1673ffffffffffffffffffffffffffffffffffffffff16815260200190815260200160002060000160009054906101000a900460ff1615610916576040517f08c379a000000000000000000000000000000000000000000000000000000000815260040161090d906125b8565b60405180910390fd5b84600460008873ffffffffffffffffffffffffffffffffffffffff1673ffffffffffffffffffffffffffffffffffffffff1681526020019081526020016000206001018190555083600460008873ffffffffffffffffffffffffffffffffffffffff1673ffffffffffffffffffffffffffffffffffffffff1681526020019081526020016000206002018190555082600460008873ffffffffffffffffffffffffffffffffffffffff1673ffffffffffffffffffffffffffffffffffffffff168152602001908152602001600020600301819055506001600460008873ffffffffffffffffffffffffffffffffffffffff1673ffffffffffffffffffffffffffffffffffffffff16815260200190815260200160002060000160006101000a81548160ff0219169083151502179055508181600460008973ffffffffffffffffffffffffffffffffffffffff1673ffffffffffffffffffffffffffffffffffffffff1681526020019081526020016000206005019182610a979291906127be565b506001600460008873ffffffffffffffffffffffffffffffffffffffff1673ffffffffffffffffffffffffffffffffffffffff16815260200190815260200160002060060160006101000a81548160ff0219169083151502179055507f62f0fa5319f02e8e89cdeab38db26e37da05500b9983908431721bb06942fad5868686868686604051610b2c969594939291906128ca565b60405180910390a1505050505050565b610b44611c64565b600260009054906101000a900473ffffffffffffffffffffffffffffffffffffffff1673ffffffffffffffffffffffffffffffffffffffff1663f83d08ba6040518163ffffffff1660e01b8152600401600060405180830381600087803b158015610bae57600080fd5b505af1158015610bc2573d6000803e3d6000fd5b50505050565b610bd0611c64565b600260009054906101000a900473ffffffffffffffffffffffffffffffffffffffff1673ffffffffffffffffffffffffffffffffffffffff1663a69df4b56040518163ffffffff1660e01b8152600401600060405180830381600087803b158015610c3a57600080fd5b505af1158015610c4e573d6000803e3d6000fd5b50505050565b60008211610c97576040517f08c379a0000000000000000000000000000000000000000000000000000000008152600401610c8e906124e1565b60405180910390fd5b8073ffffffffffffffffffffffffffffffffffffffff166323b872dd3330856040518463ffffffff1660e01b8152600401610cd493929190612926565b6020604051808303816000875af1158015610cf3573d6000803e3d6000fd5b505050506040513d601f19601f82011682018060405250810190610d17919061253f565b506000600460008373ffffffffffffffffffffffffffffffffffffffff1673ffffffffffffffffffffffffffffffffffffffff16815260200190815260200160002090506000600560008473ffffffffffffffffffffffffffffffffffffffff1673ffffffffffffffffffffffffffffffffffffffff16815260200190815260200160002060003373ffffffffffffffffffffffffffffffffffffffff1673ffffffffffffffffffffffffffffffffffffffff1681526020019081526020016000209050600015158260060160009054906101000a900460ff16151514610e33576040517f08c379a0000000000000000000000000000000000000000000000000000000008152600401610e2a906129a9565b60405180910390fd5b600081600001541115610f21576000600354610e4f85336111e6565b610e599190612a27565b90506000811115610f1f578373ffffffffffffffffffffffffffffffffffffffff1663a9059cbb33836040518363ffffffff1660e01b8152600401610e9f929190612501565b6020604051808303816000875af1158015610ebe573d6000803e3d6000fd5b505050506040513d601f19601f82011682018060405250810190610ee2919061253f565b507ff7a40077ff7a04c7e61f6f26fb13774259ddf1b6bce9ecf26a8276cdd3992683338583604051610f1693929190612926565b60405180910390a15b505b838160000154610f319190612a58565b816000018190555042816001018190555060008160020181905550838260040154610f5c9190612a58565b82600401819055507f7896c404bfb9173f4c61824c5e10e743eb885c3fe1c1727ed55ac3a51a350874848433604051610f9793929190612a8c565b60405180910390a150505050565b610fad611c64565b600260009054906101000a900473ffffffffffffffffffffffffffffffffffffffff1673ffffffffffffffffffffffffffffffffffffffff1663f2fde38b826040518263ffffffff1660e01b81526004016110089190612336565b600060405180830381600087803b15801561102257600080fd5b505af1158015611036573d6000803e3d6000fd5b5050505050565b6000611047611c64565b7f0000000000000000000000000000000000000000000000000000000000000000905090565b611075611c64565b61107f6000611ce2565b565b611089611c64565b600460008373ffffffffffffffffffffffffffffffffffffffff1673ffffffffffffffffffffffffffffffffffffffff16815260200190815260200160002060000160009054906101000a900460ff16611118576040517f08c379a000000000000000000000000000000000000000000000000000000000815260040161110f90612b0f565b60405180910390fd5b6000600460008473ffffffffffffffffffffffffffffffffffffffff1673ffffffffffffffffffffffffffffffffffffffff16815260200190815260200160002060030154905081600460008573ffffffffffffffffffffffffffffffffffffffff1673ffffffffffffffffffffffffffffffffffffffff168152602001908152602001600020600301819055507ffddfb8507d715d34ee8af706e485aa6bb68182fe2e4af3867a6204b6cde328cc8382846040516111d993929190612b2f565b60405180910390a1505050565b600080600460008573ffffffffffffffffffffffffffffffffffffffff1673ffffffffffffffffffffffffffffffffffffffff16815260200190815260200160002090506000600560008673ffffffffffffffffffffffffffffffffffffffff1673ffffffffffffffffffffffffffffffffffffffff16815260200190815260200160002060008573ffffffffffffffffffffffffffffffffffffffff1673ffffffffffffffffffffffffffffffffffffffff168152602001908152602001600020905060008160010154426112bc9190612b66565b90506000816301e1338060648660010154670de0b6b3a764000087600001546112e59190612b9a565b6112ef9190612b9a565b6112f99190612a27565b6113039190612a27565b61130d9190612b9a565b9050600060648560020154836113239190612b9a565b61132d9190612a27565b90506000818361133d9190612b66565b905080965050505050505092915050565b60008060009054906101000a900473ffffffffffffffffffffffffffffffffffffffff16905090565b61137f611c64565b600460008373ffffffffffffffffffffffffffffffffffffffff1673ffffffffffffffffffffffffffffffffffffffff16815260200190815260200160002060000160009054906101000a900460ff1661140e576040517f08c379a000000000000000000000000000000000000000000000000000000000815260040161140590612b0f565b60405180910390fd5b80600460008473ffffffffffffffffffffffffffffffffffffffff1673ffffffffffffffffffffffffffffffffffffffff16815260200190815260200160002060060160006101000a81548160ff0219169083151502179055507f03cacf29ad584516fd75540da918ba0888befbfe14651c0c8b2f05840ae236cf8282604051611499929190612bdc565b60405180910390a15050565b6000600460008373ffffffffffffffffffffffffffffffffffffffff1673ffffffffffffffffffffffffffffffffffffffff16815260200190815260200160002090506000600560008473ffffffffffffffffffffffffffffffffffffffff1673ffffffffffffffffffffffffffffffffffffffff16815260200190815260200160002060003373ffffffffffffffffffffffffffffffffffffffff1673ffffffffffffffffffffffffffffffffffffffff1681526020019081526020016000209050600015158260060160009054906101000a900460ff161515146115c0576040517f08c379a00000000000000000000000000000000000000000000000000000000081526004016115b7906129a9565b60405180910390fd5b60006003546115cf85336111e6565b6115d99190612a27565b90506000811161161e576040517f08c379a000000000000000000000000000000000000000000000000000000000815260040161161590612c51565b60405180910390fd5b8260030154811015611665576040517f08c379a000000000000000000000000000000000000000000000000000000000815260040161165c90612ce3565b60405180910390fd5b428260010181905550600082600201819055508373ffffffffffffffffffffffffffffffffffffffff1663a9059cbb33836040518363ffffffff1660e01b81526004016116b3929190612501565b6020604051808303816000875af11580156116d2573d6000803e3d6000fd5b505050506040513d601f19601f820116820180604052508101906116f6919061253f565b507ff7a40077ff7a04c7e61f6f26fb13774259ddf1b6bce9ecf26a8276cdd399268333858360405161172a93929190612926565b60405180910390a150505050565b611740611c64565b8173ffffffffffffffffffffffffffffffffffffffff1663a9059cbb7f0000000000000000000000000000000000000000000000000000000000000000836040518363ffffffff1660e01b815260040161179b929190612501565b6020604051808303816000875af11580156117ba573d6000803e3d6000fd5b505050506040513d601f19601f820116820180604052508101906117de919061253f565b505050565b6117eb611def565b600560008473ffffffffffffffffffffffffffffffffffffffff1673ffffffffffffffffffffffffffffffffffffffff16815260200190815260200160002060008373ffffffffffffffffffffffffffffffffffffffff1673ffffffffffffffffffffffffffffffffffffffff1681526020019081526020016000206040518060600160405290816000820154815260200160018201548152602001600282015481525050905092915050565b6118a0611c64565b600073ffffffffffffffffffffffffffffffffffffffff168173ffffffffffffffffffffffffffffffffffffffff160361190f576040517f08c379a000000000000000000000000000000000000000000000000000000000815260040161190690612d75565b60405180910390fd5b61191881611ce2565b50565b6000600460008473ffffffffffffffffffffffffffffffffffffffff1673ffffffffffffffffffffffffffffffffffffffff16815260200190815260200160002090506000600560008573ffffffffffffffffffffffffffffffffffffffff1673ffffffffffffffffffffffffffffffffffffffff16815260200190815260200160002060003373ffffffffffffffffffffffffffffffffffffffff1673ffffffffffffffffffffffffffffffffffffffff1681526020019081526020016000209050600015158260060160009054906101000a900460ff16151514611a36576040517f08c379a0000000000000000000000000000000000000000000000000000000008152600401611a2d906129a9565b60405180910390fd5b8060000154831115611a7d576040517f08c379a0000000000000000000000000000000000000000000000000000000008152600401611a7490612e07565b60405180910390fd5b600081600001541115611b6b576000600354611a9986336111e6565b611aa39190612a27565b90506000811115611b69578473ffffffffffffffffffffffffffffffffffffffff1663a9059cbb33836040518363ffffffff1660e01b8152600401611ae9929190612501565b6020604051808303816000875af1158015611b08573d6000803e3d6000fd5b505050506040513d601f19601f82011682018060405250810190611b2c919061253f565b507ff7a40077ff7a04c7e61f6f26fb13774259ddf1b6bce9ecf26a8276cdd3992683338683604051611b6093929190612926565b60405180910390a15b505b828160000154611b7b9190612b66565b8160000181905550428160010181905550828260040154611b9c9190612b66565b82600401819055508373ffffffffffffffffffffffffffffffffffffffff1663a9059cbb33856040518363ffffffff1660e01b8152600401611bdf929190612501565b6020604051808303816000875af1158015611bfe573d6000803e3d6000fd5b505050506040513d601f19601f82011682018060405250810190611c22919061253f565b507fd1c19fbcd4551a5edfb66d43d2e337c04837afda3482b42bdf569a8fccdae5fb338585604051611c5693929190612926565b60405180910390a150505050565b611c6c611da6565b73ffffffffffffffffffffffffffffffffffffffff16611c8a61134e565b73ffffffffffffffffffffffffffffffffffffffff1614611ce0576040517f08c379a0000000000000000000000000000000000000000000000000000000008152600401611cd790612e73565b60405180910390fd5b565b60008060009054906101000a900473ffffffffffffffffffffffffffffffffffffffff169050816000806101000a81548173ffffffffffffffffffffffffffffffffffffffff021916908373ffffffffffffffffffffffffffffffffffffffff1602179055508173ffffffffffffffffffffffffffffffffffffffff168173ffffffffffffffffffffffffffffffffffffffff167f8be0079c531659141344cd1fd0a4f28419497f9722a3daafe3b4186f6b6457e060405160405180910390a35050565b600033905090565b6040518060e0016040528060001515815260200160008152602001600081526020016000815260200160008152602001606081526020016000151581525090565b60405180606001604052806000815260200160008152602001600081525090565b600080fd5b600080fd5b600073ffffffffffffffffffffffffffffffffffffffff82169050919050565b6000611e4582611e1a565b9050919050565b611e5581611e3a565b8114611e6057600080fd5b50565b600081359050611e7281611e4c565b92915050565b60008060408385031215611e8f57611e8e611e10565b5b6000611e9d85828601611e63565b9250506020611eae85828601611e63565b9150509250929050565b6000819050919050565b611ecb81611eb8565b82525050565b6000606082019050611ee66000830186611ec2565b611ef36020830185611ec2565b611f006040830184611ec2565b949350505050565b600060208284031215611f1e57611f1d611e10565b5b6000611f2c84828501611e63565b91505092915050565b60008115159050919050565b611f4a81611f35565b82525050565b600081519050919050565b600082825260208201905092915050565b60005b83811015611f8a578082015181840152602081019050611f6f565b60008484015250505050565b6000601f19601f8301169050919050565b6000611fb282611f50565b611fbc8185611f5b565b9350611fcc818560208601611f6c565b611fd581611f96565b840191505092915050565b600060e082019050611ff5600083018a611f41565b6120026020830189611ec2565b61200f6040830188611ec2565b61201c6060830187611ec2565b6120296080830186611ec2565b81810360a083015261203b8185611fa7565b905061204a60c0830184611f41565b98975050505050505050565b61205f81611f35565b82525050565b61206e81611eb8565b82525050565b600082825260208201905092915050565b600061209082611f50565b61209a8185612074565b93506120aa818560208601611f6c565b6120b381611f96565b840191505092915050565b600060e0830160008301516120d66000860182612056565b5060208301516120e96020860182612065565b5060408301516120fc6040860182612065565b50606083015161210f6060860182612065565b5060808301516121226080860182612065565b5060a083015184820360a086015261213a8282612085565b91505060c083015161214f60c0860182612056565b508091505092915050565b6000602082019050818103600083015261217481846120be565b905092915050565b61218581611eb8565b811461219057600080fd5b50565b6000813590506121a28161217c565b92915050565b600080604083850312156121bf576121be611e10565b5b60006121cd85828601611e63565b92505060206121de85828601612193565b9150509250929050565b600080fd5b600080fd5b600080fd5b60008083601f84011261220d5761220c6121e8565b5b8235905067ffffffffffffffff81111561222a576122296121ed565b5b602083019150836001820283011115612246576122456121f2565b5b9250929050565b60008060008060008060a0878903121561226a57612269611e10565b5b600061227889828a01611e63565b965050602061228989828a01612193565b955050604061229a89828a01612193565b94505060606122ab89828a01612193565b935050608087013567ffffffffffffffff8111156122cc576122cb611e15565b5b6122d889828a016121f7565b92509250509295509295509295565b600080604083850312156122fe576122fd611e10565b5b600061230c85828601612193565b925050602061231d85828601611e63565b9150509250929050565b61233081611e3a565b82525050565b600060208201905061234b6000830184612327565b92915050565b60006020820190506123666000830184611ec2565b92915050565b61237581611f35565b811461238057600080fd5b50565b6000813590506123928161236c565b92915050565b600080604083850312156123af576123ae611e10565b5b60006123bd85828601611e63565b92505060206123ce85828601612383565b9150509250929050565b6060820160008201516123ee6000850182612065565b5060208201516124016020850182612065565b5060408201516124146040850182612065565b50505050565b600060608201905061242f60008301846123d8565b92915050565b7f4e487b7100000000000000000000000000000000000000000000000000000000600052602260045260246000fd5b6000600282049050600182168061247c57607f821691505b60208210810361248f5761248e612435565b5b50919050565b7f416d6f756e74206d757374206265206f766572207a65726f0000000000000000600082015250565b60006124cb601883611f5b565b91506124d682612495565b602082019050919050565b600060208201905081810360008301526124fa816124be565b9050919050565b60006040820190506125166000830185612327565b6125236020830184611ec2565b9392505050565b6000815190506125398161236c565b92915050565b60006020828403121561255557612554611e10565b5b60006125638482850161252a565b91505092915050565b7f5468697320706f6f6c20697320616c7265616479206372656174656400000000600082015250565b60006125a2601c83611f5b565b91506125ad8261256c565b602082019050919050565b600060208201905081810360008301526125d181612595565b9050919050565b600082905092915050565b7f4e487b7100000000000000000000000000000000000000000000000000000000600052604160045260246000fd5b60008190508160005260206000209050919050565b60006020601f8301049050919050565b600082821b905092915050565b6000600883026126747fffffffffffffffffffffffffffffffffffffffffffffffffffffffffffffffff82612637565b61267e8683612637565b95508019841693508086168417925050509392505050565b6000819050919050565b60006126bb6126b66126b184611eb8565b612696565b611eb8565b9050919050565b6000819050919050565b6126d5836126a0565b6126e96126e1826126c2565b848454612644565b825550505050565b600090565b6126fe6126f1565b6127098184846126cc565b505050565b5b8181101561272d576127226000826126f6565b60018101905061270f565b5050565b601f8211156127725761274381612612565b61274c84612627565b8101602085101561275b578190505b61276f61276785612627565b83018261270e565b50505b505050565b600082821c905092915050565b600061279560001984600802612777565b1980831691505092915050565b60006127ae8383612784565b9150826002028217905092915050565b6127c883836125d8565b67ffffffffffffffff8111156127e1576127e06125e3565b5b6127eb8254612464565b6127f6828285612731565b6000601f8311600181146128255760008415612813578287013590505b61281d85826127a2565b865550612885565b601f19841661283386612612565b60005b8281101561285b57848901358255600182019150602085019450602081019050612836565b868310156128785784890135612874601f891682612784565b8355505b6001600288020188555050505b50505050505050565b82818337600083830152505050565b60006128a98385611f5b565b93506128b683858461288e565b6128bf83611f96565b840190509392505050565b600060a0820190506128df6000830189612327565b6128ec6020830188611ec2565b6128f96040830187611ec2565b6129066060830186611ec2565b818103608083015261291981848661289d565b9050979650505050505050565b600060608201905061293b6000830186612327565b6129486020830185612327565b6129556040830184611ec2565b949350505050565b7f506f6f6c206d75737420626520756e7061757365640000000000000000000000600082015250565b6000612993601583611f5b565b915061299e8261295d565b602082019050919050565b600060208201905081810360008301526129c281612986565b9050919050565b7f4e487b7100000000000000000000000000000000000000000000000000000000600052601260045260246000fd5b7f4e487b7100000000000000000000000000000000000000000000000000000000600052601160045260246000fd5b6000612a3282611eb8565b9150612a3d83611eb8565b925082612a4d57612a4c6129c9565b5b828204905092915050565b6000612a6382611eb8565b9150612a6e83611eb8565b9250828201905080821115612a8657612a856129f8565b5b92915050565b6000606082019050612aa16000830186611ec2565b612aae6020830185612327565b612abb6040830184612327565b949350505050565b7f5468697320706f6f6c206973206e6f7420637265617465640000000000000000600082015250565b6000612af9601883611f5b565b9150612b0482612ac3565b602082019050919050565b60006020820190508181036000830152612b2881612aec565b9050919050565b6000606082019050612b446000830186612327565b612b516020830185611ec2565b612b5e6040830184611ec2565b949350505050565b6000612b7182611eb8565b9150612b7c83611eb8565b9250828203905081811115612b9457612b936129f8565b5b92915050565b6000612ba582611eb8565b9150612bb083611eb8565b9250828202612bbe81611eb8565b91508282048414831517612bd557612bd46129f8565b5b5092915050565b6000604082019050612bf16000830185612327565b612bfe6020830184611f41565b9392505050565b7f4e6f2072657761726420746f20636c61696d0000000000000000000000000000600082015250565b6000612c3b601283611f5b565b9150612c4682612c05565b602082019050919050565b60006020820190508181036000830152612c6a81612c2e565b9050919050565b7f4e6f7420656e6f756768206d696e696d756d207265776172647320746f20636c60008201527f61696d0000000000000000000000000000000000000000000000000000000000602082015250565b6000612ccd602383611f5b565b9150612cd882612c71565b604082019050919050565b60006020820190508181036000830152612cfc81612cc0565b9050919050565b7f4f776e61626c653a206e6577206f776e657220697320746865207a65726f206160008201527f6464726573730000000000000000000000000000000000000000000000000000602082015250565b6000612d5f602683611f5b565b9150612d6a82612d03565b604082019050919050565b60006020820190508181036000830152612d8e81612d52565b9050919050565b7f54686520616d6f756e74206973206f76657220796f75722062616c616e63652060008201527f696e207468697320706f6f6c0000000000000000000000000000000000000000602082015250565b6000612df1602c83611f5b565b9150612dfc82612d95565b604082019050919050565b60006020820190508181036000830152612e2081612de4565b9050919050565b7f4f776e61626c653a2063616c6c6572206973206e6f7420746865206f776e6572600082015250565b6000612e5d602083611f5b565b9150612e6882612e27565b602082019050919050565b60006020820190508181036000830152612e8c81612e50565b905091905056fea2646970667358221220656470aa130fa2a22f75b516f23f14f61f7254dc19baf2d4ad73d687ab0ffcd464736f6c63430008120033",
  "immutableReferences": {
    "1056": [
      {
        "length": 32,
        "start": 4169
      },
      {
        "length": 32,
        "start": 5982
      }
    ]
  },
  "source": "// SPDX-License-Identifier: MIT\npragma solidity ^0.8.18;\n\nimport \"@openzeppelin/contracts/access/Ownable.sol\";\nimport \"@openzeppelin/contracts/token/ERC20/IERC20.sol\";\nimport \"@openzeppelin/contracts/token/ERC20/utils/SafeERC20.sol\";\nimport \"@chainlink/contracts/src/v0.8/interfaces/AggregatorV3Interface.sol\";\n\nimport \"./IVaultStaking.sol\";\n\ncontract Staking is Ownable {\n\n    //using SafeERC20 for IERC20; //https://docs.openzeppelin.com/contracts/4.x/api/token/erc20#SafeERC20\n\n    IERC20 private rewardToken;\n    IVaultStaking private myVault;\n    address private immutable vaultAddress;\n\n    constructor (IERC20 _rewardToken, address _vaultAddress) {\n        rewardToken = _rewardToken;\n        myVault = IVaultStaking(_vaultAddress);\n        vaultAddress = _vaultAddress;\n    }\n\n    function unlockVault() external onlyOwner {\n        myVault.unlock();\n    }\n\n    function transferVaultOwner(address _address) external onlyOwner {\n        myVault.transferOwnership(_address);\n    }\n\n   function lockVault() external onlyOwner {\n        myVault.lock();\n    }\n\n    function withdrawFromVault(address _tokenAddress, uint256 _amount) external onlyOwner {\n        myVault.withdrawToken(_tokenAddress, _amount);\n    }\n\n    function sendBackToVault(address _tokenAddress, uint256 _amount) external onlyOwner {\n        IERC20(_tokenAddress).transfer(vaultAddress, _amount);\n    }\n\n    function getMyVault() external onlyOwner view returns(address) {\n        return(vaultAddress);\n    }\n\n    // decimal defnit pour le calcul des rewards\n    uint256 rewardDecimal = 1e18; // for testing 1e15 vs production 1e18\n\n    struct UserInfo {\n        uint256 stakedAmount; \n        uint256 lastStakedTimestamp;\n        uint256 reward;\n    }\n\n    struct PoolData {\n        bool isCreated;\n        uint256 apr;\n        uint256 fees;\n        uint256 minimumClaim;\n        uint256 totalValueLocked;\n        string symbol;\n        bool paused;\n        //address oracleAggregatorAddress;\n    }\n\n    // Map token adress\n    mapping(address => PoolData) public poolData;\n    // Map token adress then user address\n    mapping (address => mapping (address => UserInfo)) public userInfo;\n    \n    event PoolCreated (address tokenAddress, uint256 apr, uint256 fees, uint256 minimumClaim, string symbol);\n    event Deposited(uint256 amount, address asset, address user);\n    event Withdrawn (address receiver, address tokenAddress, uint256 amountWithdraw);\n    event Claimed (address receiver, address tokenAddress, uint rewardClaimedAmount);\n    event PausedPoolStatus (address tokenAddress, bool pausedStatus);\n    event PoolMinimumToClaimChanged (address tokenAddress, uint256 oldAmount, uint256 newAmount);\n\n    function createLiquidityPool(address _tokenAddress, uint256 _apr, uint256 _fees, uint256 _minimumClaim, string calldata _symbol) external onlyOwner {\n        require(!poolData[_tokenAddress].isCreated, \"This pool is already created\");\n\n        poolData[_tokenAddress].apr = _apr;\n        poolData[_tokenAddress].fees = _fees;\n        poolData[_tokenAddress].minimumClaim = _minimumClaim;\n        poolData[_tokenAddress].isCreated = true;\n        poolData[_tokenAddress].symbol = _symbol;\n        poolData[_tokenAddress].paused = true;\n        //poolData[_tokenAddress].oracleAggregatorAddress = _oracleAggregatorAddress;\n\n        emit PoolCreated(_tokenAddress, _apr, _fees, _minimumClaim, _symbol);\n    }\n\n    function approveEVCT(address _tokenAddress, uint256 _amount) external {\n        require(_amount > 0, \"Amount must be over zero\");\n        IERC20(_tokenAddress).approve(address(this), _amount);\n    }\n\n    function setPoolPaused(address _tokenAddress, bool _value) external onlyOwner {\n        require(poolData[_tokenAddress].isCreated, \"This pool is not created\");\n        poolData[_tokenAddress].paused = _value;\n        emit PausedPoolStatus(_tokenAddress, _value);\n    }\n\n    function setPoolMinimumToClaim(address _tokenAddress, uint256 _amount) external onlyOwner {\n        require(poolData[_tokenAddress].isCreated, \"This pool is not created\");\n        uint256 oldValue = poolData[_tokenAddress].minimumClaim;\n        poolData[_tokenAddress].minimumClaim = _amount;\n        emit PoolMinimumToClaimChanged(_tokenAddress, oldValue, _amount);\n    }\n\n    // Dans Remix utiliser IERC20 avec le parametre \"At adress\" adresse du token de rewards\n    // puis dans l'interface \"Approve\" l'adresse du contrat de Staking et amount = 1000000000000000000 = 1 ETH\n    function deposit(uint256 _amount, address _tokenAddress) external payable {\n        //require(IERC20(_tokenAddress).allowance(msg.sender, address(this)) >= _amount, \"Insufficient allowance\");\n         require(_amount > 0, \"Amount must be over zero\");\n\n        //IERC20(_tokenAddress).approve(address(this), _amount);\n        IERC20(_tokenAddress).transferFrom(msg.sender, address(this), _amount);\n\n        PoolData storage poolStorage = poolData[_tokenAddress];\n        UserInfo storage userStorage = userInfo[_tokenAddress][msg.sender];\n        require(poolStorage.paused == false, \"Pool must be unpaused\");\n\n        // Set user current rewards to storage before deposit\n        // userStorage.reward = userStorage.reward + (calculateReward(_tokenAddress, msg.sender) / rewardDecimal); // for testing divide by 1e15 against 1e18\n        // Claim pending rewards before new deposit\n        if (userStorage.stakedAmount > 0) {\n            uint256 pendingReward = (calculateReward(_tokenAddress, msg.sender) / rewardDecimal);\n            if (pendingReward > 0) {\n                IERC20(_tokenAddress).transfer(msg.sender, pendingReward);\n                emit Claimed(msg.sender, _tokenAddress, pendingReward);\n            }\n        }\n\n        // Update the staked amount and the timestamp to compute new amount reward at this specific time\n        userStorage.stakedAmount = userStorage.stakedAmount + _amount;\n        userStorage.lastStakedTimestamp = block.timestamp; \n        userStorage.reward = 0;\n\n        // Update the tvl of the liquidity pool\n        poolStorage.totalValueLocked = poolStorage.totalValueLocked  + _amount;\n        emit Deposited(_amount, _tokenAddress, msg.sender);\n    }\n\n    function withdraw(address _tokenAddress, uint256 _amount) external {\n        PoolData storage poolStorage = poolData[_tokenAddress];\n        UserInfo storage userStorage = userInfo[_tokenAddress][msg.sender];\n        \n        require(poolStorage.paused == false, \"Pool must be unpaused\");\n        require(_amount <= userStorage.stakedAmount, \"The amount is over your balance in this pool\");\n\n        // save reward before withdraw to be able to claim it later\n        //userStorage.reward = userStorage.reward + (calculateReward(_tokenAddress, msg.sender) / rewardDecimal); // for testing divide by 1e15 against 1e18\n        // Claim pending rewards before new deposit\n        if (userStorage.stakedAmount > 0) {\n            uint256 pendingReward = (calculateReward(_tokenAddress, msg.sender) / rewardDecimal);\n            if (pendingReward > 0) {\n                IERC20(_tokenAddress).transfer(msg.sender, pendingReward);\n                emit Claimed(msg.sender, _tokenAddress, pendingReward);\n            }\n        }\n\n        // Update the staked amount and the timestamp to compute new amount reward at this specific time\n        userStorage.stakedAmount = userStorage.stakedAmount - _amount;\n        userStorage.lastStakedTimestamp = block.timestamp;\n\n        // Update the tvl of the liquidity pool\n        poolStorage.totalValueLocked = poolStorage.totalValueLocked  - _amount;\n\n        // Send the token back to the sender\n        //IERC20(_tokenAddress).approve(address(this), _amount);\n        IERC20(_tokenAddress).transfer(msg.sender, _amount);\n    \n        emit Withdrawn(msg.sender, _tokenAddress, _amount);\n    }\n\n    function calculateReward(address _tokenAddress, address _user) public view returns (uint256) {\n        PoolData storage poolStorage = poolData[_tokenAddress];\n        UserInfo storage userStorage = userInfo[_tokenAddress][_user];\n        uint256 stakingDuration = block.timestamp - userStorage.lastStakedTimestamp; // not ideal cause latency but it is ok\n        // calcul : amountRewards = staked amount * reward rate per second * elapsedtime\n        // BE CAREFUL : amount multiplication by 1e18 for decimal so need to divide by 1e18 in the front\n        uint256 amountRewards = ((((userStorage.stakedAmount * 1e18 * poolStorage.apr) / 100) / 31536000) * stakingDuration);\n        uint256 feesAmount = ((amountRewards * poolStorage.fees) / 100);\n        uint256 netRewards = amountRewards - feesAmount;\n        return netRewards;\n    }\n\n    function claimReward(address _tokenAddress) external {\n        PoolData storage poolStorage = poolData[_tokenAddress];\n        UserInfo storage userStorage = userInfo[_tokenAddress][msg.sender];\n        require(poolStorage.paused == false, \"Pool must be unpaused\");\n        uint256 reward = (calculateReward(_tokenAddress, msg.sender) / rewardDecimal); // for testing divide by 1e15 against 1e18\n        require(reward > 0, \"No reward to claim\");\n        require(reward >= poolStorage.minimumClaim, \"Not enough minimum rewards to claim\");\n        \n        // Update the timestamp and the reward amount\n        userStorage.lastStakedTimestamp = block.timestamp;\n        userStorage.reward = 0;\n        IERC20(_tokenAddress).transfer(msg.sender, reward);\n        emit Claimed(msg.sender, _tokenAddress, reward);\n    }\n\n    function getUserInfo(address _tokenAddress, address _userAddress) external view returns (UserInfo memory) {\n        return(userInfo[_tokenAddress][_userAddress]);\n    }\n\n    function getPoolData(address _tokenAddress) external view returns (PoolData memory) {\n        return poolData[_tokenAddress];\n    }\n\n\n// DEBUG FUNCTIONS\n\n /*   function displayStakingDuration(address _tokenAddress, address _user) public view returns (uint256) {\n        UserInfo storage userStorage = userInfo[_tokenAddress][_user];\n        uint256 stakingDuration = block.timestamp - userStorage.lastStakedTimestamp; // not ideal cause latency but it is ok\n        return stakingDuration;\n    }\n\n    function displayAmountRewardsInWei(address _tokenAddress, address _user) public view returns (uint256) {\n        PoolData storage poolStorage = poolData[_tokenAddress];\n        UserInfo storage userStorage = userInfo[_tokenAddress][_user];\n        uint256 stakingDuration = block.timestamp - userStorage.lastStakedTimestamp; // not ideal cause latency but it is ok\n        uint256 amountRewards = ((((userStorage.stakedAmount * 1e18 * poolStorage.apr) / 100) / 31536000) * stakingDuration);\n        return amountRewards;\n    }\n\n    function displayFeesAmountInWei(address _tokenAddress, address _user) public view returns (uint256) {\n        PoolData storage poolStorage = poolData[_tokenAddress];\n        UserInfo storage userStorage = userInfo[_tokenAddress][_user];\n        uint256 stakingDuration = block.timestamp - userStorage.lastStakedTimestamp; // not ideal cause latency but it is ok\n        uint256 amountRewards = ((((userStorage.stakedAmount * 1e18 * poolStorage.apr) / 100) / 31536000) * stakingDuration);\n        uint256 feesAmount = ((amountRewards * poolStorage.fees) / 100);\n        return feesAmount;\n    }\n*/\n}",
  "sourcePath": "/home/adm-linux/projet4/truffle/contracts/Staking.sol",
  "compiler": {
    "name": "solc",
    "version": "0.8.18+commit.87f61d96.Emscripten.clang"
  },
  "schemaVersion": "3.4.14",
  "updatedAt": "2023-07-25T19:44:58.622Z",
  "networkType": "ethereum",
  "devdoc": {
    "kind": "dev",
    "methods": {
      "owner()": {
        "details": "Returns the address of the current owner."
      },
      "renounceOwnership()": {
        "details": "Leaves the contract without owner. It will not be possible to call `onlyOwner` functions. Can only be called by the current owner. NOTE: Renouncing ownership will leave the contract without an owner, thereby disabling any functionality that is only available to the owner."
      },
      "transferOwnership(address)": {
        "details": "Transfers ownership of the contract to a new account (`newOwner`). Can only be called by the current owner."
      }
    },
    "version": 1
  },
  "userdoc": {
    "kind": "user",
    "methods": {},
    "version": 1
  }
}