{
  "contractName": "Vault",
  "abi": [
    {
      "anonymous": false,
      "inputs": [],
      "name": "Locked",
      "type": "event"
    },
    {
      "anonymous": false,
      "inputs": [
        {
          "indexed": true,
          "internalType": "address",
          "name": "previousOwner",
          "type": "address"
        },
        {
          "indexed": true,
          "internalType": "address",
          "name": "newOwner",
          "type": "address"
        }
      ],
      "name": "OwnershipTransferred",
      "type": "event"
    },
    {
      "anonymous": false,
      "inputs": [],
      "name": "Unlocked",
      "type": "event"
    },
    {
      "anonymous": false,
      "inputs": [
        {
          "indexed": false,
          "internalType": "address",
          "name": "receiver",
          "type": "address"
        },
        {
          "indexed": false,
          "internalType": "address",
          "name": "token",
          "type": "address"
        },
        {
          "indexed": false,
          "internalType": "uint256",
          "name": "amount",
          "type": "uint256"
        }
      ],
      "name": "WithdrawToken",
      "type": "event"
    },
    {
      "inputs": [],
      "name": "locked",
      "outputs": [
        {
          "internalType": "bool",
          "name": "",
          "type": "bool"
        }
      ],
      "stateMutability": "view",
      "type": "function",
      "constant": true
    },
    {
      "inputs": [],
      "name": "owner",
      "outputs": [
        {
          "internalType": "address",
          "name": "",
          "type": "address"
        }
      ],
      "stateMutability": "view",
      "type": "function",
      "constant": true
    },
    {
      "inputs": [],
      "name": "renounceOwnership",
      "outputs": [],
      "stateMutability": "nonpayable",
      "type": "function"
    },
    {
      "inputs": [
        {
          "internalType": "address",
          "name": "newOwner",
          "type": "address"
        }
      ],
      "name": "transferOwnership",
      "outputs": [],
      "stateMutability": "nonpayable",
      "type": "function"
    },
    {
      "inputs": [],
      "name": "lock",
      "outputs": [],
      "stateMutability": "nonpayable",
      "type": "function"
    },
    {
      "inputs": [],
      "name": "unlock",
      "outputs": [],
      "stateMutability": "nonpayable",
      "type": "function"
    },
    {
      "inputs": [
        {
          "internalType": "address",
          "name": "token",
          "type": "address"
        },
        {
          "internalType": "uint256",
          "name": "amount",
          "type": "uint256"
        }
      ],
      "name": "withdrawToken",
      "outputs": [],
      "stateMutability": "nonpayable",
      "type": "function"
    }
  ],
  "bytecode": "0x60806040526001600060146101000a81548160ff02191690831515021790555034801561002b57600080fd5b5061004861003d61004d60201b60201c565b61005560201b60201c565b610119565b600033905090565b60008060009054906101000a900473ffffffffffffffffffffffffffffffffffffffff169050816000806101000a81548173ffffffffffffffffffffffffffffffffffffffff021916908373ffffffffffffffffffffffffffffffffffffffff1602179055508173ffffffffffffffffffffffffffffffffffffffff168173ffffffffffffffffffffffffffffffffffffffff167f8be0079c531659141344cd1fd0a4f28419497f9722a3daafe3b4186f6b6457e060405160405180910390a35050565b6108ed806101286000396000f3fe608060405234801561001057600080fd5b506004361061007d5760003560e01c8063a69df4b51161005b578063a69df4b5146100c6578063cf309012146100d0578063f2fde38b146100ee578063f83d08ba1461010a5761007d565b8063715018a6146100825780638da5cb5b1461008c5780639e281a98146100aa575b600080fd5b61008a610114565b005b610094610128565b6040516100a19190610529565b60405180910390f35b6100c460048036038101906100bf91906105ab565b610151565b005b6100ce610267565b005b6100d86102b7565b6040516100e59190610606565b60405180910390f35b61010860048036038101906101039190610621565b6102ca565b005b61011261034d565b005b61011c61039e565b610126600061041c565b565b60008060009054906101000a900473ffffffffffffffffffffffffffffffffffffffff16905090565b61015961039e565b600060149054906101000a900460ff16156101a9576040517f08c379a00000000000000000000000000000000000000000000000000000000081526004016101a0906106d1565b60405180910390fd5b8173ffffffffffffffffffffffffffffffffffffffff1663a9059cbb33836040518363ffffffff1660e01b81526004016101e4929190610700565b6020604051808303816000875af1158015610203573d6000803e3d6000fd5b505050506040513d601f19601f820116820180604052508101906102279190610755565b507f037238854fe57fbf51f09946f854fc3916fe83938d6521f09bd05463839f130433838360405161025b93929190610782565b60405180910390a15050565b61026f61039e565b60008060146101000a81548160ff0219169083151502179055507f19aad37188a1d3921e29eb3c66acf43d81975e107cb650d58cca878627955fd660405160405180910390a1565b600060149054906101000a900460ff1681565b6102d261039e565b600073ffffffffffffffffffffffffffffffffffffffff168173ffffffffffffffffffffffffffffffffffffffff1603610341576040517f08c379a00000000000000000000000000000000000000000000000000000000081526004016103389061082b565b60405180910390fd5b61034a8161041c565b50565b61035561039e565b6001600060146101000a81548160ff0219169083151502179055507f0f2e5b6c72c6a4491efd919a9f9a409f324ef0708c11ee57d410c2cb06c0992b60405160405180910390a1565b6103a66104e0565b73ffffffffffffffffffffffffffffffffffffffff166103c4610128565b73ffffffffffffffffffffffffffffffffffffffff161461041a576040517f08c379a000000000000000000000000000000000000000000000000000000000815260040161041190610897565b60405180910390fd5b565b60008060009054906101000a900473ffffffffffffffffffffffffffffffffffffffff169050816000806101000a81548173ffffffffffffffffffffffffffffffffffffffff021916908373ffffffffffffffffffffffffffffffffffffffff1602179055508173ffffffffffffffffffffffffffffffffffffffff168173ffffffffffffffffffffffffffffffffffffffff167f8be0079c531659141344cd1fd0a4f28419497f9722a3daafe3b4186f6b6457e060405160405180910390a35050565b600033905090565b600073ffffffffffffffffffffffffffffffffffffffff82169050919050565b6000610513826104e8565b9050919050565b61052381610508565b82525050565b600060208201905061053e600083018461051a565b92915050565b600080fd5b61055281610508565b811461055d57600080fd5b50565b60008135905061056f81610549565b92915050565b6000819050919050565b61058881610575565b811461059357600080fd5b50565b6000813590506105a58161057f565b92915050565b600080604083850312156105c2576105c1610544565b5b60006105d085828601610560565b92505060206105e185828601610596565b9150509250929050565b60008115159050919050565b610600816105eb565b82525050565b600060208201905061061b60008301846105f7565b92915050565b60006020828403121561063757610636610544565b5b600061064584828501610560565b91505092915050565b600082825260208201905092915050565b7f546f6b656e5661756c743a20546f6b656e207661756c74206973206c6f636b6560008201527f6400000000000000000000000000000000000000000000000000000000000000602082015250565b60006106bb60218361064e565b91506106c68261065f565b604082019050919050565b600060208201905081810360008301526106ea816106ae565b9050919050565b6106fa81610575565b82525050565b6000604082019050610715600083018561051a565b61072260208301846106f1565b9392505050565b610732816105eb565b811461073d57600080fd5b50565b60008151905061074f81610729565b92915050565b60006020828403121561076b5761076a610544565b5b600061077984828501610740565b91505092915050565b6000606082019050610797600083018661051a565b6107a4602083018561051a565b6107b160408301846106f1565b949350505050565b7f4f776e61626c653a206e6577206f776e657220697320746865207a65726f206160008201527f6464726573730000000000000000000000000000000000000000000000000000602082015250565b600061081560268361064e565b9150610820826107b9565b604082019050919050565b6000602082019050818103600083015261084481610808565b9050919050565b7f4f776e61626c653a2063616c6c6572206973206e6f7420746865206f776e6572600082015250565b600061088160208361064e565b915061088c8261084b565b602082019050919050565b600060208201905081810360008301526108b081610874565b905091905056fea26469706673582212207ab7337713142e975bec5f412f7c21caf77aa50fc59651b1bdbf62caa6d4bbc564736f6c63430008120033",
  "immutableReferences": {},
  "source": "// SPDX-License-Identifier: MIT\npragma solidity ^0.8.18;\n\nimport \"@openzeppelin/contracts/token/ERC20/IERC20.sol\";\nimport \"@openzeppelin/contracts/access/Ownable.sol\";\n\nimport \"./IVault.sol\";\n\ncontract Vault is InterfaceVault, Ownable {\n    bool public locked = true;\n\n    function lock() external onlyOwner {\n        locked = true;\n        emit Locked();\n    }\n\n    function unlock() external onlyOwner {\n        locked = false;\n        emit Unlocked();\n    }\n\n    function withdrawToken(\n        address token,\n        uint256 amount\n    ) external override onlyOwner {\n        require(!locked, \"TokenVault: Token vault is locked\");\n\n        IERC20(token).transfer(msg.sender, amount);\n        emit WithdrawToken(msg.sender, token, amount);\n    }\n}",
  "sourcePath": "/home/adm-linux/projet4/truffle/contracts/Vault.sol",
  "compiler": {
    "name": "solc",
    "version": "0.8.18+commit.87f61d96.Emscripten.clang"
  },
  "schemaVersion": "3.4.14",
  "updatedAt": "2023-07-25T19:44:58.610Z",
  "networkType": "ethereum",
  "devdoc": {
    "events": {
      "WithdrawToken(address,address,uint256)": {
        "params": {
          "amount": "uint256 - token amount",
          "receiver": "address - Receiver of token",
          "token": "address - Token address"
        }
      }
    },
    "kind": "dev",
    "methods": {
      "owner()": {
        "details": "Returns the address of the current owner."
      },
      "renounceOwnership()": {
        "details": "Leaves the contract without owner. It will not be possible to call `onlyOwner` functions. Can only be called by the current owner. NOTE: Renouncing ownership will leave the contract without an owner, thereby disabling any functionality that is only available to the owner."
      },
      "transferOwnership(address)": {
        "details": "Transfers ownership of the contract to a new account (`newOwner`). Can only be called by the current owner."
      },
      "withdrawToken(address,uint256)": {
        "params": {
          "amount": "uint256 - Amount of token to withdraw",
          "token": "address - Token to withdraw"
        }
      }
    },
    "version": 1
  },
  "userdoc": {
    "events": {
      "Locked()": {
        "notice": "Emitted on vault lock"
      },
      "Unlocked()": {
        "notice": "Emitted on vault unlock"
      },
      "WithdrawToken(address,address,uint256)": {
        "notice": "Emitted on token withdrawal"
      }
    },
    "kind": "user",
    "methods": {
      "lock()": {
        "notice": "Locks the vault"
      },
      "unlock()": {
        "notice": "Unlocks the vault"
      },
      "withdrawToken(address,uint256)": {
        "notice": "Withdraws token stores at the contract"
      }
    },
    "version": 1
  }
}